:030000000273196F
:1073190078FFE4F6D8FD9000007F007E08E4F0A332
:0A732900DFFCDEFA75812302736EAB
:02551700C11AB7
:10529D00900544E060030253B5301A08C21A900518
:1052AD00437402F09005447401F090047074F7F0AB
:1052BD00A304F09004737401F0A3F0900543E09003
:1052CD000475F024FE60121460632402600302531F
:1052DD00649005427408F0807E9005427416F0903B
:1052ED00048DE0900476F0E490048DF090049AE043
:1052FD00FFA3E0900477CFF0A3EFF0E4A3F09004C8
:10530D00A2E090047AF090049FE090047BF0E4A377
:10531D00F0A31229A7000CB7359004817413F0A3E4
:10532D007424F0900490E0900483F0802A9005425C
:10533D00740CF090048DE0900476F0E490048DF000
:10534D0090049AE0FFA3E0900477CFF0A3EFF01262
:10535D007FB2900479EFF0900542E024FCFF9004B9
:10536D0072F07E03900542E024FEFDEEC39D5010C9
:10537D0074702EF582E43404F583E02FFF0E80E483
:10538D00900542E0FE246EF582E43404F583EFF0DF
:10539D00746F2EF582E43404F58374FDF09004707F
:1053AD00E090FE8AF00254FF900544E06401600332
:1053BD0002550C200E030254D290048FF090054537
:1053CD00F0C20AC20E900544F0900450E0900543DF
:1053DD00F024FE601C147003025473240260030257
:1053ED0054CB900453E0900443F09005437402F0C5
:1053FD0022900452E0FFA3E09004A0CFF0A3EFF0C1
:10540D00900493E0FFA3E090049DCFF0A3EFF09004
:10541D000456E0FFA3E0900493CFF0A3EFF09004C7
:10542D005AE0900446F0900460E0FD900497F090EF
:10543D00045EE0FE90045DE0FBEBFF900489EEF06E
:10544D00A3EFF090045FE013920B900497EDF090B2
:10545D000443E0C394647480948050030255169005
:10546D0005437403F022900451E024FF920BA3E056
:10547D00FFA3E09004A0CFF0A3EFF0900493E0FF22
:10548D00A3E090049DCFF0A3EFF0900454E0FFA3B0
:10549D00E0900493CFF0A3EFF0900456E090044613
:1054AD00F0900457E0900497F0900459E0FE9004BA
:1054BD0058E0FDEDFF900489EEF0A3EFF02290058A
:1054CD00437401F02290048FE0C39419748094808A
:1054DD004026900545E0940F748094804004D20AD4
:1054ED008006900545E004F0E4900544F0900543F6
:1054FD0004F0E490048FF02290048FE004F022E495
:09550D00900544F090054304F000
:015516002272
:03003B0002645A02
:10645A00C0E0C083C082C0D075D000C004C005C0EF
:03646A0006C00762
:10646D0090FE88E020E00302656B900445E0C39444
:10647D0023748094804002E4F090FE8AE0FF900443
:10648D0045E0FE244BF582E43404F583EFF0EEFF96
:10649D007E00701390044BE064F790044570030286
:1064AD00655AE4F0026564EF64014E701390044C7C
:1064BD00E064F8900445700302655AE4F0026564E7
:1064CD00900445E0FF7E006404701390044EE06478
:1064DD00017069A3E064027079900445806F9004A7
:1064ED004DE02403FDE433FCED6F7002EC6E705053
:1064FD00900445E0244BF582E43404F583E064FD1B
:10650D00703CFF7E02900445E0FD14FCEEC39C50F0
:10651D0010744B2EF582E43404F583E02FFF0E80CA
:10652D00E4744A2DF582E43404F583E0B5070DD209
:10653D000E900445E4F090044AF0801B8014801204
:10654D00900445E0C39423748094805005E004F0DA
:10655D008005900445E4F090FE88E054FEF090FE36
:10656D0088E030E13B90044AE0C394197480948034
:10657D005003E004F0900542E0FF90044AE0FEC3B2
:10658D009F501174702EF582E43404F583E090FE73
:10659D008AF0800590044AE4F090FE88E054FDF006
:1065AD00D007D006D005D004D0D0D082D083D0E093
:0165BD0032AB
:1084B800E4FEEEC39D5015C286EF30E704D28580F6
:0C84C80002C285EF25E0FFD2860E80E6A0
:0184D4002285
:04842B00122745FFD0
:10842F00E4FEEEC39408748094805015C286EF303A
:10843F00E004D2858002C285EFC313FFD2860E807F
:01844F00E14B
:018450002209
:10855700AC07D286C2847D037F801284B8AF047DC6
:07856700091284B8D284223E
:106D900090027BE0F9A3E0FAA3E090030CC9F0A312
:106DA000EAF0A3E9F090027EE0F9A3E0FAA3E09014
:106DB000030FC9F0A3EAF0A3E9F0C2847D037FA02A
:106DC0001284B87D07E4FF1284B890030FE0FBA3A0
:106DD000E0FAA3E0F912272CFCE4FDECD394007454
:106DE0008094804040EDFB3395E0FAC3EB9407EAD2
:106DF00064809480502FEC30E024ED3395E0FAC3AA
:106E000074189BFFE49AFE90030FE0FBA3E0FAA343
:106E1000E02FF9EA3EFA12272C4480122772ECC3C5
:106E200013FC0D80B67D16ED3395E0C3648094802D
:106E3000403990030CE0FBA3E0FAA3E0F9EDFF3347
:106E400095E08F82F58312842BEDFF3395E0FEEF02
:106E50002402FFE43EFE90030FE0FBA3E0FAA3E070
:106E6000F98F828E8312842B1D80BCE4FF12842F45
:106E700090030FE0FBA3E0FAA3E0F9900001128475
:036E80002BD2848E
:016E830022EC
:10845100D284E4FF1285577F241285577F18128535
:10846100577F011285577FAF1285577F08128557B5
:058471007F03028557A6
:107EAC0090FF007408F0D280A37488F0A3F0D28401
:107EBC00A3F0D28790FF08F0D290D291A37482F0F5
:107ECC00A3F0A37488F090FF107408F0A3F0A374CF
:107EDC0080F0A37488F090FF18F0A37482F0A37460
:107EEC0028F0A37488F0C2B690FF20F0A3F0D2C2A1
:0B7EFC0090FF28F0A3F0A3F0D2CD22ED
:1085AC0090FEB0E04404F090FFB17401F043A804D5
:0385BC00D2AF2219
:1085270090FE80E04401F05389FC758CFC758AE06D
:08853700D2A9438810D2AF2243
:0C85EF0090FEA0E4F075BD577428F02247
:04000E0043BD1022BC
:1084980090FEA0E4F0438F02E58F5420642070F82A
:1084A800538EEFE58E544070FA90FE917402F022DC
:10853F0090FE80E04410F05389CF758DF3758B80DA
:08854F00D2AB438840D2AF22F9
:107B8A0090030112299B90FFA0741CF0A304F090AB
:107B9A000301E0F8A3E0F9A3E0FAA3E0FB7F407E4B
:107BAA00427D0F7C001228AEC374FF9FFF74FF9EB4
:107BBA00FEE49DFDE49CFC78081229758F9D9003D4
:107BCA0001E0F8A3E0F9A3E0FAA3E0FB7F407E42DC
:107BDA007D0F7C001228AEC374FF9FF59C759E1220
:087BEA00759810D2ACD2AF2255
:1078EF0090030112299B90FFA8741BF0A314F09032
:1078FF000301E0F8A3E0F9A3E0FAA3E0FB7F407EE9
:10790F00427D0F7C001228AEC374FF9FFF74FF9E51
:10791F00FEE49DFDE49CFC780812297590FE8DEF26
:10792F00F0900301E0F8A3E0F9A3E0FAA3E0FB7FF6
:10793F00407E427D0F7C001228AEC374FF9F90FEE5
:10794F008EF090FE897412F090FE887410F0D2AE13
:03795F00D2AF2282
:107043009004487496F0D2101265BE9004A2E0FF3B
:10705300C3940574809480400AD3EF941974809488
:107063008040069004A2740DF090049FE0FFC39447
:107073008274809480400AD3EF94AA7480948040F1
:107083000690049F7496F0900490E0FFC3940574F7
:10709300809480400AD3EF94FA74809480400690E1
:1070A30004907482F0900491E0FFC3940F74809471
:1070B30080400AD3EF94B474809480400690049186
:1070C300745AF0900491E0FF900447E0FED39F5080
:1070D3000AEEC3940F748094805006900447745A48
:1070E300F090049CE0FFC3940174809480400AD321
:1070F300EF940374809480400690049C7402F09093
:09710300048CE070037417F02203
:1080510012849890FE927410F0127EAC1285AC12CC
:10806100852712853F7F007EC27D017C00127B8ABD
:108071007F607E097D007C001278EF1285EFE4F5C8
:10808100F8128451D280D2C2D290D291D2CD127044
:0A80910043E4FD7F7F7E9002780338
:1080050012805112000E128476126C97123D711275
:108015006C97124D50200D051247C780031283B28D
:10802500126D90126C9712529D126C9712003E12AF
:1080350071CB126C9790053AE0C394647480948078
:0C80450050030080F0E490053AF080B792
:105519005204F80000000505000F0F000303020FF5
:055529000F0805050557
:0800030090050CEFF0D214226D
:1071CB00301442C21490050CE0FF75F003A424F8B0
:1071DB00F582E43404F583E090050AF0EF75F003D3
:1071EB00A424F9F582E43404F583E090050DF090C6
:1071FB00050CE075F003A424FAF582E43404F5835E
:10720B00E090050BF090050AE0D394007480948015
:10721B004004D215801CC21590050BE0D39400746A
:10722B00809480403D90050DE0D394007480948051
:10723B004004E014F02290050BE014F0A3E0FF757E
:10724B00F003A424F8F582E43404F583E090050AF6
:10725B00F0EF75F003A424F9F582E43404F583E030
:0C726B008005E490050AF090050DF0226B
:107F0700900528E06401704D90053BE070479003B1
:107F1700D9E0C3949674809480503A900524E00485
:107F2700F0E0C3943C74809480402AE4F0900526E6
:107F3700E004F07006900525E004F0C3900526E004
:107F47009438900525E09404400B7F01120003123A
:067F570079D212770B2223
:105F510090001EE0FEA3E0FFD390052CE09F90058A
:105F61002BE09E500302610790001CE030E2030227
:105F7100609B90003FE06403600302609BFFFEFDB5
:105F8100FC900017E0F8A3E0F9A3E0FAA3E0FBD34B
:105F9100122964500302609B90001EE0FEA3E0FF03
:105FA10090052BE0FCA3E0FD9FFFEC9E900020F00C
:105FB100A3EFF090001EECF0A3EDF0900022A3A35C
:105FC100E0FEA3E0FBAA0690052DA3A3E0FEA3E05B
:105FD100C39BFFEE9A900026F0A3EFF090052DE011
:105FE100FCA3E0FDA3A3E0FF90002212299B9000F7
:105FF10028E0FEA3E0FF900498E0FCA3E0FDC39F2E
:10600100FFEC9E90002AF0A3EFF0900028ECF0A3A3
:10601100EDF0900525E0FEA3E0FF7C007D3C12271A
:10602100A6900524E02FFFEC3E900301F0FCA3EFC6
:10603100F0FD90002CE0FEA3E0FFC3ED9FFFEC9E7E
:10604100A3F0A3EFF090002CECF0A3EDF090048E00
:10605100E075F00384900030F0900446E0FF90007A
:1060610031E4F0A3EFF0E07F00FE900031F0A3EF08
:10607100F0900497E0FDEDFF900031EEF0A3EFF01A
:106081009004A4E09000327006E0547FF08004E0B8
:106091004480F090001CE04404F090052BE0FEA346
:1060A100E0FF7C007D641227B8AA06AB07C390010C
:1060B10073E09B900172E09A504C900525E0FEA39D
:1060C100E0FF7C007D3C1227A6900524E02FFFEC29
:1060D1003E900301F0FCA3EFF0FD900174E0FEA3FC
:1060E100E0FFC3ED9FFFEC9E900170F0A3EFF090F5
:1060F1000174ECF0A3EDF0900172EAF0A3EBF090E3
:06610100001CE04402F066
:016107002275
:106A7D00900528E0FF7E00701490052BE07002A3B6
:106A8D00E06003026B8A900522F0A3F022EF64010F
:106A9D004E6003026B8A9004D7E06003026B8A900C
:106AAD0003D9E0C39496748094804003026B8A905E
:106ABD000493E0FEA3E0FF900496E02FFF90049571
:106ACD00E03E900498F0A3EFF090053BE0600302E8
:106ADD006B8A90048EE0FF900523E02FF090052245
:106AED00E03400F0D3A3E09438900522E094044004
:106AFD003690052CE004F0700690052BE004F09024
:106B0D000523E024C8F0900522E034FBF0D3900576
:106B1D002CE0940F90052BE09427400B7F01120081
:106B2D00031279D212770B900522E0FEA3E0FF7CD1
:106B3D00017D03122A4BE47B947A11F9F81228AEE9
:106B4D00C004C005C006C00790052BE0FEA3E0FF02
:106B5D007C067D12122A4BE47B19FAF9F81228AE45
:106B6D00D003D002D001D000EF2BFFEE3AFEED396D
:0D6B7D00FDEC38FC90052D12299B125F5194
:016B8A0022E8
:107BF200900449E0FD7C00D3946474809480401921
:107C0200ED249CFFEC34FFFE7D501227A61227B80C
:107C120074642FFFE43EFE8007900449E0FF7E007B
:107C22007C017D101227A61C7D0A1227B890049AA7
:107C3200EEF0A3EFF09004A0E0FEA3E0FF7C007D55
:107C42000A1227A6EF2488FFE43EFE0C7D101227BD
:067C5200B890048EEFF073
:017C58002209
:10770B00E4900525F0A3F0900524F090052BF0A351
:10771B00F0900529F0A3F090052D1229A700000089
:10772B0000E4900498F0A3F0900495F0A3F090047B
:10773B008BF0900170F0A3F0900174F0A3F0900126
:10774B0072F0A3F0900020F0A3F090001EF0A3F0D5
:10775B00900026F0A3F09000221229A70000000051
:10776B00E490002AF0A3F0900028F0A3F090002EF4
:0E777B00F0A3F090002CF0A3F0900030F0226C
:1079D200900529E0FEA3E0FFD390052CE09F9005DF
:1079E2002BE09E405990043FE0F8A3E0F9A3E0FAAF
:1079F200A3E0FB90052CE09FFF90052BE09EFEE4A8
:107A0200FCFDEB2FFFEA3EFEED39FDEC38FC900465
:107A12003F12299B90052BE0FFA3E0900529CFF0B0
:107A2200A3EFF090043FE0FCA3E0FDA3E0FEA3E09F
:0F7A3200FF90030E12299B7F017E901281C022CC
:1083B2009004A4E0FF600964016005EF64037006A5
:1083C200127F07126A7D127BF2301B05125D9480C8
:0A83D20003125753122BA302325678
:1084F100C2AF75FDF075FC0F8EFA8FF975FDD2755F
:0B850100FC2D75FDE175FC1ED2AF22C1
:04780300AB07AA061F
:10780700E4FFEFC39480748094805015EF9090004C
:1078170093FE74812FF582E43402F583EEF00F8036
:10782700E17F007E901284F174812BF58274723AA5
:10783700F583EDF0C2AFEFC3948074809480502E2F
:10784700EF2400FBE43490FA74812FF582E43402CC
:10785700F583E0F5FB75FDF075FC0F8AFA8BF9757A
:10786700FDB475FC4B75FDE175FC1E0F80C8D2AFEA
:027877007F018F
:0178790022EC
:0881C00090030CEEF0A3EFF0B8
:1081C800E4900312F0900312E0C394047480948046
:1081D800502BE0FDFF90030DE02FFF90030CE034DF
:1081E80000FE7C007B01740E2DF9EC3403FA122793
:0D81F8002CFD127803900312E004F080C803
:018205002256
:0E809B0090030CEEF0A3EFF0A3ECF0A3EDF0D9
:1080A900E4A3F0900310E0C3940274809480502BF1
:1080B900E0FDFF90030DE02FFF90030CE03400FE7C
:1080C9007C007B01740E2DF9EC3403FA12272CFD88
:0B80D900127803900310E004F080C850
:0180E4002279
:1065BE00909002E4937E007810C333CE33CED8F998
:1065CE00FDAC06909001E4937E007818C333CE3371
:1065DE00CED8F9FFEE4CFCEF4DFD909003E4934CBA
:1065EE00FEEDFFA3E493FDEF4DFFEE3395E0FDFCD2
:1065FE0090043F12299B909006E49390049FF09094
:10660E009007E493900490F0909008E4939004A285
:10661E00F090900BE4939004A4F06403700204F0E5
:10662E0090900CE493900447F090900DE4939004B6
:10663E0091F090900EE49324FF920CA3E4939004B7
:10664E009CF0909010E49324FF920DA3E49324FF0A
:10665E00920FA3E49324FF9209A3E49390048CF089
:10666E00909014E493900492F0909015E493FEA30E
:10667E00E493FDEDFF90046EEEF0A3EFF090901713
:10668E00E493FEA3E493FDEDFF900033EEF0A3EF51
:10669E00F090901AE4937E007810C333CE33CED8A8
:1066AE00F9FDAC06909019E4937E007818C333CEB2
:1066BE0033CED8F9FFEE4CFCEF4DFD90901BE493DA
:1066CE004CFEEDFFA3E493FDEF4DFFEE3395E0FDA1
:1066DE00FC90003512299B90901DE493FEA3E49349
:1066EE00FDEDFF900039EEF0A3EFF090901FE493D4
:1066FE00FEA3E493FDEDFF90003BEEF0A3EFF0223E
:10787A009003017490F0A3E4F0900301E0FEA3E00A
:10788A00FFC39406EE94905015E4FD12780390031A
:10789A0002E004F070E3900301E004F080DB90035F
:1078AA00017490F0A3740BF0900301E0FEA3E0FFD3
:1078BA00D3947DEE94905015E4FD12780390030260
:1078CA00E004F070E3900301E004F080DB7D017FC7
:1078DA000B7E901278037F107E901278031D7F7FB3
:0578EA007E900278030E
:103D71001285D190030112299B9004F0E0FF640A9F
:103D81006008EF640B6003023E399004F0E0FF7EAF
:103D9100007C007D141227A6C374E69FFFE49EFEFB
:103DA1003395E0FDFCE47B3CFAF9F81228239004FA
:103DB100EBE0F8A3E0F9A3E0FAA3E02FFFEA3EFE6F
:103DC100E93DFDE83CFCC004C005C006C007E47B3A
:103DD100887A13F9F8900301E0FCA3E0FDA3E0FE6B
:103DE100A3E0FF1228AE900017E0F8A3E0F9A3E0EA
:103DF100FAA3E02FFBEA3EFAE93DF9E83CF8D007E7
:103E0100D006D005D004C312296450030240B4E4A3
:103E1100FD7F237E9012780390030E1229A70000E4
:103E210000007F247E901281C075FDF075FC0F7536
:103E3100FD7875FC870240B49004EBE0FCA3E0FD43
:103E4100A3E0FEA3E024E0FFEE3493FEED3404FD95
:103E5100E43CFC900301E0F8A3E0F9A3E0FAA3E05D
:103E6100FBC3122964500302404C900301E0FCA300
:103E7100E0FDA3E0FEA3E0FF9004EB12299B900478
:103E8100F1E0FEA3E0FBAA06E4F9F89004D9E0FC16
:103E9100A3E0FDA3E0FEA3E0FF1228AE9004EFE053
:103EA10024F3F582E43404F583EFF09004F1E0FEAD
:103EB100A3E0FBAA06E4F9F89004E7E0FCA3E0FD27
:103EC100A3E0FEA3E0FF1228AE9004EFE0FB25E0A3
:103ED10024DDF582E43404F583EEF0A3EFF09004E1
:103EE100D91229A7000000009004E71229A70000B9
:103EF1000000EB2401FFE433FE7C007D051227B8AE
:103F01009004EFEDF0E4FFEFC394057480948050CA
:103F11003974F32FF582E43404F583E0FD9004DA7B
:103F2100E02DF09004D9E03400F0EF25E024DDF538
:103F310082E43404F583E0FCA3E0FD9004E8E02D85
:103F4100F09004E7E03CF00F80BD9004D9E0FEA3BF
:103F5100E0FF7C007D051227B89004D9EEF0A3EFB5
:103F6100F09004E7E0FEA3E0FF7C007D051227B896
:103F71009004E7EEF0A3EFF0D39004E8E09488908A
:103F810004E7E09413500E9004DAE0941E9004D9F3
:103F9100E094004015C3900526E09478900525E053
:103FA100940040069004F0740AF09004F0E0640A72
:103FB10060030240399004EBE0FCA3E0FDA3E0FEC6
:103FC100A3E0FFE47B887A13F9F81228AE9004EBA2
:103FD10012299BE4FFFEFDFC900017E0F8A3E0F935
:103FE100A3E0FAA3E0FBD3122964404C9004EBE078
:103FF100FCA3E0FDA3E0FEA3E0FF900017E0F8EFD3
:104001002BFFEE3AFEED39FDEC38FC9004EB122962
:104011009B9004F0E0FD7F237E901278039004EBE7
:10402100E0FCA3E0FDA3E0FEA3E0FF90030E122954
:104031009B7F247E901281C0E49004D9F0A3F0907C
:1040410004E7F0A3F09004F1F0A3F09004D9E0F8B4
:10405100A3E0F9A3E0FAA3E0FB900497E0FFE4FCFE
:10406100FDFEEB2FFFEE3AFEED39FDEC38FC90043E
:10407100D912299B9004E7E0F8A3E0F9A3E0FAA3A1
:10408100E0FB900497E0FF900446E08FF0A4FFE48A
:10409100FCFDEB2FFFEA35F0FEED39FDEC38FC902D
:1040A10004E712299B9004F2E004F070069004F1F9
:1040B100E004F0300A09900489E4F0A37480F02050
:1040C1001C17900489E07002A3E0701A9003ACE021
:1040D100D3940074809480500D9004F0E0C3940A4E
:1040E100748094804078900489E0FEA3E0FF30E77B
:1040F100089004F07401F08049EF30E0089004F07A
:104101007402F0803DEF30E3089004F07403F08016
:1041110031EF30E2028004EF30E1089004F07405E1
:10412100F0801FEF30E4089004F07406F0801390E3
:1041310003ACE0D394007480948040069004F07442
:1041410008F09004F0E060239004D8E0701D900026
:104151001CE04410F07F04120003C280800D900423
:10416100D8E06007E49004F0F0D2809004F0E09091
:0341710004D8F07F
:014174002228
:108382004525303264004C00520057414954005494
:10839200455354004E4554004F4B00455252005233
:1083A200554E0053544F500046414E00454E440036
:107B1F0090003FE0B407005061907B2FF828287346
:107B2F00027B5A027B5D027B44027B44027B65022F
:107B3F007B5D027B7E9005477406F0FD7F7D7E9016
:107B4F0012780390001CE04401F022C2CD227DC8C0
:107B5F007C007F64801F90030B7403F0A37420F0EC
:107B6F007B647A007DC87C007F647E000272777D23
:0B7B7F00207C037FC87E00127F5D2287
:10683E00128314900538E0FEA3E0FF4E7003026948
:10684E0060301703026960D217EF64014E600BEFE0
:10685E007003EE6410600302692D7F01120003D2F3
:10686E0017E4FF1285BF900547E0FB24FC60182457
:10687E00FC603524FE603F24077064D280D2C2D201
:10688E0090D291D2CD8058E49004D7F090048D042C
:10689E00F090044474B4F090001CE04408F0E490CE
:1068AE00003FF090053C803490048EE060319004FF
:1068BE008D7402F0802990043F1229A70000000079
:1068CE0090049174B4F090049C7402F0D210900471
:1068DE00487496F0E49003F3F09003F4F0A3F020E4
:1068EE001B70EBFF6405606AEF64066005EF6407DA
:1068FE00701B900538E0B4101AA3E0B40015900593
:10690E0047E0FFC374089FFFE02FF0800690054715
:10691E00E004F0900547E0FD7F7D7E9002780390C5
:10692E000547E0FF7E00C39405748094804023D316
:10693E00EF9407748094805019900538E0B40112DA
:10694E00A3E0B4030D7F01120003D21B9003F37476
:03695E0006F0221E
:1047C7009004F0E06051E4FF1285BF7BFF7A8379A4
:1047D700829004F0E0FF90030EE4F0A3EFF0E4FF13
:1047E700127CC09004F0E064086003024A909003D2
:1047F700ACE0FF7E00C39403748094804003024AB8
:1048070090EF64017BFF70067A83798880047A834E
:10481700798A7D01024967301B05125D94802590D6
:104827000547E0640B70051257538018900547E061
:10483700700FD390053DE0940390053CE094004051
:104847000312683E900547E0B40C004003024A900B
:1048570090485EF828287302488202493F02494E71
:1048670002496A02497A0249C60249C60249C60292
:104877004A4D024A64024A800249BE90053CE070F4
:1048870002A3E0706C90053BE064017064C2109075
:104897000448F0FF1285BFD280D2C2D290D291D203
:1048A700CDC21D90907DE493FF900546F07E00C336
:1048B700940574809480401FD3EF9407748094808C
:1048C7005015EF64056003024A9090001CE044080D
:1048D700F0E490003FF022900546E0C3940A74800C
:1048E7009480400612787A0270439005477401F06D
:1048F70022C390053DE0940390053CE094005025C9
:10490700E4FF1285BF7BFF7A83798CE4FD1261088F
:1049170090053CE0FEA3E0FFC374039FFFE49EFE07
:104927007D0102850C900546E0A3F090048D74018B
:10493700F090044474B4F022E4FF1285BF7BFF7A41
:10494700837991E4FD8019E4FF1285BF900443E069
:10495700FF7E007D0112850C7B017A007912E4FD50
:104967000261087FFF1285BFC280C2C2C290C29196
:10497700C2CD22E4FF1285BFE47B64FAF9F8900305
:104987006FE0FCA3E0FDA3E0FEA3E0FF1228AEE486
:10499700900309F01283DCE47B64FAF9F89003A42E
:1049A700E0FCA3E0FDA3E0FEA3E0FF1228AE900326
:1049B700097401F00283DC127BF2122BA3800F1221
:1049C7007BF29004A47401F0127E4F301B03023275
:1049D70056E4FF1285BF900547E06405702C7BFF06
:1049E7007A837996FD126108127B1FD390053DE00B
:1049F700943C90053CE0940040399005477407F0DB
:104A0700FD7F7D7E901278038029900547E064063C
:104A170070087BFF7A83799A8015900547E06407D1
:104A27007BFF70067A83799D80057A8379A1E4FDFF
:104A3700126108900444E0FF7E007C007D0312278A
:104A4700B87D010282907BFF7A8379A5E4FD12612C
:104A570008127BF29004D77401F0027E4F7BFF7A35
:104A67008379AAE4FD1261087BFF7A8379917D013E
:104A7700126108201D13D21D227BFF7A8379AEE4D1
:094A8700FD126108301D02C21D80
:014A90002203
:107FB2009004F0E0FD640A6005ED640B70037F0B32
:107FC20022300D1FC390052CE0940A90052BE094FB
:107FD20000400D90048EE0FE941E74809480501A2E
:107FE200E4FF22301D037F0B2290048EE0FEC39437
:107FF2001E748094805003E4FF22EE75F01E8424E8
:0280020005FF78
:018004002259
:1000260025642E25640025642E253032640025645F
:0500360000256C6400D0
:10552E0046027B01018F0101A6420279171960B470
:10553E0001BF3E4141413E00217F010021434549CB
:10554E003122414949360C14247F04725151514E77
:10555E003E4949492640404F506036494949363206
:10556E004949493E1F2848281F7F494949363E412F
:10557E004141227F4141413E3E494949413F4848D0
:10558E0048403E4149492E7F0808087F00417F412F
:10559E0000060101017E7F081422417E01010101F6
:1055AE007F2010207F7F2010087F3E4141413E3FEB
:1055BE00484848303C4246433C3F484C4A313249C9
:1055CE0049492640407F40407E0101017E7C020118
:1055DE00027C7F020C027F631408146360100F10AC
:0655EE00604345495161D4
:1085BF009000307B017A01798FAD07AE83AF8202D5
:0285CF002B611E
:0E610800900339EBF0A3EAF0A3E9F0A3EDF069
:10611600E4900340F090033CE075F003A4247BF583
:1061260082E43402F583E0F9A3E0FAA3E0900341A8
:10613600C9F0A3EAF0A3E9F0900339E0F9A3E0FA85
:10614600A3E090033DC9F0A3EAF0A3E9F090033D74
:10615600E0FBA3E0FAA3E0F912272C602C642E6082
:106166000C12272CFF643A6004EFB4200990034018
:10617600E02402F08007900340E02406F090033EFE
:10618600E475F00112280D80C4900340E014F090ED
:10619600033CE02479F582E43402F583E0FF9003C2
:1061A60040E0FEC3EF9EC313F0900339E0F9A3E08D
:1061B600FAA3E090033DC9F0A3EAF0A3E9F0900347
:1061C6003DE0FBA3E0FAA3E0F912272CFF700302DF
:1061D60062B4B42E18900341E0FBA3E0FAA3E0F901
:1061E600900340E0F58275830074018035EFB43A80
:1061F60018900341E0FBA3E0FAA3E0F9900340E026
:10620600F58275830074148019EFB4202190034140
:10621600E0FBA3E0FAA3E0F9900340E0F582758382
:1062260000E4122784900340E02402F08073EFC359
:106236009441400CEFD3945A5006EF24C9FF8010C6
:10624600EFC39430405BEFD39439505574D02FFF91
:10625600EF75F005A424BFF9740135F0FA7B01C08F
:1062660003C002C00190033CE075F003A4247BF553
:1062760082E43402F583E0FBA3E0FAA3E0F990039D
:1062860040E0FF7E00E92FF9EE3AA801FCAD03D00D
:1062960001D002D0037F05122706900340E02406B2
:0E62A600F090033EE475F00112280D0261C471
:0162B40022C7
:10829000900305EEF0A3EFF0AF05C007900305E0F3
:1082A000FAA3E0FB7C007D0AFFAE021227B8900320
:1082B0000EEEF0A3EFF07C007D0AAF03AE021227B2
:1082C000B8A3ECF0A3EDF07BFF7A007926D007028B
:0282D0007CC070
:1082D200900305EEF0A3EFF0AF05C007900305E0B1
:1082E200FAA3E0FB7C007D64FFAE021227B8900384
:1082F2000EEEF0A3EFF07C007D64AF03AE02122716
:10830200B8A3ECF0A3EDF07BFF7A00792CD0070242
:028312007CC02D
:10850C008F828E83AF057BFF7A007934AC83AD828A
:0B851C0090030EECF0A3EDF0027CC019
:1083DC0090030512299B7BFF7A007937900305E007
:1083EC00FCA3E0FDA3E0FEA3E0FF90030E12299B8B
:0883FC00900309E0FF027CC0C0
:0E7CC00090030AEFF0A3EBF0A3EAF0A3E9F0C3
:107CCE009003367401F0A37403F0A3740EF09003C6
:107CDE000BE0F9A3E0FAA3E0900339C9F0A3EAF0B0
:107CEE00A3E9F0900336E0F9A3E0FAA3E090033C99
:107CFE00C9F0A3EAF0A3E9F07B017A02797312804E
:107D0E00E5900336E4F0A3F0A3F07B017A027973D9
:087D1E0090030AE0FD02610878
:10834F0074792DF582E43402F583E0FF7E00C003DB
:10835F00C002ED75F003A4247BF582E43402F583AB
:10836F00E0FBA3E0FAA3E0F8AC02AD03D002D00328
:03837F00022706CC
:0E7F5D00900305EEF0A3EFF0A3ECF0A3EDF01F
:107F6B001285D1E47B05FAF9F81228AEC006C007DA
:107F7B00900307E0FEA3E0FF900306E02FFF9003C2
:107F8B0005E03EAB07FAE4F9F8D007D0061228AEAD
:107F9B00AE02AF03D3900306E09F900305E09E4033
:067FAB0003C2CD22D2CD7D
:017FB10022AD
:10727700900305EEF0A3EFF0A3ECF0A3EDF0A3EA83
:04728700F0A3EBF095
:10728B001285D1E47B05FAF9F81228AEC004C005CB
:10729B00C006C00790030BE0FEA3E0FF900306E0DF
:1072AB002FFD900305E03EFC90030AE02DFD9003BB
:1072BB0009E03CCD2FFFED3EAB07FAE4F9F8D00720
:1072CB00D006D005D0041228AEAE02AF03D3900384
:1072DB0006E09F900305E09E502E900307E0FCA371
:1072EB00E0FD900306E02DFD900305E03CFCC3EFB1
:1072FB009DEE9C401690030AE02DFD900309E03CA7
:0D730B00FCC3EF9DEE9C5003C2CD22D2CDFD
:017318002252
:106C9700900538E07002A3E06006201703026D8FAD
:106CA700900534E0FFA3E0A3CFF0A3EFF0E4900555
:106CB70034F0A3F090FF18E0540FF07F64EFD39403
:106CC700007480948040031F80F320B1099005343D
:106CD7007410F0A3E4F090FF18E04480F0900534BE
:106CE700E0FEA3E0FFD39400EE94004061A3E06EC2
:106CF7007003A3E06F7057900532E004F0700690C0
:106D07000531E004F0E4900533F0900531E0FEA38F
:106D1700E0FFC39406EE9400406E900534E0FCA3B8
:106D2700E0FD7003EC64106009900538ECF0A3ED0A
:106D3700F022D3EF94C2EE940140109005387411FD
:106D4700F0A3E4F0900531F0A38018D21622900545
:106D570034E07002A3E0703030160C9005387410E0
:106D6700F0A3E4F0C21622E4900531F0A3F0A3E00B
:106D770004F0E0D3941374809480400C7464F0C2E0
:086D870017E4900538F0A3F0B9
:016D8F0022E1
:10831400900538E07002A3E0701B900534E0700211
:10832400A3E07011127AB0900538EEF0A3EFF04E8E
:108334006018C21722127AB0BE010FBF030CC21715
:0B8344009005387411F0A37401F022C2
:104175006F66666C696E65006C6F63616C00636C7D
:104185006F7564007570646174696E670075617040
:1041950000756E70726F76002225732220002564EB
:1041A5002000256C64200025642E256420006765A9
:1041B500745F646F776E00726573756C7420257318
:1041C50000226F6B220070726F7073200074696D2E
:1041D500652025642000737461746520222573228F
:1041E500200072756E0073746F700073706565647E
:1041F5002000706F776572202225732220006F667C
:1042050066006F6E006D6F6465202564207479709B
:104215006520222573222000666978656400617532
:10422500746F006469737420256C642063616C206D
:10423500256C6420007374657020256420007374F8
:104245006F7265206D70202564202564202564002B
:1042550073746F726520706F696E7420225F6F765C
:104265006572726964655F74696D652220256C6489
:1042750020256420256420256420256420256420CC
:1042850025642025642025642025640073746F72DD
:104295006520706F696E7420225F6F766572726932
:1042A50064655F74696D652220256C642025642032
:1042B500256420256C642025642025642025642040
:1042C5002564202564202564002573202573006D51
:1042D50063755F76657273696F6E2025730072650D
:1042E50073746F726500636F6D6D616E64006572E6
:1042F500726F72006572726F722022756E6B6E6FCF
:10430500776E20257322202564006E657400666132
:1043150063746F7279006576656E74206572726F6D
:104325007220256400626C655F636F6E6669672045
:1043350064756D7000626C655F636F6E666967209A
:10434500736574203333312025730074696D6520DE
:10435500706F73697800646F776E006E6F6E6500BD
:104365006765745F70726F70006D6F646500746966
:104375006D650073700073706565640064697374BE
:104385000063616C007374657000616C6C00226D74
:104395006F64653A2564222C2274696D653A25643B
:1043A500222C2273703A25642E2564222C226469FE
:1043B50073743A256C64222C2263616C3A256C6413
:1043C500222C22737465703A256422006275747418
:1043D5006F6E5F69640073746172745F7370656595
:1043E5006400676F616C006D61780073656E736959
:1043F500746976697479006572726F725F696400B9
:104405006C6F6700227B25642C25642C256C642C3D
:10441500256C642C256C642C256C642C25642C255A
:10442500642C25642C256C647D220D0064697370F1
:1044350000696E697469616C006C6F636B007573FC
:104445006572737461746500747970650073746165
:10445500746500706F776572002D31007365745F48
:104465000063616C6900256420256400696E7375BD
:104475007265007570007475746F7269616C004DBA
:1044850049494F5F6D63755F76657273696F6E5FDE
:10449500726571004D49494F5F6D6F64656C5F7260
:1044A5006571004D49494F5F6E65745F6368616E64
:1044B5006765007570646174655F66770055504483
:1044C500410054494E47005B2270726F64756374F6
:0A44D500206964223A3333312C00D1
:1055F4006064010C000000000000000000000000D6
:105604000000000000000000000000000000000096
:105614000000000000000000000000000000000086
:105624000000000000000000000000000000000076
:105634000000000000000000000000000000000066
:105644000000000000000000000000000000000056
:1056540000000000000000004601766D6F64656C78
:105664000053017C6B736D622E77616C6B696E679E
:105674007061642E763100450012303034330043BB
:05568400000E6F6B0039
:10670E0090030CEBF0A3EAF0A3E9F090031274FFF0
:10671E00F0A37441F0A37475F0A3E4F0A37407F032
:10672E0090030CE0FBA3E0FAA3E0F9127684EF33BA
:10673E0095E04F700690003F04F02290031274FF14
:10674E00F0A37441F0A3747DF0A3E4F0A37405F0FC
:10675E0090030CE0FBA3E0FAA3E0F9127684EF338A
:10676E0095E04F700790003F7402F0229003127470
:10677E00FFF0A37441F0A37483F0A3E4F0A37405B7
:10678E00F090030CE0FBA3E0FAA3E0F9127684EF9D
:10679E003395E04F700790003F7403F02290031280
:1067AE0074FFF0A37441F0A37489F0A3E4F0A37412
:1067BE0008F090030CE0FBA3E0FAA3E0F912768454
:1067CE00EF3395E04F700790003F7404F022900372
:1067DE001274FFF0A37441F0A37492F0A3E4F0A33B
:1067EE007403F090030CE0FBA3E0FAA3E0F9127639
:1067FE0084EF3395E04F700790003F7405F02290C0
:10680E00031274FFF0A37441F0A37496F0A3E4F0A6
:10681E00A37406F090030CE0FBA3E0FAA3E0F912D8
:10682E007684EF3395E04F700690003F7406F022A9
:106E840090030412280D900303E0FBA3E0FAA3E0AF
:016E9400F904
:0B6E950090030CEBF0A3EAF0A3E9F07F
:106EA00012272CB4220A90030DE475F00112280D6C
:106EB00090030CE0FBA3E0FAA3E0F9126F689003E3
:106EC0000FEEF0A3EFF07C007D0A1227A690030FCF
:106ED000EEF0A3EFF090030CE0FBA3E0FAA3E0F9DF
:106EE0007D2E1284D590030CEBF0A3EAF0A3E9F019
:106EF0004A605B90030CE0FBA3E0FAA3E0F990008A
:106F000001122745FF1285E0504490030CE0FBA3DB
:106F1000E0FAA3E0F990000112274524D0FFE43401
:106F2000FFFE900310E02FF090030FE03EF0900082
:106F300002122745FFC394354014EFD39439500E05
:106F4000900310E004F0700690030FE004F0C3908B
:106F5000030FE0648094805004E4F0A3F090030FEA
:076F6000A3E075F003A4FF9C
:016F67002207
:10817800E4900033F0A3F0A31229A700000000E464
:10818800900039F0A3F0A3F0A3F0FDFC7F177E90D8
:1081980012809B90030E1229A7000000007F197E11
:1081A800901281C0E4FDFC7F1D7E9012809BE4FD4F
:0881B800FC7F1F7E9002809BFA
:107D8C0090030FEBF0A3EAF0A3E9F0900306E0FBFD
:067D9C00A3E0FAA3E0F9E8
:107DA20090030CEBF0A3EAF0A3E9F090034274FF16
:107DB200F0A37441F0A3749DF090030FE0F9A3E0E7
:107DC200FAA3E0900345C9F0A3EAF0A3E9F0900317
:107DD2000CE0FBA3E0FAA3E0F912395390030CE0A4
:0C7DE200FBA3E0FAA3E02FF9EA3EFA222E
:0A812F007B017A01790CE0FD7C0071
:1081390090030CEBF0A3EAF0A3E9F090034274FF7B
:10814900F0A37441F0A374A3F0AF05A3ECF0A3EF7F
:10815900F090030CE0FBA3E0FAA3E0F91239539085
:0F816900030CE0FBA3E0FAA3E02FF9EA3EFA22B1
:0B820600900306E0FBA3E0FAA3E0F900
:1082110090030CEBF0A3EAF0A3E9F090034274FFA2
:10822100F0A37441F0A374A7F0A312299B90030C4F
:10823100E0FBA3E0FAA3E0F912395390030CE0FB51
:0B824100A3E0FAA3E02FF9EA3EFA22C6
:057A4100900491E0FD3E
:107A460090030CEBF0A3EAF0A3E9F0A3EDF09003AA
:107A56004274FFF0A37441F0A374ACF0EDFB7C001C
:107A66007D1EFF7E001227B8A3EEF0A3EFF07C0088
:107A76007D1EAF037E001227B87E007F03CFCDCFD9
:107A8600CECCCE1227B8A3EEF0A3EFF090030CE015
:107A9600FBA3E0FAA3E0F912395390030CE0FBA331
:0A7AA600E0FAA3E02FF9EA3EFA220D
:1075F9001285D1E47B887A13F9F81228AE90001726
:10760900E0F8A3E0F9A3E0FAA3E02FFFEA3EFEE9E0
:107619003DFDE83CFC90030C12299B900000E0FC26
:10762900A3E0FDA3E0FEA3E0FF90030CE0F8A3E0D4
:10763900F9A3E0FAA3E0FBD3122964401090030CEC
:10764900E0FCA3E0FDA3E0FEA3E0FF8019900000A9
:10765900E0FCA3E0FDA3E0FEA3E02401FFE43EFE7D
:10766900E43DFDE43CFC90000012299B900000E001
:0A767900FCA3E0FDA3E0FEA3E0FF88
:0176830022E4
:10003E0090001DE06401600302077790001CE0FF52
:10004E0030E00990003E7404F002015CEF30E309E9
:10005E0090003E740DF002015C90003EE0600302E1
:10006E00015790001CE030E40C54EFF090003E7409
:10007E000EF002015C90001CE030E50C4404F090A0
:10008E00003E740CF002015C90001CE0FF30E209AF
:10009E0090003E740BF002015CEF30E10F54FD90C6
:1000AE00001CF090003E740AF002015C90003FE0EC
:1000BE00FF7E00700990003E7409F002015C90050D
:1000CE0024E0FD900004E0B5051890048EE0FD904C
:1000DE000006E0B5050C9004A4E0FD900005E06D6F
:1000EE00600EEF64034E700890003E7405F0805E63
:1000FE0090003FE064037034FFFEFDFC900017E0BB
:10010E00F8A3E0F9A3E0FAA3E0FBD31229644003BD
:10011E00D38001C3500790001CE030E60F90001C06
:10012E00E054BFF090003E7411F0802290010BE07D
:10013E0004F0E0D394187480948050030220ADE450
:10014E00F090003E7406F08005E490010BF09000F4
:10015E003DE060030220AD9000A7F090003EE01459
:10016E00B41100400302073190018475F003A4C559
:10017E008325F0C583730205EE0205FD02062502F6
:10018E0006410201F50201B70201C602065002063F
:10019E00B70204920204CF02056D0206C50206D311
:1001AE000206EF0206FD02072278A77C007D017B86
:1001BE00FF7A4179B302072E90010CE09003427052
:1001CE001974FFF0A37441F0A374BCF0A374FFF094
:1001DE00A37441F0A374C60207167401F0A3740150
:1001EE00F0A3740C02071690034274FFF0A374413F
:1001FE00F0A374CBF07B017A0079A712395374A760
:10020E002FF974003EFA9003037401F0A3EAF0A3F1
:10021E00E9F0900004E0FF900524E0FE6F60489046
:10022E000004EEF090034274FFF0A37441F0A37447
:10023E00D2F0900525E0FEA3E0FF7C007D3C122766
:10024E00A6900524E02FFFEC3E900345F0A3EFF0BF
:10025E00900303E0FBA3E0FAA3E0F91239539003F5
:10026E0004EE8FF012280D900006E0FF90048EE051
:10027E00FE6F700302031FEE6003EF70499003429E
:10028E0074FFF0A37441F0A374DBF090048EE0D3FE
:10029E009400748094807BFF40067A4179E7800455
:1002AE007A4179EB900345EBF0A3EAF0A3E9F090E5
:1002BE000303E0FBA3E0FAA3E0F912395390030421
:1002CE00EE8FF012280D90048EE0900006F0900351
:1002DE004274FFF0A37441F0A374F0F0900303E0B6
:1002EE00FBA3E0FAA3E0F9123953900304EE8FF06A
:1002FE0012280D900303E0FBA3E0FAA3E0F99004AB
:10030E008EE0FD127A46900303EBF0A3EAF0A3E928
:10031E00F0900005E0FF9004A4E0FE6F700302036E
:10032E00CCEE64026005EF6402704490034274FFE9
:10033E00F0A37441F0A374F7F09004A4E064027B80
:10034E00FF70067A42790380047A4279079003455A
:10035E00EBF0A3EAF0A3E9F0900303E0FBA3E0FACD
:10036E00A3E0F9123953900304EE8FF012280D908A
:10037E0004A4E0FF900005F090034274FFF0A37414
:10038E0042F0A3740AF0A3E4F0A3EFF064017BFF44
:10039E0070067A42791D80047A427923900347EBE6
:1003AE00F0A3EAF0A3E9F0900303E0FBA3E0FAA3C5
:1003BE00E0F9123953900304EE8FF012280D9000DD
:1003CE0007E0FEA3E0FF90052BE06E7003A3E06F45
:1003DE00605D90052BE0FEA3E0FF900007EEF0A31A
:1003EE00EFF090034274FFF0A37442F0A37428F070
:1003FE007C007D0A122A4BA312299BE47F0AFEFD84
:10040E00FC90052DE0F8A3E0F9A3E0FAA3E0FB12BF
:10041E00282390034912299B900303E0FBA3E0FAE3
:10042E00A3E0F9123953900304EE8FF012280D90C9
:10043E000009E0FEA3E0FF900498E06E7003A3E0D5
:10044E006F7003020731900498E0FEA3E0FF900066
:10045E0009EEF0A3EFF090034274FFF0A37442F0A4
:10046E00A3743AF0A3EEF0A3EFF0900303E0FBA326
:10047E00E0FAA3E0F9123953900304EE8FF012283C
:10048E000D02073190034274FFF0A37442F0A3747F
:10049E0043F0900170E0FFA3E0900345CFF0A3EF8F
:1004AE00F0900172E0FFA3E0900347CFF0A3EFF0CE
:1004BE00900174E0FFA3E0900349CFF0A3EF020791
:1004CE00161275F990034512299B90034274FFF0A2
:1004DE00A37442F0A37455F090001EE0FFA3E090C9
:1004EE000349CFF0A3EFF0900020E0FFA3E09003CC
:1004FE004BCFF0A3EFF0900026E0FFA3E090034D6A
:10050E00CFF0A3EFF0900028E0FFA3E090034FCFD1
:10051E00F0A3EFF090002AE0FFA3E0900351CFF09C
:10052E00A3EFF090002CE0FFA3E0900353CFF0A3D5
:10053E00EFF090002EE0FFA3E0900355CFF0A3EF75
:10054E00F0900030E0FF900357E4F0A3EFF090003E
:10055E0031E0FFA3E0900359CFF0A3EF020716128C
:10056E0075F990034512299B90034274FFF0A37412
:10057E0042F0A37491F0900033E0FEA3E0FF9003ED
:10058E0049EEF0A3EFF0A3EEF0A3EFF0900035E00C
:10059E00FCA3E0FDA3E0FEA3E0FF90034D12299B18
:1005AE00900039E0FEA3E0FF900351EEF0A3EFF0D0
:1005BE00A3EEF0A3EFF090003BE0FEA3E0FF90036C
:1005CE0055EEF0A3EFF0A3EEF0A3EFF0E4A3F0A34B
:1005DE00F07B017A0079A712395312817802073124
:1005EE0078A77C007D017B017A01797602072E9037
:1005FE00034274FFF0A37442F0A374CEF0A374010F
:10060E00F0A37401F0A37476F0A37401F0A3740147
:10061E00F0A3747C02071690034274FFF0A3744299
:10062E00F0A374D4F0A37401F0A37400F0A37412B9
:10063E0002071678A77C007D017BFF7A4279E302E0
:10064E00072E90000BE0FEA3E0FFBEEC13BF771069
:10065E0090030374FFF0A37442F0A374EBF0800ECA
:10066E0090030374FFF0A37442F0A374F3F09003AD
:10067E004274FFF0A37442F0A374F9F0900303E008
:10068E00F9A3E0FAA3E0900345C9F0A3EAF0A3E9C9
:10069E00F0A3EEF0A3EFF07B017A0079A7123953A5
:1006AE00E490000BF0A3F0807A78A77C007D017BAC
:1006BE00FF7A43790F806978A77C007D017BFF7AF2
:1006CE00437913805B90034274FFF0A37443F0A34D
:1006DE00741BF09004F0E0FF900345E4F0A3EF806C
:1006EE002778A77C007D017BFF7A43792A803190A1
:1006FE00034274FFF0A37443F0A3743AF0A37401A1
:10070E00F0A37400F0A37412F07B017A0079A712A3
:10071E003953800F78A77C007D017BFF7A43795097
:10072E00122B4490001D7402F07B017A0079A712FF
:10073E00858390000DEFF0E0FF04F074A72FF58293
:10074E00E43400F583740DF090003EE090003DF02F
:10075E00E4A3F090001BF0E0FF04F074A72FF582E5
:10076E00E43400F583E0F5992290001DE064026008
:10077E000302209C20180302207290010BF0C21875
:10078E0090003DE014B4110040030220659007A9CB
:10079E0075F003A4C58325F0C58373021E01021EE6
:1007AE002D021E5D021E8D021DC90207DC021DC92F
:1007BE00022065021ED0021DC9021DC2021DF402D6
:1007CE001EDC021DC9021EEC021F4C021F7CE490AF
:1007DE00010CF090031274FFF0A37443F0A3745B4A
:1007EE00F0A3E4F0A37404F07B017A00794312764F
:1007FE0084EF3395E04F6003021D9C7B017A0079F4
:10080E004890030304F0A3EAF0A3E9F090031274F6
:10081E00FFF0A37443F0A37460F0A3E4F0A3740498
:10082E00F0127684EF3395E04F700302206590034B
:10083E001274FFF0A37443F0A37465F0A3E4F0A365
:10084E007408F0900303E0FBA3E0FAA3E0F912763C
:10085E0084EF3395E04F60030211A790030475F007
:10086E000A12280D9003067401F0A37401F0A3740C
:10087E000CF0900303E0FBA3E0FAA3E0F9128583EA
:10088E00900303E0FBA3E0FAA3E02FF9EA3EFA900F
:10089E000309021174900309E0FBA3E0FAA3E0F947
:1008AE00C003C002C001900303A3E0FAA3E0F9C3A2
:1008BE00D082D083D0E0E99582EA95834003021D71
:1008CE008490031274FFF0A37443F0A3746EF0A32C
:1008DE00E4F0A37404F0900303E0FBA3A3E012760C
:1008EE0084EF3395E04F702090030475F0071228C3
:1008FE000D900306E0FBA3E0FAA3E0F99004A41226
:10090E00813590030602117490031274FFF0A374E4
:10091E0043F0A37473F0A3E4F0A37404F090030304
:10092E00E0FBA3E0FAA3E0F9127684EF3395E04FF3
:10093E00703590030475F00712280D900525E0FE22
:10094E00A3E0FF7C007D3C1227A6900524E02FFD3E
:10095E00EC3EFC900306E0FBA3E0FAA3E0F9128163
:10096E003990030602117490031274FFF0A37443BE
:10097E00F0A37478F0A3E4F0A37402F0900303E004
:10098E00FBA3E0FAA3E0F9127684EF3395E04F6013
:10099E0003020A2090031274FFF0A37443F0A374B1
:1009AE007BF0A3E4F0A37405F0900303E0FBA3E057
:1009BE00FAA3E0F9127684EF3395E04F90030470BA
:1009CE000575F0088004E475F00512280D9004A456
:1009DE00E0601390048EE0600D9004A3E0C39405D4
:1009EE0074809480400590048E8003900444E0FF50
:1009FE00900301E4F0A3EFF0900306E0FBA3E0FA0E
:100A0E00A3E0F9900301A3E0FD127A4690030602DB
:100A1E00117490031274FFF0A37443F0A37481F069
:100A2E00A3E4F0A37404F0900303E0FBA3E0FAA3A5
:100A3E00E0F9127684EF3395E04F70219003047540
:100A4E00F00712280D90052BE0FEA3E0FF7C007D41
:100A5E000A122A4B12820690030602117490031298
:100A6E0074FFF0A37443F0A37486F0A3E4F0A374B0
:100A7E0003F0900303E0FBA3E0FAA3E0F9127684FF
:100A8E00EF3395E04F702990030475F00612280D90
:100A9E00E47F0AFEFDFC90052DE0F8A3E0F9A3E04B
:100AAE00FAA3E0FB122823128206900306021174A9
:100ABE0090031274FFF0A37443F0A3748AF0A3E4BE
:100ACE00F0A37404F0900303E0FBA3E0FAA3E0F9B3
:100ADE00127684EF3395E04F702590030475F0077E
:100AEE0012280D900306E0FBA3E0FAA3E0F99004B0
:100AFE0098E0FCA3E0FD1281399003060211749078
:100B0E00031274FFF0A37443F0A3748FF0A3E4F008
:100B1E00A37403F0900303E0FBA3E0FAA3E0F91241
:100B2E007684EF3395E04F6003020BE2900342743C
:100B3E00FFF0A37443F0A37493F09004A4E0FF902D
:100B4E000345E4F0A3EFF0900525E0FEA3E0FF7C63
:100B5E00007D3C1227A6900524E02FFFEC3E90036B
:100B6E0047F0A3EFF090048EE0FBFF7E007D1E1297
:100B7E0027B8900349EEF0A3EFF0EB75F01E84AFAB
:100B8E00F07E007C007D031227B8A3EEF0A3EFF0F9
:100B9E0090052BE0FEA3E0FF7C007D0A122A4B900D
:100BAE00034D12299BE47F0AFEFDFC90052DE0F813
:100BBE00A3E0F9A3E0FAA3E0FB122823900351125D
:100BCE00299B900498E0FFA3E0900355CFF0A3EF8C
:100BDE00F0020E9890031274FFF0A37443F0A37406
:100BEE00D1F0A3E4F0A37409F0900303E0FBA3E0BB
:100BFE00FAA3E0F9127684EF3395E04F7034900348
:100C0E000475F00C12280D900306E0FBA3E0FAA386
:100C1E00E0F9900040E0FCA3E0FD1281399003065C
:100C2E00EBF0A3EAF0A3E9F0E4900040F0A3F002A9
:100C3E0008A390031274FFF0A37443F0A374DBF0C7
:100C4E00A3E4F0A3740BF0900303E0FBA3E0FAA37C
:100C5E00E0F9127684EF3395E04F7022900304751D
:100C6E00F00E12280D900306E0FBA3E0FAA3E0F9C4
:100C7E00900447E0FD127A46900306021174900329
:100C8E001274FFF0A37443F0A374E7F0A3E4F0A38F
:100C9E007404F0900303E0FBA3E0FAA3E0F91276EC
:100CAE0084EF3395E04F703690030475F0071228E9
:100CBE000D900306E0FBA3E0FAA3E0F99004921274
:100CCE008135900306EBF0A3EAF0A3E9F090046EF1
:100CDE00E0FCA3E0FD12813990030602117490032B
:100CEE001274FFF0A37443F0A374ECF0A3E4F0A32A
:100CFE007403F0900303E0FBA3E0FAA3E0F912768D
:100D0E0084EF3395E04F701D90030475F0061228A2
:100D1E000D900306E0FBA3E0FAA3E0F9127A4190EE
:100D2E00030602117490031274FFF0A37443F0A330
:100D3E0074F0F0A3E4F0A3740BF0900303E0FBA3B4
:100D4E00E0FAA3E0F9127684EF3395E04F7020902D
:100D5E00030475F00E12280D900306E0FBA3E0FAD3
:100D6E00A3E0F990049C1281359003060211749051
:100D7E00031274FFF0A37443F0A374FCF0A3E4F029
:100D8E00A37408F0900303E0FBA3E0FAA3E0F912CA
:100D9E007684EF3395E04F702090030475F00B12BC
:100DAE00280D900306E0FBA3E0FAA3E0F99004F00F
:100DBE0012813590030602117490031274FFF0A392
:100DCE007444F0A37405F0A3E4F0A37403F090034D
:100DDE0003E0FBA3E0FAA3E0F9127684EF3395E08B
:100DEE004F6003020EA490034274FFF0A37444F00C
:100DFE00A37409F0900449E0FF900345E4F0A3EFDB
:100E0E00F090048EE0FF900347E4F0A3EFF0900320
:100E1E006FE0FCA3E0FDA3E0FEA3E0FF9003491208
:100E2E00299B9003A4E0FCA3E0FDA3E0FEA3E0FF5A
:100E3E0090034D12299B900373E0FCA3E0FDA3E009
:100E4E00FEA3E0FF90035112299B9003A8E0FCA3A0
:100E5E00E0FDA3E0FEA3E0FF90035512299B900452
:100E6E008DE0900359F0900497E090035AF09004AF
:100E7E0046E090035BF090043FE0FCA3E0FDA3E0AE
:100E8E00FEA3E0FF90035C12299B7B017A01790C93
:100E9E00123953021D8490031274FFF0A37442F0B2
:100EAE00A37423F0A3E4F0A37404F0900303E0FB17
:100EBE00A3E0FAA3E0F9127684EF3395E04F7023A6
:100ECE0090030475F00712280D900306E0FBA3E0D3
:100EDE00FAA3E0F9A209E4FC33FD1281399003066E
:100EEE0002117490031274FFF0A37444F0A37431D2
:100EFE00F0A3E4F0A37404F0900303E0FBA3E0FA84
:100F0E00A3E0F9127684EF3395E04F70209003043E
:100F1E0075F00712280D900306E0FBA3E0FAA3E09C
:100F2E00F990048C1281359003060211749003120D
:100F3E0074FFF0A37444F0A37436F0A3E4F0A3742A
:100F4E0007F0900303E0FBA3E0FAA3E0F912768426
:100F5E00EF3395E04F703390030475F00A12280DAD
:100F6E00900306E0FBA3E0FAA3E0F990900EE49361
:100F7E0025E0FFE433FE90907EE493FDEEFCEF4D12
:100F8E00FD12813990030602117490031274FFF062
:100F9E00A37444F0A3743EF0A3E4F0A37404F090A1
:100FAE000303E0FBA3E0FAA3E0F9127684EF339596
:100FBE00E04F702F90030475F00712280D90030672
:100FCE00E0FBA3E0FAA3E0F990900BE493640570C4
:100FDE0005FC7D0180047C007D00128139900306A2
:100FEE0002117490031274FFF0A37441F0A3747590
:100FFE00F0A3E4F0A37407F0900303E0FBA3E0FA80
:10100E00A3E0F9127684EF3395E04F702590030438
:10101E0075F00B12280D900306E0FBA3E0FAA3E097
:10102E00F9900033E0FCA3E0FD1281399003060233
:10103E00117490031274FFF0A37444F0A37443F080
:10104E00A3E4F0A37409F0900303E0FBA3E0FAA37A
:10105E00E0F9127684EF3395E04F7020900304751B
:10106E00F00C12280D900306E0FBA3E0FAA3E0F9C2
:10107E0090052812813590030602117490031274A4
:10108E00FFF0A37444F0A3744DF0A3E4F0A3740432
:10109E00F0900303E0FBA3E0FAA3E0F9127684EFED
:1010AE003395E04F702690030475F00712280D90CB
:1010BE0004A4E064017BFF70067A42791D80047AF5
:1010CE00427923127D8C90030602117490031274E0
:1010DE00FFF0A37444F0A37452F0A3E4F0A37405DC
:1010EE00F0900303E0FBA3E0FAA3E0F9127684EF9D
:1010FE003395E04F702390030475F00812280D907D
:10110E00048EE07BFF70067A4179EB80047A417998
:10111E00E7127D8C900306804D90031274FFF0A3AE
:10112E007444F0A37458F0A3E4F0A37405F0900394
:10113E0003E0FBA3E0FAA3E0F9127684EF3395E027
:10114E004F702E90030475F00812280D9004A4E041
:10115E0064027BFF70067A42790380047A42790733
:10116E00127D8C900306EBF0A3EAF0A3E9F00208DF
:10117E00A390034274FFF0A37444F0A3745EF09046
:10118E000306E0FBA3E0FAA3E0F91239539003073C
:10119E00EE8FF012280D021D8490031274FFF0A33F
:1011AE007444F0A37461F0A3E4F0A37404F090030C
:1011BE0003E0FBA3E0FAA3E0F9127684EF3395E0A7
:1011CE004F6003021B4F90030475F00412280D901C
:1011DE00031274FFF0A37443F0A3746EF0A3E4F053
:1011EE00A37404F0900303E0FBA3E0FAA3E0F9126A
:1011FE007684EF3395E04F600302129990030475E5
:10120E00F00512280D900303E0FBA3E0FAA3E0F92A
:10121E0012272C24D0FFE434FFFE900301F0A3EF3D
:10122E00F09004A4E06F7001EE6054900301E0FEB4
:10123E00A3E0FFC3EE648094804044D3EF9403EEAA
:10124E0064809480503990900BE4936405700C90F8
:10125E000301E07004A3E06402700B900301A3E0AD
:10126E009004A4F080069004A47405F0D2197F01B6
:10127E001200039004A4E0640370049004A3F07BB6
:10128E00017A01790C9004A4021C6090031274FF81
:10129E00F0A37443F0A3747BF0A3E4F0A37405F001
:1012AE00900303E0FBA3E0FAA3E0F9127684EF3398
:1012BE0095E04F70469003F37412F0900304E475BA
:1012CE00F006126E87900444EFF0700E9004A4E0C6
:1012DE0070089004D77402F08015900491E0FF908E
:1012EE000444E0D39F4008EFF09003F3740FF07BBB
:1012FE00017A01790C90044402189B90031274FF3A
:10130E00F0A37444F0A3744DF0A3E4F0A37404F0BE
:10131E00900303E0FBA3E0FAA3E0F9127684EF3327
:10132E0095E04F60030213DB90030475F00612285C
:10133E000D9004A4E0FF64057003021D84EF6402A7
:10134E00701090900B93640570089004A4740502BD
:10135E00144B90031274FFF0A37442F0A37423F0A5
:10136E00A3E4F0A37404F0900303E0FBA3E0FAA35C
:10137E00E0F9127684EF3395E04F70109004A4E0FC
:10138E007003021D84E4F0D21902144C90031274FF
:10139E00FFF0A37442F0A3741DF0A3E4F0A3740550
:1013AE00F0900303E0FBA3E0FAA3E0F9127684EFDA
:1013BE003395E04F6003021D7A9004A4E06401703F
:1013CE0003021D847401F0D219FF021B4690031212
:1013DE0074FFF0A37444F0A37452F0A3E4F0A3746A
:1013EE0005F0900303E0FBA3E0FAA3E0F912768484
:1013FE00EF3395E04F600302149290030475F007EB
:10140E0012280D90031274FFF0A37441F0A374EB35
:10141E00F0A3E4F0A37404F0900303E0FBA3E0FA5E
:10142E00A3E0F9127684EF3395E04F7016900528FD
:10143E00E064047003021D849004D77402F07F01EF
:10144E00021B4690031274FFF0A37441F0A374E7DD
:10145E00F0A3E4F0A37403F0900303E0FBA3E0FA1F
:10146E00A3E0F9127684EF3395E04F7014900528BF
:10147E00E06003021D849004D77403F07F01021B09
:10148E0046021D7A90031274FFF0A37444F0A37405
:10149E0058F0A3E4F0A37405F0900303E0FBA3E07F
:1014AE00FAA3E0F9127684EF3395E04F600302154C
:1014BE004690030475F00712280D90031274FFF086
:1014CE00A37442F0A37407F0A3E4F0A37402F090A7
:1014DE000303E0FBA3E0FAA3E0F9127684EF339561
:1014EE00E04F70149004A4E064026003021D849027
:1014FE000538F0A304021BE990031274FFF0A374E5
:10150E0042F0A37403F0A3E4F0A37403F09003037A
:10151E00E0FBA3E0FAA3E0F9127684EF3395E04FF7
:10152E0070139004A4E064027003021D847402F030
:10153E007F01021B46021D7A90031274FFF0A37402
:10154E0043F0A374ECF0A3E4F0A37403F090030350
:10155E00E0FBA3E0FAA3E0F9127684EF3395E04FB7
:10156E00707675F004126E84900491EFF07E00D3C5
:10157E0094B474809480400574B4F08011C3EF94D9
:10158E000FEE648094805006900491740FF07B01EE
:10159E007A01790C127A41900491E0FD7F0D7E90D4
:1015AE00127803900491E0FF900447E0D39F400F20
:1015BE00EFF0900301A3E0FD7F0C7E9012780320E4
:1015CE000F0BD20F7D017F117E901278039003F3E3
:1015DE00740FF07F01021B4690031274FFF0A37488
:1015EE0043F0A374F0F0A3E4F0A3740BF0900303A4
:1015FE00E0FBA3E0FAA3E0F9127684EF3395E04F17
:10160E00705790030475F00C12280D900303E0FB45
:10161E00A3E0FAA3E0F9126F68900301EEF0A3EFD6
:10162E00F0C39401EE648094804017900301E0FEB5
:10163E00A3E0FFD39403EE64809480500590049C45
:10164E00EFF090049C12812F90049CE0FD7F0F7EA2
:10165E00901278037F01021B4690031274FFF0A3D1
:10166E007444F0A37466F0A3E4F0A37404F0900342
:10167E0003E0FBA3E0FAA3E0F9127684EF3395E0E2
:10168E004F705890030475F00512280D900303E077
:10169E00FBA3E0FAA3E0F9126F68900301EEF0A34A
:1016AE00EFF064014E700E90053804F0A37411F043
:1016BE00C217021A2F900301E07002A3E06003022A
:1016CE001A2F9004A4E064046003021A2F9004D72A
:1016DE007402F07F01120003021A2F90031274FF9E
:1016EE00F0A37443F0A374E7F0A3E4F0A37404F042
:1016FE00900303E0FBA3E0FAA3E0F9127684EF3344
:10170E0095E04F60030217F990030475F005122857
:10171E000D900303E0FBA3E0FAA3E0F912272CFFE0
:10172E00C3943050030217C1EFD394324003021713
:10173E00C1900001122745642C707812272C24D0FA
:10174E00FFE434FFFE900301F0A3EFF0900492E06B
:10175E006F7001EE6017900301A3E0900492F0FD0C
:10176E007F147E9012780390048B7402F090030322
:10177E00E0FBA3E0FAA3E02402F9E43AFA126F6860
:10178E00900301EEF0A3EFF090046EE06E7003A3F1
:10179E00E06F601F900301E0FEA3E0FF90046EEE89
:1017AE00F0FCA3EFF0FD7F157E9012809B90048BD2
:1017BE007402F090034274FFF0A37444F0A3746BB0
:1017CE00F0900492E0FF900345E4F0A3EFF0900454
:1017DE006EE0FFA3E0900347CFF0A3EFF07B017A1A
:1017EE0001790C1239537F01021B4690031274FFCC
:1017FE00F0A37443F0A374DBF0A3E4F0A3740BF036
:10180E00900303E0FBA3E0FAA3E0F9127684EF3332
:10181E0095E04F60030218A575F00C126E847E00E1
:10182E00900301EEF0A3EFF0D394B4748094805043
:10183E0053900301E0FEA3E0FFC3940FEE64809487
:10184E00804041900447E0FDEF6D7001EE603590F1
:10185E000491E0FF7E00D3900302E09F7480F89025
:10186E000301E0648098400BEEF0A3EFF09003F3D9
:10187E00740FF0900301A3E0FD900447F07F0C7EFF
:10188E00901278037B017A01790C900447E0FD12E7
:10189E007A467F01021B4690031274FFF0A3744236
:1018AE00F0A37423F0A3E4F0A37404F0900303E018
:1018BE00FBA3E0FAA3E0F9127684EF3395E04F70C4
:1018CE007290030475F00512280D900303E0FBA33C
:1018DE00E0FAA3E0F912272C24D0FFE434FFFE90A7
:1018EE000301F0A3EFF0C3EE6480948040319003C7
:1018FE0001E0FEA3E0FFD39401EE64809480501FBC
:10190E00A209E433FDEF6D7001EE6013900301A3A5
:10191E00EE4F24FF9209AD077F127E901278037B63
:10192E00017A01790CA209E4FC33FD1281397F01A1
:10193E00021B4690031274FFF0A37444F0A374319B
:10194E00F0A3E4F0A37404F0900303E0FBA3E0FA29
:10195E00A3E0F9127684EF3395E04F7063900304A1
:10196E0075F00512280D900303E0FBA3E0FAA3E047
:10197E00F9126F68900301EEF0A3EFF0D39400EE2E
:10198E0064809480402F900301E0FEA3E0FFD39487
:10199E001FEE64809480501D90048CE0FDEF6D70FE
:1019AE0001EE6011900301A3E090048CF0FD7F1313
:1019BE007E9012780390048C12812F7F01021B46B9
:1019CE0090031274FFF0A37444F0A37471F0A3E4B7
:1019DE00F0A37406F0900303E0FBA3E0FAA3E0F992
:1019EE00127684EF3395E04F704890030475F0073C
:1019FE0012280D900303E0FBA3E0FAA3E0F91227EF
:101A0E002C24D0FFE434FFFE900301F0A3EFF0642A
:101A1E00014E700D900301A3E0FD7F7E7E90127843
:101A2E00037B017A01790C900301E0FCA3E0FD0237
:101A3E001C6490031274FFF0A37444F0A3743EF080
:101A4E00A3E4F0A37404F0900303E0FBA3E0FAA375
:101A5E00E0F9127684EF3395E04F705C90030475D5
:101A6E00F00512280D90048EE0702E900303E0FB1B
:101A7E00A3E0FAA3E0F912272C24D0FFE434FFFEF2
:101A8E00900301F0A3EFF064014E70047F05800215
:101A9E007F019004A4EFF0D2197B017A01790C90AA
:101AAE0004A4E064057005FC7D0180047C007D00CB
:101ABE001281397F01021B4690031274FFF0A3744A
:101ACE0041F0A37475F0A3E4F0A37407F090030340
:101ADE00E0FBA3E0FAA3E0F9127684EF3395E04F32
:101AEE00705C90030475F00812280D900303E0FB60
:101AFE00A3E0FAA3E0F912272C24D0FFE434FFFE72
:101B0E00900301F0A3EFF04E70051281788016D38A
:101B1E00900034E09400900033E094004007900071
:101B2E001CE04420F07B017A01790C900301E0FC6B
:101B3E00A3E0FD1281397F01120003021D84021DF4
:101B4E007A90031274FFF0A37443F0A3747BF0A396
:101B5E00E4F0A37405F0900303E0FBA3E0FAA3E026
:101B6E00F9127684EF3395E04F707690030475F09A
:101B7E000612280D90031274FFF0A37444F0A374A0
:101B8E0078F0A3E4F0A37402F0900303E0FBA3E06B
:101B9E00FAA3E0F9127684EF3395E04F70099005C1
:101BAE0038F0A37402803490031274FFF0A37443D0
:101BBE00F0A3745BF0A3E4F0A37404F0900303E0CD
:101BCE00FBA3E0FAA3E0F9127684EF3395E04F60C1
:101BDE0003021D84900538F0A37404F0C217021D91
:101BEE008490031274FFF0A37444F0A3747BF0A3EB
:101BFE00E4F0A37408F0900303E0FBA3E0FAA3E083
:101C0E00F9127684EF3395E04F705190030475F01E
:101C1E000912280D900303E0FBA3E0FAA3E0F912EA
:101C2E006F68900301EEF0A3EFF0C3EE6480948032
:101C3E004017900301E0FEA3E0FFD39407EE64800B
:101C4E00948050059004A3EFF07B017A01790C90FB
:101C5E0004A3E0FD7C00128139021D8490031274EE
:101C6E00FFF0A37444F0A37484F0A3E4F0A37414FF
:101C7E00F0900303E0FBA3E0FAA3E0F9127684EF01
:101C8E003395E04F700690003E021E87900312744B
:101C9E00FFF0A37444F0A37499F0A3E4F0A3740EC0
:101CAE00F0900303E0FBA3E0FAA3E0F9127684EFD1
:101CBE003395E04F700690003E021E57900312744B
:101CCE00FFF0A37444F0A374A8F0A3E4F0A3740F80
:101CDE00F0900303E0FBA3E0FAA3E0F9127684EFA1
:101CEE003395E04F701790030475F01012280D9085
:101CFE000303E0FBA3E0FAA3E0F9021ED690031261
:101D0E0074FFF0A37444F0A374B8F0A3E4F0A374CA
:101D1E0009F0900303E0FBA3E0FAA3E0F912768446
:101D2E00EF3395E04F704590048EE0D394007480AD
:101D3E00948040030220657D017F7F7E90127803A0
:101D4E00E4FF1285BF7BFF7A4479C2E4FD1261087D
:101D5E007BFF7A4479C77D01126108126D9075FD83
:101D6E00F075FC0F75FD7875FC87800A90000B747A
:101D7E00ECF0A37477F090000BE07002A3E0700417
:101D8E007F0780027F0890003EEFF00220659003EF
:101D9E001274FFF0A37442F0A374F3F0A3E4F0A363
:101DAE007405F07B017A007943127684EF3395E067
:101DBE004F02206590001CE054FBF090031274015A
:101DCE00F0A37400F0A3740EF0A3E4F0A37402F079
:101DDE007B017A007943127684EF3395E04F6003EE
:101DEE00022065021F4090001CE054FBF054DFF00F
:101DFE0002205F9003127401F0A37401F0A3747CAF
:101E0E00F0A3E4F0A37412F07B017A00794312760A
:101E1E0084EF3395E04F90003E7002805C802A90F4
:101E2E0003127401F0A37400F0A3740EF0A3E4F097
:101E3E00A37402F07B017A007943127684EF339516
:101E4E00E04F90003E700280307402F002206590E8
:101E5E0003127401F0A37400F0A3740EF0A3E4F067
:101E6E00A37402F07B017A007943127684EF3395E6
:101E7E00E04F90003E7002803A7403F002206590AD
:101E8E0003127401F0A37400F0A3740EF0A3E4F037
:101E9E00A37402F07B017A007943127684EF3395B6
:101EAE00E04F701590001CE054FEF0E490003FF0FF
:101EBE0090003E740FF002206590003E7404F00214
:101ECE0020657B017A00794312670E02206590002F
:101EDE001CE054F7F090003E7409F0022065900368
:101EEE001274FFF0A37444F0A374CCF0A3E4F0A337
:101EFE007412F07B017A007943127684EF3395E009
:101F0E004F70327B0190030F04F0A37400F0A374A2
:101F1E0012F07A00794312710C900303EBF0A3EAEE
:101F2E00F0A3E9F0900303E0FBA3E0FAA3E04A4B31
:101F3E00600302205F90003E7410F0022065900353
:101F4E00127401F0A37400F0A3740EF0A3E4F0A3D6
:101F5E007402F07B017A007943127684EF3395E0B8
:101F6E004F90003E70057406F080037410F07B01F4
:101F7E007A007943126B8B90001712299B7F5A7E41
:101F8E00D47D6E7C5A900017E0F8A3E0F9A3E0FA36
:101F9E00A3E0FBD31229645003022055900017E0F2
:101FAE00FCA3E0FDA3E0FEA3E0FFC004C005C00655
:101FBE00C0071285D1E47B887A13F9F81228AEA8EF
:101FCE0004A905AA06AB07D007D006D005D004C3D6
:101FDE00EF9BFFEE9AFEED99FDEC98FC9000171228
:101FEE00299B9004F0E07069909023939004F0F098
:101FFE00D39400748094804058909025E4937E0092
:10200E007810C333CE33CED8F9FDAC06909024E4CD
:10201E00937E007818C333CE33CED8F9FFEE4CFC46
:10202E00EF4DFD909026E4934CFEEDFFA3E493FD5F
:10203E00EF4DFFEE3395E0FDFC9004EB12299B90E3
:10204E00003E740EF080109000171229A7000000B9
:10205E000090003E7406F0E490003DF090001D04E8
:10206E00F0E4801E900042E0C394FA7480948040A5
:10207E001690001D7401F090003DE0A3F0E4900076
:10208E003DF0900042F022900042E004F022201039
:0F209E000EE490010BF090001D04F090003EF056
:0120AD002210
:030023000273B3B2
:1073B300C0E0C083C082C0D075D000C00730984EF3
:1073C300900011E0FF2443F582E43400F583E5994E
:1073D300F074432FF582E43400F583E0FFB40D1716
:1073E300900011E02443F582E43400F583E4F0D205
:1073F30018900011F08015EF6012900011E004F076
:10740300E0C39464748094804002E4F0C29830999D
:107413002790000DE0FF90001BE0C39F5013E0FF97
:1074230004F074A72FF582E43400F583E0F5998026
:107433000590001BE4F0C299D007D0D0D082D0834E
:03744300D0E03264
:107D260043414C49004C4F434B0053544F50004E77
:107D360045570054494D45002564202530326400DE
:107D460025643A2530326400535044004B4D0043BD
:107D5600414C0053544550004631004632004633EC
:107D6600004D41580046414354004F4646004F4E91
:107D760000474F414C00444F4E4500452530326484
:067D8600005741495400C2
:105689005704260915151200107F11000A15150F68
:105699000100111F091000107F115703F8111F098C
:1056A90010100E15150D0009151512000E15150D02
:1056B900107F111157040F3F242418023E12202095
:1056C9001C2A2A1A00122A2A2400122A2A245903D7
:1056D900DA000000000000000000000C1E1E0C0093
:0A56E90000000000000000000000B7
:10856E00900528EFF0E490053CF0A3F090053BF069
:05857E00900527F0222A
:107789009004A4E014601B14602B14602F24037070
:1077990068D2C2900443E0C3946E748094804050D0
:1077A9008053D2C2900443E0C3946E7480948040A5
:1077B90002803D8040C2C2D290D291229004A3E0BF
:1077C900FFC39404748094804017EF64086012D258
:1077D900C2900443E0946E748094804002801680C5
:1077E9000FD2C2900443E0C3946E74809480400524
:0A77F900C290D29122D290C29122D8
:10325600E4FF1285BF30100302387F900528E02472
:10326600FC7003023777147003023799240524F99A
:1032760050030238ED1277899004A4E06404701BB1
:10328600900528E064066013D280D2C2D290D29113
:10329600D2CD7BFF7A7D792602335490003FE0B48D
:1032A600070050529032B1F82828730232CE02320B
:1032B600CE0232CA0232C60232E30232D60232D617
:1032C600D2CD8032C2CD802E7DC87C007F64800640
:1032D6007D207C037FC87E00127F5D801990030BE2
:1032E6007403F0A37420F07B647A007DC87C007FB1
:1032F600647E001272779004A4E06405700FD2C257
:10330600D290D2917BFF7A7D792B02375490052893
:10331600E0640670239003F4F0A3F07B017A04794D
:1033260026FD12834F90053CE0FEA3E0FFC3740325
:103336009FFFE49EFE0236E0900528E064036008E5
:103346009004D7E06402700A7BFF7A7D7930E4024C
:10335600375490001CE030E00B7B017A0379F8E4E7
:10336600FD02834F301B030234589003F3E06413CD
:10337600702E7B017A04790FFD12834F90053BE096
:10338600C3942374809480500B7B017A0379DA7D91
:103396000112834F9003F37404F0E4A3F0A3F02228
:1033A6009004A4E0640370147BFF7A7D7935FD12E6
:1033B600610890048EE0FF7E000235499003F7E035
:1033C60060179003F4E07002A3E070289003F37492
:1033D60004F0E49003F7F0801B9003F3E0D3940D20
:1033E60074809480400EA37401F0A374F4F09003EB
:1033F600F77401F09003F3E0C39405748094805051
:1034060043A3E07002A3E0703B1284519003F4E4FE
:10341600F0A374FAF09003F3E02401FFE433FE7C9A
:10342600007D051227B8EDF0E0FF7E007401A807C5
:10343600088005C333CE33CED8F9FF90048CE0FD67
:10344600EF5D60D19003F5E024FFF09003F4E034E3
:10345600FFF09003F3E060030235067BFF7A7D7987
:1034660039FD126108900525E0FEA3E0FFC3943CF8
:10347600EE9400500F900301EFF0900524E09003C6
:1034860002F08025900525E0FAA3E0FB7C007D3C58
:10349600FFAE021227B8900301EFF07C007D3CAF2F
:1034A60003AE021227B8A3EDF0900301E0D39463B4
:1034B6007480948040037463F0D3900526E0943BB7
:1034C600900525E09400401590053BE0D3941974CF
:1034D60080948040087BFF7A7D793E80067BFF7A68
:1034E6007D7946900301E0FF90030EE4F0A3EFF030
:1034F600900302E0FF900310E4F0A3EFF002387AA5
:103506009003F3E0FF64016005EF6412703F7BFFF8
:103516007A7D794EE4FD1261089004A4E06401709E
:103526000D900528E0640170059004448003900422
:103536008EE0FF900303E4F0A3EFF0900303E0FEB8
:10354600A3E0FF7C007D031227B80237099003F33E
:10355600E0640270177BFF7A7D7952FD1261089054
:10356600052BE0FEA3E0FF7D010282D29003F3E08B
:10357600640370797BFF7A7D7955FD1261087FA01F
:103586007E867D017C0090052DE0F8A3E0F9A3E09E
:10359600FAA3E0FBC3122964501AE47B0AFAF9F88D
:1035A60090052DE0FCA3E0FDA3E0FEA3E0FF1228BA
:1035B600AE0237097F407E427D0F7C0090052DE0EC
:1035C600F8A3E0F9A3E0FAA3E0FBC31229644003E1
:1035D6000238EDE47B64FAF9F890052DE0FCA3E0EF
:1035E600FDA3E0FEA3E0FF1228AE0236E09003F34F
:1035F600E0640470327BFF7A7D7959FD1261089090
:103606000498E0FEA3E0FFC39410EE9427500280D6
:1036160013900498E0FEA3E0FF7C277D101227B8E4
:10362600AE04AF050236E09003F3E0641070169026
:103636000497E0FF7E00E4FD128290900446E0FFCE
:103646007E000236E09003F3E06411703E7B64FA7C
:10365600F9F890036FE0FCA3E0FDA3E0FEA3E0FF12
:103666001228AEE4900309F01283DCE47B64FAF9D5
:10367600F89003A4E0FCA3E0FDA3E0FEA3E0FF12A4
:1036860028AE9003097401F00283DC9003F3E06432
:103696000670137BFF7A7D795EFD126108900490B7
:1036A600E0FF7E0080349003F3E0640770137BFF35
:1036B6007A7D7961FD1261089004A2E0FF7E0080A8
:1036C600199003F3E0640870167BFF7A7D7964FD38
:1036D60012610890049FE0FF7E007D0102850C9038
:1036E60003F3E0FF64096005EF640F701B7BFF7A4C
:1036F6007D7967E4FD126108900491E075F003841A
:10370600FF7E007D010282909003F3E0640A70233D
:103716007BFF7A7D796BFD1261082011087BFF7AA9
:103726007D797080472011030238ED7BFF7A7D7921
:103736007480399003F3E0640B7016900443E0FF45
:103746007E007D0112850C7B017A007912E4FD80F2
:103756001D9003F3E0640E60030238ED7BFF7A7D73
:103766007977FD1261087BFF7A7D797C7D010261A4
:10377600089004A4E064027006C2C2D290D291906E
:10378600053CE07004A3E0640160030238EDD2CD8D
:10379600D280227BFF7A7D79819004F0E0FF90034E
:1037A6000EE4F0A3EFF0E4FF127CC0D2C2D290D2B6
:1037B60091C2809004F0E0FD7C00640870030277FB
:1037C60089ED640A4C600B9004F0E0640B60030220
:1037D60038ED1285D1E47B887A13F9F81228AEAB5E
:1037E60007AA06C002C003900017A3A3E0FEA3E049
:1037F600FBAA069004EBA3A3E0FEA3E0C39BFFEEA7
:103806009AFED003D002C3EF9BFFEE9AFEC006C01D
:10381600079004F0E0FF7E007C007D141227A6C30B
:1038260074E69FFFE49EFE3395E0FDFCE47B3CFAE4
:10383600F9F8122823D0E02FFFD0E03E900303F0E2
:10384600A3EFF0900303E0FAA3E0FB7C007D3CFFCE
:10385600AE021227B890030EEEF0A3EFF07C007DC7
:103866003CAF03AE021227B8A3ECF0A3EDF07BFF4A
:103876007A7D79467F01027CC0900448E0649670A8
:10388600057F011200037BFF7A7D7987E4FD1261D3
:1038960008900448E0D39400748094804005E014B6
:1038A600F08002C210900448E0FFC374969FFFE4C4
:1038B6009400FE7C007D191227A67D961227B890EB
:1038C6000303EEF0A3EFF0D39400EE9400401890BB
:1038D6000303E0FEA3E0FF7D1890027EE0FBA3E079
:0738E600FAA3E0F9122B61C7
:0138ED0022B8
:10575300128314900538E0FEA3E0FF4E7003025954
:1057630080301703025980301003025980D21790FA
:105773000040EEF0A3EFF09004D7E06003025980FD
:10578300900538A3E08EF0122A1E57C1000157F688
:10579300000258C0000358560004593900115940FB
:1057A30000135920010158E101035962011157C146
:1057B300100058F4110059471101000059807F016E
:1057C3001200039004A4E0FF7E006402700CC21375
:1057D30090900B939004A4025935EF4E70079004F8
:1057E300A4040259359004A4E064016003025980C3
:1057F300025935900528E0640470030259807F0143
:105803001200039003F37412F090048EE0D394001B
:1058130074809480403B9004A4E0FF64016005EF32
:105823006403702D900444E0240FF0900491E0FF92
:10583300900444E0D39F4008EFF09003F3740FF01B
:10584300900444E075F00F84AFF0EF6068E0C39F0D
:10585300F08062900528E0640470030259807F01A0
:105863001200039003F37412F090048EE0D39400BB
:1058730074809480403F9004A4E0FF64016005EFCE
:1058830064037031900444E0C3941E748094805088
:10589300089004D77402F08007900444E024F1F0E8
:1058A300900444E075F00F84AFF0EF6008C3740F09
:1058B3009FFFE02FF0E4900538F0A3F02290052835
:1058C300E0640470030259807F01120003900528ED
:1058D300E09004D770047403F0227402F022900560
:1058E30028E0640360030259807F01120003D2128F
:1058F300229004A4E0640270247F0212000390004B
:105903001CE04401F0C21390900BE4939004A4F0C4
:105913006403700204F0D219E4FF02856E90052837
:10592300E0705A7F011200037F0412856E9004A475
:105933007402F0D219229003F37411F0229003F34E
:105943007410F0229004A4E0C394027480948050F5
:105953002C7F01120003D21B9003F37406F02290F4
:1059630004A4E0640460167F011200039004A4748D
:0E59730004F07F0612856E9004447478F022D2
:102BA3009003A8E0FCA3E0FDA3E0FEA3E0FF9003F5
:102BB30073E0F8A3E0F9A3E0FAA3E02FFFEA3EFEF7
:102BC300E93DFDE83CFCE47B02FAF9F812824C9003
:102BD300030112299B3019399004A4E0FF640260B9
:102BE30029EF64046024E0FD7F0B7E90127803904C
:102BF30004A4E06401701390048EE0FFD394007486
:102C03008094804005900444EFF0E49003D9F0C22F
:102C130019E490043EF09004F0E0FF7E00D39400AA
:102C230074809480403D900528E064056035EF642E
:102C33000870119004A4E0600B9003ACE06403708F
:102C43002230091F90048EE0D39400748094804056
:102C5300089004D77402F0800AE49004D7F07F054B
:102C630012856E900528E0B4070040030231DA9024
:102C73002C79F8282873022CDA02301D023109025C
:102C83003110022C8E0231A0022FD39004A4E064F1
:102C93000260227F01120003C213C21CD390053DC0
:102CA300E0940A90053CE09400400790001CE04447
:102CB30040F002310B90053CE07004A3E064016036
:102CC300030231DA90053BE060030231DA12770B3D
:102CD300D21CD21F0231DA9004D7E064036002E40D
:102CE300F0C390053DE0945890053CE09402500BEE
:102CF3009004A4E0FD7C006402700B9004A47402B1
:102D0300F0D2190231B2ED64054C70079004D7F08C
:102D13000231DA9004D7E064037033F09004A4E046
:102D2300FF64016018EF640360030231DA9004A3C7
:102D3300E0C394057480948040030231DA90044721
:102D4300E0900444F09003F37412F0022E34E47F15
:102D5300C47E09FDFC900301E0F8A3E0F9A3E0FAC7
:102D6300A3E0FBD312294E404220093F9004A4E084
:102D7300FF64016011EF640370319004A3E09405D4
:102D8300748094805025301B030231DA900527E0CC
:102D9300D3940F7480948040099003F37413F0026A
:102DA30031DA900527E004F00231DAE47FC47E09CA
:102DB300FDFC900301E0F8A3E0F9A3E0FAA3E0FB34
:102DC300D312294E407020106D90053BE0D394013F
:102DD3007480948040609004A4E0601B6403700CD2
:102DE3009004A3E0940574809480500B30094790BD
:102DF30004A4E06403603F900527E0FF04F0C3EF01
:102E0300940F7480948050030231DA9004A4E0FF9D
:102E13007E007008900449740FF0800EEF64014E39
:102E23007008900447E0900444F07F01120003C24D
:102E33001F7F060231D79004A4E06403701490044A
:102E4300A3E06407700C9003ACE0700612744602B2
:102E530031DA90053CE07004A3E0640160030231C1
:102E63009990053BE06401600302319990001EE0F4
:102E7300FEA3E0FFD390052CE09F90052BE09E502E
:102E8300030231DA90003FE094057480948040039C
:102E93000231DA90052BE0FCA3E0FDC39FFFEC9E1B
:102EA300FE900034E02FF0900033E03EF090001EDF
:102EB300ECF0A3EDF0900035E0F8A3E0F9A3E0FA1D
:102EC300A3E0FBC000C001C002C003900022E0F8F1
:102ED300A3E0F9A3E0FAA3E0FB90052DE0FCA3E057
:102EE300FDA3E0FEA3E0C39BFFEE9AFEED99FDEC8C
:102EF30098FCD003D002D001D000EB2FFFEA3EFEB6
:102F0300E93DFDE83CFC90003512299B90052DE03E
:102F1300FCA3E0FDA3E0FEA3E0FF90002212299BA7
:102F2300900028E0FEA3E0FF900498E0FCA3E0FDFE
:102F3300C39FFFEC9EFE90003AE02FF0900039E033
:102F43003EF0900028ECF0A3EDF0900525E0FEA301
:102F5300E0FF7C007D3C1227A6900524E02FFFECC8
:102F63003EFE90002CE0FCA3E0FDC3EF9DFDEE9C34
:102F7300FC90003CE02DF090003BE03CF090002CF6
:102F8300EEF0A3EFF0900033E0FCA3E0FD7F177EAB
:102F93009012809B900035E0FCA3E0FDA3E0FEA32C
:102FA300E0FF90030E12299B7F197E901281C0903F
:102FB3000039E0FCA3E0FD7F1D7E9012809B900012
:102FC3003BE0FCA3E0FD7F1F7E9012809B0231DA81
:102FD30090053CE0FCA3E0FDC39403EC9400401097
:102FE30090048D7401F0E49003D9F07F010231D78E
:102FF3009004D7E0640270057F030231D790053B4C
:10300300E060030231DAC3ED9401EC940050030253
:1030130031DA7F011200030231DA90043E7401F0C9
:10302300127E4F90048DE0640270281279D29004CE
:1030330098E0FFA3E0900495CFF0A3EFF09004D7BE
:10304300E0640170047F0280027F0312856EE490C6
:1030530004D7F090048BE0640170030231DA90042A
:103063006EE0FEA3E0FFD39400EE94005003023120
:10307300DA900492E0F9700C900526E09F90052504
:10308300E09E5059E9FB7A006401701C90052BE027
:10309300FEA3E0FF7C007D641227B8D390046FE0A9
:1030A3009F90046EE09E4035EB64024A70497B6456
:1030B300FAF9F890052DE0FCA3E0FDA3E0FEA3E000
:1030C300FF1228AEA804A905AA06AB0790046EE078
:1030D300FEA3E0FFE4FCFDC3122964401A90048BB5
:1030E300E0700B9003F3740EF07F0512000390045D
:1030F3008B7401F00231DA90048BE0640260030206
:1031030031DAF00231DAD213E4FF0231D790048EC0
:10311300E070049004D7F09003A8E0FCA3E0FDA3C3
:10312300E0FEA3E0FF900373E0F8A3E0F9A3E0FA65
:10313300A3E02FFFEA3EFEE93DFDE83CFCE47B58BB
:103143007A02F9F8D312294E50199004A3E0FF64D0
:10315300056010EF6401600B20093B9004A4E06458
:103163000170339004A4E06404701290048EE07044
:103173006690900B939004A4F0D219805A9005277F
:10318300E0FF04F0C3EF9403748094804049D213AA
:10319300C212E4FF803EE4900527F0803AE49004F5
:1031A300D7F09004A4E0FD7C0064027006D2807F17
:1031B3000480219004F0E060176408701A9003AC57
:1031C300E0C3940374809480500DED64014C700748
:1031D300C213E4FF12856E200A3790043EE06401B7
:1031E300602F300B2C9003F6E0D39403748094800B
:1031F3004011E4F090048D7402F0D213E4FF1285C1
:103203006E801390053BE0700D9003F6E004F080B0
:1032130005E49003F6F0200A3490043EE064017064
:103223002C200B2990043DE0D3940A7480948040B1
