:030000000275B2D4
:0C75B20078FFE4F6D8FD7581230275F91E
:026F0300C11AB1
:1052C2009003F3E060030253DA301A08C21A900323
:1052D200F27402F09003F37401F09002F474F7F0A8
:1052E200A304F09002F77401F0A3F09003F2E090AF
:1052F20002F9F024FE601214606324026003025378
:10530200899003F17408F0807E9003F17416F09096
:105312000311E09002FAF0E4900311F090031EE012
:10532200FFA3E09002FBCFF0A3EFF0E4A3F0900321
:1053320026E09002FEF0900323E09002FFF0E4A347
:10534200F0A31229A8000CB7359003057413F0A33B
:105352007424F0900314E0900307F0802A9003F184
:10536200740CF0900311E09002FAF0E4900311F053
:1053720090031EE0FFA3E09002FBCFF0A3EFF01238
:105382007F999002FDEFF09003F1E024FCFF900280
:10539200F6F07E039003F1E024FEFDEEC39D501073
:1053A20074F42EF582E43402F583E02FFF0E80E4DC
:1053B2009003F1E0FE24F2F582E43402F583EFF08B
:1053C20074F32EF582E43402F58374FDF09002F456
:1053D200E090FE8AF00255249003F3E0640160033A
:1053E200025531200E030254F7900313F09003F498
:1053F200F0C20AC20E9003F3F09002D4E09003F2DE
:10540200F024FE601C14700302549824026003020C
:1054120054F09002D7E09002C7F09003F27402F0C9
:10542200229002D6E0FFA3E0900324CFF0A3EFF096
:10543200900317E0FFA3E0900321CFF0A3EFF090D9
:1054420002DAE0FFA3E0900317CFF0A3EFF090029F
:10545200DEE09002CAF09002E4E0FD90031BF090BF
:1054620002E2E0FE9002E1E0FBEBFF90030DEEF0C2
:10547200A3EFF09002E3E013920B90031BEDF09088
:1054820002C7E0C3946474809480500302553B9039
:1054920003F27403F0229002D5E024FF920BA3E002
:1054A200FFA3E0900324CFF0A3EFF0900317E0FFF7
:1054B200A3E0900321CFF0A3EFF09002D8E0FFA386
:1054C200E0900317CFF0A3EFF09002DAE09002CA67
:1054D200F09002DBE090031BF09002DDE0FE900210
:1054E200DCE0FDEDFF90030DEEF0A3EFF022900360
:1054F200F27401F022900313E0C394197480948033
:1055020040269003F4E0940F748094804004D20A01
:1055120080069003F4E004F0E49003F3F09003F2C9
:1055220004F0E4900313F022900313E004F022E469
:095532009003F3F09003F204F081
:01553B00224D
:03003B000262431B
:10624300C0E0C083C082C0D075D000C004C005C008
:0362530006C0077B
:1062560090FE88E020E0030263549002C9E0C394F4
:1062660023748094804002E4F090FE8AE0FF90025E
:10627600C9E0FE24CFF582E43402F583EFF0EEFFA9
:106286007E0070139002CFE064F79002C97003029B
:106296006343E4F002634DEF64014E70139002D045
:1062A600E064F89002C97003026343E4F002634DB0
:1062B6009002C9E0FF7E00640470139002D2E0648D
:1062C600017069A3E0640270799002C9806F900240
:1062D600D1E02403FDE433FCED6F7002EC6E7050E8
:1062E6009002C9E024CFF582E43402F583E064FD30
:1062F600703CFF7E029002C9E0FD14FCEEC39C5088
:106306001074CF2EF582E43402F583E02FFF0E8061
:10631600E474CE2DF582E43402F583E0B5070DD2A0
:106326000E9002C9E4F09002CEF0801B8014801219
:106336009002C9E0C39423748094805005E004F071
:1063460080059002C9E4F090FE88E054FEF090FECD
:1063560088E030E13B9002CEE0C3941974809480CB
:106366005003E004F09003F1E0FF9002CEE0FEC39C
:106376009F501174F42EF582E43402F583E090FE0A
:106386008AF080059002CEE4F090FE88E054FDF09D
:10639600D007D006D005D004D0D0D082D083D0E0AC
:0163A60032C4
:1084A100E4FEEEC39D5015C286EF30E704D285800D
:0C84B10002C285EF25E0FFD2860E80E6B7
:0184BD00229C
:04841400122746FFE6
:10841800E4FEEEC39408748094805015C286EF3051
:10842800E004D2858002C285EFC313FFD2860E8096
:01843800E162
:018439002220
:10854600AC07D286C2847D037F801284A1AF047DEE
:07855600091284A1D2842266
:106A8000906E47E493F9740193FA7402939001F9BC
:106A9000C9F0A3EAF0A3E9F0906E4AE493F9740117
:106AA00093FA7402939001FCC9F0A3EAF0A3E9F011
:106AB000C2847D037FA01284A17D07E4FF1284A11C
:106AC0009001FCE0FBA3E0FAA3E0F912272DFCE41F
:106AD000FDECD39400748094804040EDFB3395E04E
:106AE000FAC3EB9407EA64809480502FEC30E024E2
:106AF000ED3395E0FAC374189BFFE49AFE9001FC15
:106B0000E0FBA3E0FAA3E02FF9EA3EFA12272D44B6
:106B100080122773ECC313FC0D80B67D16ED339500
:106B2000E0C36480948040399001F9E0FBA3E0FA6F
:106B3000A3E0F9EDFF3395E08F82F583128414ED25
:106B4000FF3395E0FEEF2402FFE43EFE9001FCE0FF
:106B5000FBA3E0FAA3E0F98F828E831284141D80D8
:106B6000BCE4FF1284189001FCE0FBA3E0FAA3E070
:096B7000F9900001128414D28492
:016B790022F9
:10843A00D284E4FF1285467F241285467F1812856E
:10844A00467F011285467FA01285467F081285461F
:05845A007F03028546CE
:107E340090FF007408F0D280A37488F0D283A3F07A
:107E4400D284A3F0D28790FF08F0D290D291A37489
:107E540082F0A3F0A37488F090FF107408F0A3F0EC
:107E6400A37480F0A37488F090FF18F0A37482F0D8
:107E7400A37428F0A37488F0C2B690FF20F0A3F096
:0D7E8400D2C290FF28F0A3F0A3F0D2CD22CF
:1085740090FEB0E04404F090FFB17401F043A8040D
:0685840043A930D2AF2232
:1084DA0090FE80E04401F05389FC758CFC758AE0BB
:0B84EA00D2A943A90C438810D2AF2296
:0C85F50090FEA0E4F075BD577428F02241
:04000E0043BD1022BC
:1084810090FEA0E4F0438F02E58F5420642070F841
:10849100538EEFE58E544070FA90FE917402F022F3
:1084F50090FE80E04410F05389CF758DF3758B8025
:0B850500D2AB43A9C0438840D2AF2294
:107B67009001EE12299C90FFA0741CF0A304F090E2
:107B770001EEE0F8A3E0F9A3E0FAA3E0FB7F407E83
:107B8700427D0F7C001228AFC374FF9FFF74FF9ED6
:107B9700FEE49DFDE49CFC78081229768F9D9001F8
:107BA700EEE0F8A3E0F9A3E0FAA3E0FB7F407E4212
:107BB7007D0F7C001228AFC374FF9FF59C759E1242
:0B7BC700759810D2AC43AA01D2AF2287
:1078BF009001EE12299C90FFA8741BF0A314F09076
:1078CF0001EEE0F8A3E0F9A3E0FAA3E0FB7F407E2E
:1078DF00427D0F7C001228AFC374FF9FFF74FF9E81
:1078EF00FEE49DFDE49CFC780812297690FE8DEF56
:1078FF00F09001EEE0F8A3E0F9A3E0FAA3E0FB7F3C
:10790F00407E427D0F7C001228AFC374FF9F90FE14
:10791F008EF090FE897412F090FE887410F0D2AE43
:06792F0043AA20D2AF22A2
:10855D0030FF13900000E4F0A3B582FAE583B40870
:06856D00F530FF02C2FF21
:0185730022E5
:106FCD009002CC7496F0D2101263A7900326E0FFC6
:106FDD00C3940574809480400AD3EF9419748094FF
:106FED00804006900326740DF0900323E0FFC394B8
:106FFD008274809480400AD3EF94AA748094804068
:10700D00069003237496F0900314E0FFC394057467
:10701D00809480400AD3EF94FA7480948040069057
:10702D0003147482F0900315E0FFC3940F748094E1
:10703D0080400AD3EF94B474809480400690031579
:10704D00745AF0900315E0FF9002CBE0FED39F50F1
:10705D000AEEC3940F7480948050069002CB745A3C
:10706D00F0900320E0FFC3940174809480400AD314
:10707D00EF94037480948040069003207402F09086
:09708D000310E070037417F022F7
:10803A0012848190FE927410F0127E3412857412AA
:10804A0084DA1284F57F007EC27D017C00127B6790
:10805A007F607E097D007C001278BF1285F512854B
:10806A005DE4F5F812843AD280D2C2D290D291D28B
:0D807A00CD126FCDE4FD7F7F7E900278482F
:107FEC0012803AC28312000E12845F126B7A123D19
:107FFC0075126B7A124D75200D051247EC80031229
:10800C00839B126A80126B7A1252C2126B7A120024
:10801C003E127219126B7A9003E9E0C39464748077
:0E802C00948050030080F0E49003E9F080B5EA
:1085B3000000000505000F0F000303020F0F08055D
:0285C3000505AC
:080003009003F7EFF0D2142284
:10721900301445C2149003F7E0FF75F003A424B3BA
:10722900F582E43485F583E4939003F5F0EF75F086
:1072390003A424B4F582E43485F583E4939003F838
:10724900F09003F7E075F003A424B5F582E43485E2
:10725900F583E4939003F6F09003F5E0D39400747A
:107269008094804004D215801CC2159003F6E0D3A7
:10727900940074809480403F9003F8E0D3940074A4
:107289008094804004E014F0229003F6E014F0A307
:10729900E0FF75F003A424B3F582E43485F583E4B3
:1072A900939003F5F0EF75F003A424B4F582E43468
:1072B90085F583E4938005E49003F5F09003F8F0F5
:0172C90022A2
:107EEE009003CCE06401704D9003EAE0704790027D
:107EFE00C6E0C3949674809480503A9003C8E00410
:107F0E00F0E0C3943C74809480402AE4F09003CA5D
:107F1E00E004F070069003C9E004F0C39003CAE0D9
:107F2E0094389003C9E09404400B7F0112000312B1
:067F3E007A1A12775022AE
:105D3A00900016E0FEA3E0FFD39003D0E09F90030B
:105D4A00CFE09E5003025EF0900014E030E20302BE
:105D5A005E84900037E064036003025E84FFFEFD08
:105D6A00FC90000FE0F8A3E0F9A3E0FAA3E0FBD36C
:105D7A001229655003025E84900016E0FEA3E0FF3C
:105D8A009003CFE0FCA3E0FD9FFFEC9E900018F08B
:105D9A00A3EFF0900016ECF0A3EDF090001AA3A385
:105DAA00E0FEA3E0FBAA069003D1A3A3E0FEA3E0D2
:105DBA00C39BFFEE9A90001EF0A3EFF09003D1E090
:105DCA00FCA3E0FDA3A3E0FF90001A12299C900017
:105DDA0020E0FEA3E0FF90031CE0FCA3E0FDC39FCC
:105DEA00FFEC9E900022F0A3EFF0900020ECF0A3CD
:105DFA00EDF09003C9E0FEA3E0FF7C007D3C122792
:105E0A00A79003C8E02FFFEC3E9001EEF0FCA3EF51
:105E1A00F0FD900024E0FEA3E0FFC3ED9FFFEC9E9F
:105E2A00A3F0A3EFF0900024ECF0A3EDF09003129E
:105E3A00E075F00384900028F09002CAE0FF900019
:105E4A0029E4F0A3EFF0E07F00FE900029F0A3EF31
:105E5A00F090031BE0FDEDFF900029EEF0A3EFF0B8
:105E6A0090035EE090002A7006E0547FF08004E020
:105E7A004480F0900014E04404F09003CFE0FEA3C5
:105E8A00E0FF7C007D641227B9AA06AB07C3900124
:105E9A006BE09B90016AE09A504C9003C9E0FEA324
:105EAA00E0FF7C007D3C1227A79003C8E02FFFEC9F
:105EBA003E9001EEF0FCA3EFF0FD90016CE0FEA332
:105ECA00E0FFC3ED9FFFEC9E900168F0A3EFF09016
:105EDA00016CECF0A3EDF090016AEAF0A3EBF0900C
:065EEA000014E04402F088
:015EF000228F
:106866009003CCE0FF7E0070149003CFE07002A38B
:10687600E060030269739003C6F0A3F022EF64019F
:106886004E6003026973900391E06003026973909E
:1068960002C6E0C3949674809480400302697390A4
:1068A6000317E0FEA3E0FF90031AE02FFF90031901
:1068B600E03E90031CF0A3EFF09003EAE0600302D1
:1068C6006973900312E0FF9003C7E02FF09003C6B0
:1068D600E03400F0D3A3E094389003C6E09404407B
:1068E600369003D0E004F070069003CFE004F090F9
:1068F60003C7E024C8F09003C6E034FBF0D390034E
:10690600D0E0940F9003CFE09427400B7F01120054
:1069160003127A1A1277509003C6E0FEA3E0FF7CBA
:10692600017D03122A4CE47B947A11F9F81228AF00
:10693600C004C005C006C0079003CFE0FEA3E0FF79
:106946007C067D12122A4CE47B19FAF9F81228AF5C
:10695600D003D002D001D000EF2BFFEE3AFEED3986
:0D696600FDEC38FC9003D112299C125D3A23
:016973002201
:107C3D009002CDE0FD7C00D3946474809480401953
:107C4D00ED249CFFEC34FFFE7D501227A71227B9BF
:107C5D0074642FFFE43EFE80079002CDE0FF7E00AE
:107C6D007C017D101227A71C7D0A1227B990031ED7
:107C7D00EEF0A3EFF0900324E0FEA3E0FF7C007D87
:107C8D000A1227A7EF2488FFE43EFE0C7D10122771
:067C9D00B9900312EFF0A4
:017CA30022BE
:10775000E49003C9F0A3F09003C8F09003CFF0A326
:10776000F09003CDF0A3F09003D11229A8000000FF
:1077700000E490031CF0A3F0900319F0A3F0900331
:107780000FF0900168F0A3F090016CF0A3F090016D
:107790006AF0A3F0900018F0A3F0900016F0A3F0A8
:1077A00090001EF0A3F090001A1229A8000000001B
:1077B000E4900022F0A3F0900020F0A3F0900026C7
:0E77C000F0A3F0900024F0A3F0900028F02237
:107A1A009003CDE0FEA3E0FFD39003D0E09F900354
:107A2A00CFE09E40599003DCE0F8A3E0F9A3E0FA26
:107A3A00A3E0FB9003D0E09FFF9003CFE09EFEE41B
:107A4A00FCFDEB2FFFEA3EFEED39FDEC38FC90031E
:107A5A00DC12299C9003CFE0FFA3E09003CDCFF086
:107A6A00A3EFF09003DCE0FCA3E0FDA3E0FEA3E0BB
:0F7A7A00FF9001FB12299C7F017E901281AC22AC
:10839B0090035EE0FF600964016005EF6403700603
:1083AB00127EEE126866127C3D301B05125B7D80DF
:0A83BB000312553C122BA4023257A6
:10851000C2AF75FDF075FC0F8EFA8FF975FDD2753F
:0B852000FC2D75FDE175FC1ED2AF22A2
:04784800AB07AA06DA
:10784C00E4FFEFC39480748094805015EF90900007
:10785C0093FE746E2FF582E43401F583EEF00F8005
:10786C00E17F007E90128510746E2BF58274713A54
:10787C00F583EDF0C2AFEFC3948074809480502EEA
:10788C00EF2400FBE43490FA746E2FF582E434019B
:10789C00F583E0F5FB75FDF075FC0F8AFA8BF97535
:1078AC00FDB475FC4B75FDE175FC1E0F80C8D2AFA5
:0278BC007F014A
:0178BE0022A7
:0881AC009001F9EEF0A3EFF0E1
:1081B400E49001FFF09001FFE0C394047480948084
:1081C400502BE0FDFF9001FAE02FFF9001F9E0341D
:1081D40000FE7C007B0174FB2DF9EC3401FA1227BC
:0D81E4002DFD1278489001FFE004F080C8E6
:0181F100226B
:0E8087009001F9EEF0A3EFF0A3ECF0A3EDF002
:10809500E4A3F09001FDE0C3940274809480502B1A
:1080A500E0FDFF9001FAE02FFF9001F9E03400FEBA
:1080B5007C007B0174FB2DF9EC3401FA12272DFDB0
:0B80C5001278489001FDE004F080C834
:0180D000228D
:1063A700909002E4937E007810C333CE33CED8F9B1
:1063B700FDAC06909001E4937E007818C333CE338A
:1063C700CED8F9FFEE4CFCEF4DFD909003E4934CD3
:1063D700FEEDFFA3E493FDEF4DFFEE3395E0FDFCEB
:1063E7009003DC12299C909006E493900323F0908D
:1063F7009007E493900314F0909008E49390032699
:10640700F090900BE49390035EF06403700204F045
:1064170090900CE4939002CBF090900DE49390034E
:1064270015F090900EE49324FF920CA3E49390034D
:1064370020F0909010E49324FF920DA3E49324FF9F
:10644700920FA3E49324FF9209A3E493900310F01F
:10645700909014E493900316F0909015E493FEA3A4
:10646700E493FDEDFF9002F2EEF0A3EFF0909017AA
:10647700E493FEA3E493FDEDFF90002BEEF0A3EF72
:10648700F090901AE4937E007810C333CE33CED8C1
:10649700F9FDAC06909019E4937E007818C333CECB
:1064A70033CED8F9FFEE4CFCEF4DFD90901BE493F3
:1064B7004CFEEDFFA3E493FDEF4DFFEE3395E0FDBA
:1064C700FC90002D12299C90901DE493FEA3E49369
:1064D700FDEDFF900031EEF0A3EFF090901FE493F5
:1064E700FEA3E493FDEDFF900033EEF0A3EFF0225F
:107935009001EE7490F0A3E4F09001EEE0FEA3E078
:10794500FFC39406EE94905015E4FD12784890011B
:10795500EFE004F070E39001EEE004F080DB9001CD
:10796500EE7490F0A3740BF09001EEE0FEA3E0FF3F
:10797500D3947DEE94905015E4FD1278489001EF74
:10798500E004F070E39001EEE004F080DB7D017F20
:107995000B7E901278487F107E901278481D7F7F6D
:0579A5007E900278480D
:103D75001285D79001EE12299C9003AAE0FF640AF0
:103D85006008EF640B6003023E3D9003AAE0FF7EEE
:103D9500007C007D141227A7C374E69FFFE49EFEF6
:103DA5003395E0FDFCE47B3CFAF9F81228249003F6
:103DB500A5E0F8A3E0F9A3E0FAA3E02FFFEA3EFEB1
:103DC500E93DFDE83CFCC004C005C006C007E47B36
:103DD500887A13F9F89001EEE0FCA3E0FDA3E0FE7C
:103DE500A3E0FF1228AF90000FE0F8A3E0F9A3E0ED
:103DF500FAA3E02FFBEA3EFAE93DF9E83CF8D007E3
:103E0500D006D005D004C312296550030240B8E49A
:103E1500FD7F237E901278489001FB1229A80000AF
:103E250000007F247E901281AC75FDF075FC0F7546
:103E3500FD7875FC870240B89003A5E0FCA3E0FD82
:103E4500A3E0FEA3E024E0FFEE3493FEED3404FD91
:103E5500E43CFC9001EEE0F8A3E0F9A3E0FAA3E06E
:103E6500FBC312296550030240509001EEE0FCA30C
:103E7500E0FDA3E0FEA3E0FF9003A512299C9003BB
:103E8500ABE0FEA3E0FBAA06E4F9F8900393E0FC9F
:103E9500A3E0FDA3E0FEA3E0FF1228AF9003A9E095
:103EA50024ADF582E43403F583EFF09003ABE0FE37
:103EB500A3E0FBAA06E4F9F89003A1E0FCA3E0FD6A
:103EC500A3E0FEA3E0FF1228AF9003A9E0FB25E0E5
:103ED5002497F582E43403F583EEF0A3EFF0900325
:103EE500931229A8000000009003A11229A8000040
:103EF5000000EB2401FFE433FE7C007D051227B9A9
:103F05009003A9EDF0E4FFEFC3940574809480500D
:103F15003974AD2FF582E43403F583E0FD90039405
:103F2500E02DF0900393E03400F0EF25E02497F5C1
:103F350082E43403F583E0FCA3E0FD9003A2E02DC9
:103F4500F09003A1E03CF00F80BD900393E0FEA349
:103F5500E0FF7C007D051227B9900393EEF0A3EFF7
:103F6500F09003A1E0FEA3E0FF7C007D051227B9D8
:103F75009003A1EEF0A3EFF0D39003A2E094889014
:103F850003A1E09413500E900394E0941E900393C4
:103F9500E094004015C39003CAE094789003C9E00B
:103FA500940040069003AA740AF09003AAE0640AFC
:103FB500600302403D9003A5E0FCA3E0FDA3E0FE05
:103FC500A3E0FFE47B887A13F9F81228AF9003A5E4
:103FD50012299CE4FFFEFDFC90000FE0F8A3E0F938
:103FE500A3E0FAA3E0FBD3122965404C9003A5E0BA
:103FF500FCA3E0FDA3E0FEA3E0FF90000FE0F8EFD7
:104005002BFFEE3AFEED39FDEC38FC9003A51229A5
:104015009C9003AAE0FD7F237E901278489003A52B
:10402500E0FCA3E0FDA3E0FEA3E0FF9001FB122965
:104035009C7F247E901281ACE4900393F0A3F090D2
:1040450003A1F0A3F09003ABF0A3F0900393E0F885
:10405500A3E0F9A3E0FAA3E0FB90031BE0FFE4FC77
:10406500FDFEEB2FFFEE3AFEED39FDEC38FC90033B
:104075009312299C9003A1E0F8A3E0F9A3E0FAA329
:10408500E0FB90031BE0FF9002CAE08FF0A4FFE481
:10409500FCFDEB2FFFEA35F0FEED39FDEC38FC9029
:1040A50003A112299C9003ACE004F070069003ABC9
:1040B500E004F0300A0990030DE4F0A37480F020C9
:1040C5001C1790030DE07002A3E0701A900299E0AE
:1040D500D3940074809480500D9003AAE0C3940A91
:1040E50074809480407890030DE0FEA3E0FF30E7F4
:1040F500089003AA7401F08049EF30E0089003AA04
:104105007402F0803DEF30E3089003AA7403F08059
:1041150031EF30E2028004EF30E1089003AA740524
:10412500F0801FEF30E4089003AA7406F080139026
:104135000299E0D394007480948040069003AA7499
:1041450008F09003AAE06023900392E0701D9000B0
:1041550014E04410F07F04120003C280800D900328
:1041650092E06007E49003AAF0D2809003AAE09061
:034175000392F0C2
:014178002224
:10833B004525303264004C005200574149540054DB
:10834B00455354004E4554004F4B0045525200527A
:10835B00554E0053544F500046414E00454E44007D
:107BD200900037E0B407005061907BE2F8282873E8
:107BE200027C0D027C10027BF7027BF7027C1802FA
:107BF2007C10027C319003FA7406F0FD7F7D7E904A
:107C0200127848900014E04401F022C2CD227DC8CF
:107C12007C007F64801F9001F87403F0A37420F04D
:107C22007B647A007DC87C007F647E000272CA7D1C
:0B7C3200207C037FC87E00127F4422EC
:106627001283009003E7E0FEA3E0FF4E70030267CA
:1066370049301703026749D217EF64014E600BEF29
:106647007003EE641060030267167F01120003D225
:1066570017E4FF1285C59003FAE0FB24FC601824B9
:10666700FC603524FE603F24077064D280D2C2D21A
:1066770090D291D2CD8058E4900391F09003110409
:10668700F09002C874B4F0900014E04408F0E4906D
:106697000037F09003EB8034900312E060319003F1
:1066A700117402F080299003DC1229A80000000071
:1066B70090031574B4F09003207402F0D210900286
:1066C700CC7496F0E49003D5F09003D6F0A3F020B5
:1066D7001B70EBFF6405606AEF64066005EF6407F3
:1066E700701B9003E7E0B4101AA3E0B40015900301
:1066F700FAE0FFC374089FFFE02FF080069003FACB
:10670700E004F09003FAE0FD7F7D7E9002784890E8
:1067170003FAE0FF7E00C39405748094804023D37E
:10672700EF94077480948050199003E7E0B4011246
:10673700A3E0B4030D7F01120003D21B9003D574AD
:0367470006F02237
:1047EC009003AAE06051E4FF1285C57BFF7A8379C0
:1047FC003B9003AAE0FF9001FBE4F0A3EFF0E4FF91
:10480C00127D0B9003AAE064086003024AB5900283
:10481C0099E0FF7E00C39403748094804003024AA5
:10482C00B5EF64017BFF70067A83794180047A834B
:10483C0079437D0102498C301B05125B7D802590EC
:10484C0003FAE0640B700512553C80189003FAE0F3
:10485C00700FD39003ECE094039003EBE0940040D2
:10486C00031266279003FAE0B40C004003024AB529
:10487C00904883F82828730248A7024964024973B8
:10488C0002498F02499F0249EB0249EB0249EB02B4
:10489C004A72024A89024AA50249E39003EBE0708E
:1048AC0002A3E0706C9003EAE064017064C21090A3
:1048BC0002CCF0FF1285C5D280D2C2D290D291D256
:1048CC00CDC21D90907DE493FF9003F9F07E00C360
:1048DC00940574809480401FD3EF94077480948067
:1048EC005015EF64056003024AB5900014E04408CB
:1048FC00F0E4900037F0229003F9E0C3940A74803E
:10490C0094804006127935026FCD9003FA7401F051
:10491C0022C39003ECE094039003EBE09400502549
:10492C00E4FF1285C57BFF7A837945E4FD125EF1C5
:10493C009003EBE0FEA3E0FFC374039FFFE49EFE35
:10494C007D0102852B9003F9E0A3F0900311740113
:10495C00F09002C874B4F022E4FF1285C57BFF7A94
:10496C0083794AE4FD8019E4FF1285C59002C7E003
:10497C00FF7E007D0112852B7BFF7A4479FCE4FDE0
:10498C00025EF17FFF1285C5C280C2C2C290C29185
:10499C00C2CD22E4FF1285C5E47B64FAF9F89002DB
:1049AC005CE0FCA3E0FDA3E0FEA3E0FF1228AFE473
:1049BC009001F6F01283C5E47B64FAF9F890029149
:1049CC00E0FCA3E0FDA3E0FEA3E0FF1228AF900102
:1049DC00F67401F00283C5127C3D122BA4800F12D9
:1049EC007C3D90035E7401F0127E91301B03023209
:1049FC0057E4FF1285C59003FAE06405702C7BFF29
:104A0C007A83794FFD125EF1127BD2D39003ECE0E6
:104A1C00943C9003EBE0940040399003FA7407F057
:104A2C00FD7F7D7E9012784880299003FAE0640621
:104A3C0070087BFF7A83795380159003FAE0640742
:104A4C007BFF70067A83795680057A83795AE4FD68
:104A5C00125EF19002C8E0FF7E007C007D031227FD
:104A6C00B97D0102827C7BFF7A83795EE4FD125E64
:104A7C00F1127C3D9003917401F0027E917BFF7AE0
:104A8C00837963E4FD125EF17BFF7A83794A7D01C1
:104A9C00125EF1201D13D21D227BFF7A837967E40D
:094AAC00FD125EF1301D02C21D75
:014AB50022DE
:107F99009003AAE0FD640A6005ED640B70037F0B92
:107FA90022300D1FC39003D0E0940A9003CFE094D0
:107FB90000400D900312E0FE941E74809480501AC4
:107FC900E4FF22301D037F0B22900312E0FEC394CD
:107FD9001E748094805003E4FF22EE75F01E842401
:027FE90005FF92
:017FEB002273
:106E320025642E25640025642E25303264002564E5
:106E420000256C640001032701033E17193E4141EE
:106E5200413E00217F0100214345493122414949F8
:106E6200360C14247F04725151514E3E4949492631
:106E720040404F50603649494936324949493E1FE0
:106E82002848281F7F494949363E414141227F41D6
:106E920041413E3E494949413F484848403E4149B7
:106EA200492E7F0808087F00417F41000601010149
:106EB2007E7F081422417E010101017F2010207F84
:106EC2007F2010087F3E4141413E3F484848303CC8
:106ED2004246433C3F484C4A3132494949264040A8
:106EE2007F40407E0101017E7C0201027C7F020C18
:106EF200027F631408146360100F10604345495108
:016F0200612D
:1085C5009000307B017A037927AD07AE83AF820235
:0285D5002B6217
:0E5EF100900226EBF0A3EAF0A3E9F0A3EDF097
:105EFF00E490022DF0900229E075F003A42447F5F9
:105F0F0082E4346EF583E493F9740193FA74029387
:105F1F0090022EC9F0A3EAF0A3E9F0900226E0F96F
:105F2F00A3E0FAA3E090022AC9F0A3EAF0A3E9F0F4
:105F3F0090022AE0FBA3E0FAA3E0F912272D602CD0
:105F4F00642E600C12272DFF643A6004EFB4200911
:105F5F0090022DE02402F0800790022DE02406F03D
:105F6F0090022BE475F00112280E80C490022DE0F0
:105F7F0014F0900229E0906E4D93FF90022DE0FEF9
:105F8F00C3EF9EC313F0900226E0F9A3E0FAA3E05B
:105F9F0090022AC9F0A3EAF0A3E9F090022AE0FBED
:105FAF00A3E0FAA3E0F912272DFF700302609DB45E
:105FBF002E1890022EE0FBA3E0FAA3E0F990022D39
:105FCF00E0F58275830074018035EFB43A189002C2
:105FDF002EE0FBA3E0FAA3E0F990022DE0F5827525
:105FEF00830074148019EFB4202190022EE0FBA3DC
:105FFF00E0FAA3E0F990022DE0F582758300E41238
:10600F00278590022DE02402F08076EFC394414063
:10601F000CEFD3945A5006EF24C9FF8010EFC394AE
:10602F0030405EEFD39439505874D02FFFEF75F096
:10603F0005A4244FF9746E35F0FA7BFFC003C0023C
:10604F00C001900229E075F003A42447F582E434DF
:10605F006EF583E493FB740193FA740293F9900243
:10606F002DE0FF7E00E92FF9EE3AA801FCAD03D039
:10607F0001D002D0037F0512270790022DE02406DE
:0E608F00F090022BE475F00112280E025FAAB9
:01609D0022E0
:10827C009001F2EEF0A3EFF0AF05C0079001F2E031
:10828C00FAA3E0FB7C007D0AFFAE021227B9900135
:10829C00FBEEF0A3EFF07C007D0AAF03AE021227D9
:1082AC00B9A3ECF0A3EDF07BFF7A6E7932D0070224
:0282BC007D0B38
:1082BE009001F2EEF0A3EFF0AF05C0079001F2E0EF
:1082CE00FAA3E0FB7C007D64FFAE021227B9900199
:1082DE00FBEEF0A3EFF07C007D64AF03AE0212273D
:1082EE00B9A3ECF0A3EDF07BFF7A6E7938D00702DC
:0282FE007D0BF6
:10852B008F828E83AF057BFF7A6E7940AC83AD82F1
:0B853B009001FBECF0A3EDF0027D0BC3
:1083C5009001F212299C7BFF7A6E79439001F2E0CD
:1083D500FCA3E0FDA3E0FEA3E0FF9001FB12299CB6
:0883E5009001F6E0FF027D0BA0
:0E7D0B009001F7EFF0A3EBF0A3EAF0A3E9F08C
:107D19009002237401F0A37401F0A374FBF09001A5
:107D2900F8E0F9A3E0FAA3E0900226C9F0A3EAF08B
:107D3900A3E9F0900223E0F9A3E0FAA3E090022975
:107D4900C9F0A3EAF0A3E9F07B017A03795712801D
:107D5900D1900223E4F0A3F0A3F07B017A037957D1
:087D69009001F7E0FD025EF15C
:10836B00ED906E4D93FF7E00C003C002ED75F003E0
:10837B00A42447F582E4346EF583E493FB740193F4
:10838B00FA740293F8AC02AD03D002D003022707B4
:0E7F44009001F2EEF0A3EFF0A3ECF0A3EDF04D
:107F52001285D7E47B05FAF9F81228AFC006C007EC
:107F62009001F4E0FEA3E0FF9001F3E02FFF900107
:107F7200F2E03EAB07FAE4F9F8D007D0061228AFD8
:107F8200AE02AF03D39001F3E09F9001F2E09E4076
:067F920003C2CD22D2CD96
:017F980022C6
:1072CA009001F2EEF0A3EFF0A3ECF0A3EDF0A3EA45
:0472DA00F0A3EBF042
:1072DE001285D7E47B05FAF9F81228AFC004C00571
:1072EE00C006C0079001F8E0FEA3E0FF9001F3E0B6
:1072FE002FFD9001F2E03EFC9001F7E02DFD900194
:10730E00F6E03CCD2FFFED3EAB07FAE4F9F8D007DF
:10731E00D006D005D0041228AFAE02AF03D3900131
:10732E00F3E09F9001F2E09E502E9001F4E0FCA35A
:10733E00E0FD9001F3E02DFD9001F2E03CFCC3EF87
:10734E009DEE9C40169001F7E02DFD9001F6E03C7D
:0D735E00FCC3EF9DEE9C5003C2CD22D2CDAA
:01736B0022FF
:106B7A009003E7E07002A3E06006201703026C723C
:106B8A009003E3E0FFA3E0A3CFF0A3EFF0E49003C8
:106B9A00E3F0A3F090FF18E0540FF07F64EFD39472
:106BAA00007480948040031F80F320B1099003E3AE
:106BBA007410F0A3E4F090FF18E04480F09003E32F
:106BCA00E0FEA3E0FFD39400EE94004061A3E06EE0
:106BDA007003A3E06F70579003E1E004F070069031
:106BEA0003E0E004F0E49003E2F09003E0E0FEA3A7
:106BFA00E0FFC39406EE9400406E9003E3E0FCA32A
:106C0A00E0FD7003EC641060099003E7ECF0A3ED7B
:106C1A00F022D3EF94C2EE940140109003E774116E
:106C2A00F0A3E4F09003E0F0A38018D216229003B8
:106C3A00E3E07002A3E0703030160C9003E77410A2
:106C4A00F0A3E4F0C21622E49003E0F0A3F0A3E07C
:106C5A0004F0E0D3941374809480400C7464F0C2FE
:086C6A0017E49003E7F0A3F02A
:016C720022FF
:108300009003E7E07002A3E0701B9003E3E07002CB
:10831000A3E07011127AF89003E7EEF0A3EFF04EAD
:108320006018C21722127AF8BE010FBF030CC217E1
:0B8330009003E77411F0A37401F02229
:104179006F66666C696E65006C6F63616C00636C79
:104189006F7564007570646174696E67007561703C
:1041990000756E70726F76002225732220002564E7
:1041A9002000256C64200025642E256420006765A5
:1041B900745F646F776E00726573756C7420257314
:1041C90000226F6B220070726F7073200074696D2A
:1041D900652025642000737461746520222573228B
:1041E900200072756E0073746F700073706565647A
:1041F9002000706F776572202225732220006F6678
:1042090066006F6E006D6F64652025642074797097
:10421900652022257322200066697865640061752E
:10422900746F006469737420256C642063616C2069
:10423900256C6420007374657020256420007374F4
:104249006F7265206D702025642025642025640027
:1042590073746F726520706F696E7420225F6F7658
:104269006572726964655F74696D652220256C6485
:1042790020256420256420256420256420256420C8
:1042890025642025642025642025640073746F72D9
:104299006520706F696E7420225F6F76657272692E
:1042A90064655F74696D652220256C64202564202E
:1042B900256420256C64202564202564202564203C
:1042C9002564202564202564002573202573006D4D
:1042D90063755F76657273696F6E20257300726509
:1042E90073746F726500636F6D6D616E64006572E2
:1042F900726F72006572726F722022756E6B6E6FCB
:10430900776E20257322202564006E65740066612E
:1043190063746F7279006576656E74206572726F69
:104329007220256400626C655F636F6E6669672041
:1043390064756D7000626C655F636F6E6669672096
:10434900736574203333312025730074696D6520DA
:10435900706F73697800646F776E006E6F6E6500B9
:104369006765745F70726F70006D6F646500746962
:104379006D650073700073706565640064697374BA
:104389000063616C007374657000616C6C00226D70
:104399006F64653A2564222C2274696D653A256437
:1043A900222C2273703A25642E2564222C226469FA
:1043B90073743A256C64222C2263616C3A256C640F
:1043C900222C22737465703A256422006275747414
:1043D9006F6E5F69640073746172745F7370656591
:1043E9006400676F616C006D61780073656E736955
:1043F900746976697479006572726F725F696400B5
:104409006C6F6700227B25642C25642C256C642C39
:10441900256C642C256C642C256C642C25642C2556
:10442900642C25642C256C647D220D0064697370ED
:1044390000696E697469616C006C6F636B007573F8
:104449006572737461746500747970650073746161
:10445900746500706F776572002D31007365745F44
:104469000063616C6900256420256400696E7375B9
:104479007265007570007475746F7269616C004DB6
:1044890049494F5F6D63755F76657273696F6E5FDA
:10449900726571004D49494F5F6D6F64656C5F725C
:1044A9006571004D49494F5F6E65745F6368616E60
:1044B9006765007570646174655F6677005550447F
:1044C900410054494E47005B2270726F64756374F2
:1044D900206964223A3333312C006D6F64656C00B6
:1044E9006B736D622E77616C6B696E677061642E98
:0B44F90076310030303433006F6B0070
:106F050060640104000000000000000000000000B3
:106F1500000000000000000000000000000000006C
:106F2500000000000000000000000000000000005C
:106F3500000000000000000000000000000000004C
:106F4500000000000000000000000000000000003C
:106F5500000000000000000000000000000000002C
:086F6500000000000000000024
:1064F7009001F9EBF0A3EAF0A3E9F09001FF74FF34
:10650700F0A37441F0A37479F0A3E4F0A37407F047
:106517009001F9E0FBA3E0FAA3E0F91276C9EF33A3
:1065270095E04F700690003704F0229001FF74FF4A
:10653700F0A37441F0A37481F0A3E4F0A37405F011
:106547009001F9E0FBA3E0FAA3E0F91276C9EF3373
:1065570095E04F70079000377402F0229001FF74A6
:10656700FFF0A37441F0A37487F0A3E4F0A37405CC
:10657700F09001F9E0FBA3E0FAA3E0F91276C9EF86
:106587003395E04F70079000377403F0229001FFB6
:1065970074FFF0A37441F0A3748DF0A3E4F0A37427
:1065A70008F09001F9E0FBA3E0FAA3E0F91276C93D
:1065B700EF3395E04F70079000377404F022900195
:1065C700FF74FFF0A37441F0A37496F0A3E4F0A363
:1065D7007403F09001F9E0FBA3E0FAA3E0F9127667
:1065E700C9EF3395E04F70079000377405F022909C
:1065F70001FF74FFF0A37441F0A3749AF0A3E4F0D1
:10660700A37406F09001F9E0FBA3E0FAA3E0F91206
:1066170076C9EF3395E04F70069000377406F02285
:106C73009001F112280E9001F0E0FBA3E0FAA3E0EB
:016C8300F917
:0B6C84009001F9EBF0A3EAF0A3E9F0A7
:106C8F0012272DB4220A9001FAE475F00112280E92
:106C9F009001F9E0FBA3E0FAA3E0F9126D57900120
:106CAF00FCEEF0A3EFF07C007D0A1227A79001FC09
:106CBF00EEF0A3EFF09001F9E0FBA3E0FAA3E0F907
:106CCF007D2E1284BE9001F9EBF0A3EAF0A3E9F058
:106CDF004A605B9001F9E0FBA3E0FAA3E0F99000B2
:106CEF0001122746FF1285E650449001F9E0FBA3FD
:106CFF00E0FAA3E0F990000112274624D0FFE43414
:106D0F00FFFE9001FDE02FF09001FCE03EF09000BF
:106D1F0002122746FFC394354014EFD39439500E17
:106D2F009001FDE004F070069001FCE004F0C390C8
:106D3F0001FCE0648094805004E4F0A3F09001FC27
:076D4F00A3E075F003A4FFAF
:016D5600221A
:10816400E490002BF0A3F0A31229A800000000E47F
:10817400900031F0A3F0A3F0A3F0FDFC7F177E90F4
:108184001280879001FB1229A8000000007F197E4D
:10819400901281ACE4FDFC7F1D7E90128087E4FD8B
:0881A400FC7F1F7E9002808722
:107D71009001FCEBF0A3EAF0A3E9F09001F3E0FB42
:067D8100A3E0FAA3E0F903
:107D87009001F9EBF0A3EAF0A3E9F090022F74FF5A
:107D9700F0A37441F0A374A1F09001FCE0F9A3E013
:107DA700FAA3E0900232C9F0A3EAF0A3E9F0900148
:107DB700F9E0FBA3E0FAA3E0F91239579001F9E0E3
:0C7DC700FBA3E0FAA3E02FF9EA3EFA2249
:0A811B007B017A017904E0FD7C008D
:108125009001F9EBF0A3EAF0A3E9F090022F74FFB8
:10813500F0A37441F0A374A7F0AF05A3ECF0A3EF8F
:10814500F09001F9E0FBA3E0FAA3E0F912395790AA
:0F81550001F9E0FBA3E0FAA3E02FF9EA3EFA22DA
:0B81F2009001F3E0FBA3E0FAA3E0F92A
:1081FD009001F9EBF0A3EAF0A3E9F090022F74FFE0
:10820D00F0A37441F0A374ABF0A312299C9001F973
:10821D00E0FBA3E0FAA3E0F91239579001F9E0FB76
:0B822D00A3E0FAA3E02FF9EA3EFA22DA
:057A8900900315E0FD73
:107A8E009001F9EBF0A3EAF0A3E9F0A3EDF0900278
:107A9E002F74FFF0A37441F0A374B0F0EDFB7C00E3
:107AAE007D1EFF7E001227B9A3EEF0A3EFF07C003F
:107ABE007D1EAF037E001227B97E007F03CFCDCF90
:107ACE00CECCCE1227B9A3EEF0A3EFF09001F9E0E1
:107ADE00FBA3E0FAA3E0F91239579001F9E0FBA3FA
:0A7AEE00E0FAA3E02FF9EA3EFA22C5
:10763E001285D7E47B887A13F9F81228AF90000FE1
:10764E00E0F8A3E0F9A3E0FAA3E02FFFEA3EFEE99B
:10765E003DFDE83CFC9001F912299C900000E0FCF5
:10766E00A3E0FDA3E0FEA3E0FF9001F9E0F8A3E0A4
:10767E00F9A3E0FAA3E0FBD312296540109001F9BB
:10768E00E0FCA3E0FDA3E0FEA3E0FF801990000064
:10769E00E0FCA3E0FDA3E0FEA3E02401FFE43EFE38
:1076AE00E43DFDE43CFC90000012299C900000E0BB
:0A76BE00FCA3E0FDA3E0FEA3E0FF43
:0176C800229F
:10003E00900015E064016003020777900014E0FF62
:10004E0030E0099000367404F002015CEF30E309F1
:10005E00900036740DF002015C900036E0600302F1
:10006E000157900014E030E40C54EFF09000367419
:10007E000EF002015C900014E030E50C4404F090A8
:10008E000036740CF002015C900014E0FF30E209BF
:10009E00900036740BF002015CEF30E10F54FD90CE
:1000AE000014F0900036740AF002015C900037E004
:1000BE00FF7E0070099000367409F002015C900317
:1000CE00C8E0FD900004E0B50518900312E0FD9025
:1000DE000006E0B5050C90035EE0FD900005E06DB6
:1000EE00600EEF64034E70089000367405F0805E6B
:1000FE00900037E064037034FFFEFDFC90000FE0CB
:10010E00F8A3E0F9A3E0FAA3E0FBD31229654003BC
:10011E00D38001C35007900014E030E60F90001416
:10012E00E054BFF09000367411F08022900103E08D
:10013E0004F0E0D394187480948050030220AEE44F
:10014E00F09000367406F08005E4900103F0900004
:10015E0035E060030220AE90009FF0900036E01470
:10016E00B41100400302073190018475F003A4C559
:10017E008325F0C583730205EE0205FD02062502F6
:10018E0006410201F50201B70201C602065002063F
:10019E00B70204920204CF02056D0206C50206D311
:1001AE000206EF0206FD020722789F7C007D017B8E
:1001BE00FF7A4179B702072E900104E090022F706A
:1001CE001974FFF0A37441F0A374C0F0A374FFF090
:1001DE00A37441F0A374CA0207167401F0A374014C
:1001EE00F0A3740402071690022F74FFF0A374415B
:1001FE00F0A374CFF07B017A00799F123957749F68
:10020E002FF974003EFA9001F07401F0A3EAF0A306
:10021E00E9F0900004E0FF9003C8E0FE6F604890A4
:10022E000004EEF090022F74FFF0A37441F0A3745B
:10023E00D6F09003C9E0FEA3E0FF7C007D3C1227C0
:10024E00A79003C8E02FFFEC3E900232F0A3EFF030
:10025E009001F0E0FBA3E0FAA3E0F9123957900108
:10026E00F1EE8FF012280E900006E0FF900312E0E0
:10027E00FE6F700302031FEE6003EF704990022FB2
:10028E0074FFF0A37441F0A374DFF0900312E0D377
:10029E009400748094807BFF40067A4179EB800451
:1002AE007A4179EF900232EBF0A3EAF0A3E9F090F5
:1002BE0001F0E0FBA3E0FAA3E0F91239579001F147
:1002CE00EE8FF012280E900312E0900006F09002CE
:1002DE002F74FFF0A37441F0A374F4F09001F0E0DA
:1002EE00FBA3E0FAA3E0F91239579001F1EE8FF07B
:1002FE0012280E9001F0E0FBA3E0FAA3E0F99003C0
:10030E0012E0FD127A8E9001F0EBF0A3EAF0A3E971
:10031E00F0900005E0FF90035EE0FE6F70030203B5
:10032E00CCEE64026005EF6402704490022F74FFFD
:10033E00F0A37441F0A374FBF090035EE064027BC3
:10034E00FF70067A42790780047A42790B90023266
:10035E00EBF0A3EAF0A3E9F09001F0E0FBA3E0FAE2
:10036E00A3E0F91239579001F1EE8FF012280E909A
:10037E00035EE0FF900005F090022F74FFF0A3746F
:10038E0042F0A3740EF0A3E4F0A3EFF064017BFF40
:10039E0070067A42792180047A427927900234EBF2
:1003AE00F0A3EAF0A3E9F09001F0E0FBA3E0FAA3DA
:1003BE00E0F91239579001F1EE8FF012280E9000ED
:1003CE0007E0FEA3E0FF9003CFE06E7003A3E06FA3
:1003DE00605D9003CFE0FEA3E0FF900007EEF0A378
:1003EE00EFF090022F74FFF0A37442F0A3742CF080
:1003FE007C007D0A122A4CA312299CE47F0AFEFD82
:10040E00FC9003D1E0F8A3E0F9A3E0FAA3E0FB121D
:10041E00282490023612299C9001F0E0FBA3E0FA0A
:10042E00A3E0F91239579001F1EE8FF012280E90D9
:10043E000009E0FEA3E0FF90031CE06E7003A3E052
:10044E006F700302073190031CE0FEA3E0FF9000E3
:10045E0009EEF0A3EFF090022F74FFF0A37442F0B8
:10046E00A3743EF0A3EEF0A3EFF09001F0E0FBA337
:10047E00E0FAA3E0F91239579001F1EE8FF012284D
:10048E000E02073190022F74FFF0A37442F0A37492
:10049E0047F0900168E0FFA3E0900232CFF0A3EFA7
:1004AE00F090016AE0FFA3E0900234CFF0A3EFF0EA
:1004BE0090016CE0FFA3E0900236CFF0A3EF0207AD
:1004CE001612763E90023212299C90022F74FFF083
:1004DE00A37442F0A37459F0900016E0FFA3E090CD
:1004EE000236CFF0A3EFF0900018E0FFA3E09002E9
:1004FE0038CFF0A3EFF090001EE0FFA3E090023A99
:10050E00CFF0A3EFF0900020E0FFA3E090023CCFED
:10051E00F0A3EFF0900022E0FFA3E090023ECFF0B8
:10052E00A3EFF0900024E0FFA3E0900240CFF0A3F1
:10053E00EFF0900026E0FFA3E0900242CFF0A3EF91
:10054E00F0900028E0FF900244E4F0A3EFF090005A
:10055E0029E0FFA3E0900246CFF0A3EF02071612A8
:10056E00763E90023212299C90022F74FFF0A374F3
:10057E0042F0A37495F090002BE0FEA3E0FF9002F2
:10058E0036EEF0A3EFF0A3EEF0A3EFF090002DE027
:10059E00FCA3E0FDA3E0FEA3E0FF90023A12299C2B
:1005AE00900031E0FEA3E0FF90023EEEF0A3EFF0EC
:1005BE00A3EEF0A3EFF0900033E0FEA3E0FF900275
:1005CE0042EEF0A3EFF0A3EEF0A3EFF0E4A3F0A35E
:1005DE00F07B017A00799F1239571281640207313C
:1005EE00789F7C007D017BFF7A4479E302072E9091
:1005FE00022F74FFF0A37442F0A374D2F0A374FF21
:10060E00F0A37444F0A374E3F0A374FFF0A3744456
:10061E00F0A374E902071690022F74FFF0A3744240
:10062E00F0A374D8F0A374FFF0A37444F0A374FC89
:10063E00020716789F7C007D017BFF7A4279E702E4
:10064E00072E90000BE0FEA3E0FFBEEC13BF771069
:10065E009001F074FFF0A37442F0A374EFF0800EDB
:10066E009001F074FFF0A37442F0A374F7F09002BF
:10067E002F74FFF0A37442F0A374FDF09001F0E02C
:10068E00F9A3E0FAA3E0900232C9F0A3EAF0A3E9DD
:10069E00F0A3EEF0A3EFF07B017A00799F123957A9
:1006AE00E490000BF0A3F0807A789F7C007D017BB4
:1006BE00FF7A4379138069789F7C007D017BFF7AF6
:1006CE00437917805B90022F74FFF0A37443F0A35D
:1006DE00741FF09003AAE0FF900232E4F0A3EF80C3
:1006EE0027789F7C007D017BFF7A43792E803190A5
:1006FE00022F74FFF0A37443F0A3743EF0A374FFB3
:10070E00F0A37444F0A374FCF07B017A00799F127D
:10071E003957800F789F7C007D017BFF7A43795497
:10072E00122B459000157402F07B017A00799F120E
:10073E00858A90000DEFF0E0FF04F0749F2FF58294
:10074E00E43400F583740DF0900036E0900035F03F
:10075E00E4A3F0900013F0E0FF04F0749F2FF582F5
:10076E00E43400F583E0F59922900015E064026010
:10077E000302209D201803022073900103F0C2187B
:10078E00900035E014B4110040030220669007A9D2
:10079E0075F003A4C58325F0C58373021E01021EE6
:1007AE002D021E5D021E8D021DC90207DC021DC92F
:1007BE00022066021ED0021DC9021DC2021DF402D5
:1007CE001EDC021DC9021EEC021F4D021F7DE490AD
:1007DE000104F09001FF74FFF0A37443F0A3745F63
:1007EE00F0A3E4F0A37404F07B017A00793B127657
:1007FE00C9EF3395E04F6003021D9C7B017A0079AF
:10080E00409001F004F0A3EAF0A3E9F09001FF7428
:10081E00FFF0A37443F0A37464F0A3E4F0A3740494
:10082E00F01276C9EF3395E04F7003022066900107
:10083E00FF74FFF0A37443F0A37469F0A3E4F0A374
:10084E007408F09001F0E0FBA3E0FAA3E0F9127651
:10085E00C9EF3395E04F60030211A79001F175F0D7
:10086E000A12280E9001F37401F0A37401F0A37420
:10087E0004F09001F0E0FBA3E0FAA3E0F912858A00
:10088E009001F0E0FBA3E0FAA3E02FF9EA3EFA9024
:10089E0001F60211749001F6E0FBA3E0FAA3E0F971
:1008AE00C003C002C0019001F0A3E0FAA3E0F9C3B7
:1008BE00D082D083D0E0E99582EA95834003021D71
:1008CE00849001FF74FFF0A37443F0A37472F0A33D
:1008DE00E4F0A37404F09001F0E0FBA3A3E0127621
:1008EE00C9EF3395E04F70209001F175F007122893
:1008FE000E9001F3E0FBA3E0FAA3E0F990035E1281
:10090E0081219001F30211749001FF74FFF0A37422
:10091E0043F0A37477F0A3E4F0A37404F09001F015
:10092E00E0FBA3E0FAA3E0F91276C9EF3395E04FAE
:10093E0070359001F175F00712280E9003C9E0FE94
:10094E00A3E0FF7C007D3C1227A79003C8E02FFD9B
:10095E00EC3EFC9001F3E0FBA3E0FAA3E0F9128178
:10096E00259001F30211749001FF74FFF0A37443FC
:10097E00F0A3747CF0A3E4F0A37402F09001F0E015
:10098E00FBA3E0FAA3E0F91276C9EF3395E04F60CE
:10099E0003020A209001FF74FFF0A37443F0A374C6
:1009AE007FF0A3E4F0A37405F09001F0E0FBA3E068
:1009BE00FAA3E0F91276C9EF3395E04F9001F1708A
:1009CE000575F0088004E475F00512280E90035E9C
:1009DE00E06013900312E0600D90035DE0C3940598
:1009EE0074809480400590031280039002C8E0FF4B
:1009FE009001EEE4F0A3EFF09001F3E0FBA3E0FA38
:100A0E00A3E0F99001EEA3E0FD127A8E9001F302BD
:100A1E0011749001FF74FFF0A37443F0A37485F07A
:100A2E00A3E4F0A37404F09001F0E0FBA3E0FAA3BA
:100A3E00E0F91276C9EF3395E04F70219001F17510
:100A4E00F00712280E9003CFE0FEA3E0FF7C007D9E
:100A5E000A122A4C1281F29001F30211749001FFD6
:100A6E0074FFF0A37443F0A3748AF0A3E4F0A374AC
:100A7E0003F09001F0E0FBA3E0FAA3E0F91276C9CF
:100A8E00EF3395E04F70299001F175F00612280EA4
:100A9E00E47F0AFEFDFC9003D1E0F8A3E0F9A3E0A9
:100AAE00FAA3E0FB1228241281F29001F3021174D2
:100ABE009001FF74FFF0A37443F0A3748EF0A3E4CF
:100ACE00F0A37404F09001F0E0FBA3E0FAA3E0F9C8
:100ADE001276C9EF3395E04F70259001F175F0074E
:100AEE0012280E9001F3E0FBA3E0FAA3E0F99003C5
:100AFE001CE0FCA3E0FD1281259001F3021174901D
:100B0E0001FF74FFF0A37443F0A37493F0A3E4F019
:100B1E00A37403F09001F0E0FBA3E0FAA3E0F91256
:100B2E0076C9EF3395E04F6003020BE290022F740B
:100B3E00FFF0A37443F0A37497F090035EE0FF9070
:100B4E000232E4F0A3EFF09003C9E0FEA3E0FF7CD5
:100B5E00007D3C1227A79003C8E02FFFEC3E9002C9
:100B6E0034F0A3EFF0900312E0FBFF7E007D1E1227
:100B7E0027B9900236EEF0A3EFF0EB75F01E84AFBE
:100B8E00F07E007C007D031227B9A3EEF0A3EFF0F8
:100B9E009003CFE0FEA3E0FF7C007D0A122A4C906A
:100BAE00023A12299CE47F0AFEFDFC9003D1E0F884
:100BBE00A3E0F9A3E0FAA3E0FB12282490023E1270
:100BCE00299C90031CE0FFA3E0900242CFF0A3EF1C
:100BDE00F0020E989001FF74FFF0A37443F0A3741B
:100BEE00D5F0A3E4F0A37409F09001F0E0FBA3E0CC
:100BFE00FAA3E0F91276C9EF3395E04F7034900105
:100C0E00F175F00C12280E9001F3E0FBA3E0FAA3AD
:100C1E00E0F9900038E0FCA3E0FD1281259001F38D
:100C2E00EBF0A3EAF0A3E9F0E4900038F0A3F002B1
:100C3E0008A39001FF74FFF0A37443F0A374DFF0D8
:100C4E00A3E4F0A3740BF09001F0E0FBA3E0FAA391
:100C5E00E0F91276C9EF3395E04F70229001F175ED
:100C6E00F00E12280E9001F3E0FBA3E0FAA3E0F9D8
:100C7E009002CBE0FD127A8E9001F3021174900176
:100C8E00FF74FFF0A37443F0A374EBF0A3E4F0A39E
:100C9E007404F09001F0E0FBA3E0FAA3E0F9127601
:100CAE00C9EF3395E04F70369001F175F0071228B9
:100CBE000E9001F3E0FBA3E0FAA3E0F99003161205
:100CCE0081219001F3EBF0A3EAF0A3E9F09002F298
:100CDE00E0FCA3E0FD1281259001F3021174900156
:100CEE00FF74FFF0A37443F0A374F0F0A3E4F0A339
:100CFE007403F09001F0E0FBA3E0FAA3E0F91276A2
:100D0E00C9EF3395E04F701D9001F175F006122872
:100D1E000E9001F3E0FBA3E0FAA3E0F9127A8990BA
:100D2E0001F30211749001FF74FFF0A37443F0A35A
:100D3E0074F4F0A3E4F0A3740BF09001F0E0FBA3C5
:100D4E00E0FAA3E0F91276C9EF3395E04F702090E8
:100D5E0001F175F00E12280E9001F3E0FBA3E0FAFC
:100D6E00A3E0F99003201281219001F302117490F7
:100D7E0001FF74FFF0A37444F0A37400F0A3E4F039
:100D8E00A37408F09001F0E0FBA3E0FAA3E0F912DF
:100D9E0076C9EF3395E04F70209001F175F00B128C
:100DAE00280E9001F3E0FBA3E0FAA3E0F99003AA6A
:100DBE001281219001F30211749001FF74FFF0A3D0
:100DCE007444F0A37409F0A3E4F0A37403F090014B
:100DDE00F0E0FBA3E0FAA3E0F91276C9EF3395E059
:100DEE004F6003020EA490022F74FFF0A37444F020
:100DFE00A3740DF09002CDE0FF900232E4F0A3EF69
:100E0E00F0900312E0FF900234E4F0A3EFF09002B2
:100E1E005CE0FCA3E0FDA3E0FEA3E0FF900236122F
:100E2E00299C900291E0FCA3E0FDA3E0FEA3E0FF6D
:100E3E0090023A12299C900260E0FCA3E0FDA3E030
:100E4E00FEA3E0FF90023E12299C900295E0FCA3C7
:100E5E00E0FDA3E0FEA3E0FF90024212299C900366
:100E6E0011E0900246F090031BE0900247F09002D2
:100E7E00CAE0900248F09003DCE0FCA3E0FDA3E0A2
:100E8E00FEA3E0FF90024912299C7B017A017904AE
:100E9E00123957021D849001FF74FFF0A37442F0C3
:100EAE00A37427F0A3E4F0A37404F09001F0E0FB28
:100EBE00A3E0FAA3E0F91276C9EF3395E04F702361
:100ECE009001F175F00712280E9001F3E0FBA3E0FC
:100EDE00FAA3E0F9A209E4FC33FD1281259001F397
:100EEE000211749001FF74FFF0A37444F0A37435E3
:100EFE00F0A3E4F0A37404F09001F0E0FBA3E0FA99
:100F0E00A3E0F91276C9EF3395E04F70209001F10E
:100F1E0075F00712280E9001F3E0FBA3E0FAA3E0B0
:100F2E00F99003101281219001F30211749001FFC8
:100F3E0074FFF0A37444F0A3743AF0A3E4F0A37426
:100F4E0007F09001F0E0FBA3E0FAA3E0F91276C9F6
:100F5E00EF3395E04F70339001F175F00A12280EC1
:100F6E009001F3E0FBA3E0FAA3E0F990900EE49376
:100F7E0025E0FFE433FE90907EE493FDEEFCEF4D12
:100F8E00FD1281259001F30211749001FF74FFF0A0
:100F9E00A37444F0A37442F0A3E4F0A37404F0909D
:100FAE0001F0E0FBA3E0FAA3E0F91276C9EF339566
:100FBE00E04F702F9001F175F00712280E9001F39B
:100FCE00E0FBA3E0FAA3E0F990900BE493640570C4
:100FDE0005FC7D0180047C007D001281259001F3CB
:100FEE000211749001FF74FFF0A37441F0A37479A1
:100FFE00F0A3E4F0A37407F09001F0E0FBA3E0FA95
:10100E00A3E0F91276C9EF3395E04F70259001F108
:10101E0075F00B12280E9001F3E0FBA3E0FAA3E0AB
:10102E00F990002BE0FCA3E0FD1281259001F30264
:10103E0011749001FF74FFF0A37444F0A37447F091
:10104E00A3E4F0A37409F09001F0E0FBA3E0FAA38F
:10105E00E0F91276C9EF3395E04F70209001F175EB
:10106E00F00C12280E9001F3E0FBA3E0FAA3E0F9D6
:10107E009003CC1281219001F30211749001FF7440
:10108E00FFF0A37444F0A37451F0A3E4F0A374042E
:10109E00F09001F0E0FBA3E0FAA3E0F91276C9EFBD
:1010AE003395E04F70269001F175F00712280E90DF
:1010BE00035EE064017BFF70067A42792180047A38
:1010CE00427927127D719001F30211749001FF7421
:1010DE00FFF0A37444F0A37456F0A3E4F0A37405D8
:1010EE00F09001F0E0FBA3E0FAA3E0F91276C9EF6D
:1010FE003395E04F70239001F175F00812280E9091
:10110E000312E07BFF70067A4179EF80047A417911
:10111E00EB127D719001F3804D9001FF74FFF0A3EF
:10112E007444F0A3745CF0A3E4F0A37405F0900192
:10113E00F0E0FBA3E0FAA3E0F91276C9EF3395E0F5
:10114E004F702E9001F175F00812280E90035EE09C
:10115E0064027BFF70067A42790780047A42790B2B
:10116E00127D719001F3EBF0A3EAF0A3E9F002080F
:10117E00A390022F74FFF0A37444F0A37462F09056
:10118E0001F3E0FBA3E0FAA3E0F91239579001F462
:10119E00EE8FF012280E021D849001FF74FFF0A353
:1011AE007444F0A37465F0A3E4F0A37404F090010A
:1011BE00F0E0FBA3E0FAA3E0F91276C9EF3395E075
:1011CE004F6003021B4F9001F175F00412280E9030
:1011DE0001FF74FFF0A37443F0A37472F0A3E4F064
:1011EE00A37404F09001F0E0FBA3E0FAA3E0F9127F
:1011FE0076C9EF3395E04F60030212999001F175B5
:10120E00F00512280E9001F0E0FBA3E0FAA3E0F93E
:10121E0012272D24D0FFE434FFFE9001EEF0A3EF51
:10122E00F090035EE06F7001EE60549001EEE0FE10
:10123E00A3E0FFC3EE648094804044D3EF9403EEAA
:10124E0064809480503990900BE4936405700C90F8
:10125E0001EEE07004A3E06402700B9001EEA3E0D7
:10126E0090035EF0800690035E7405F0D2197F0144
:10127E0012000390035EE06403700490035DF07B44
:10128E00017A01790490035E021C609001FF74FFE5
:10129E00F0A37443F0A3747FF0A3E4F0A37405F0FD
:1012AE009001F0E0FBA3E0FAA3E0F91276C9EF3368
:1012BE0095E04F70469003D57412F09001F1E475ED
:1012CE00F006126C769002C8EFF0700E90035EE09E
:1012DE0070089003917402F08015900315E0FF9052
:1012EE0002C8E0D39F4008EFF09003D5740FF07B57
:1012FE00017A0179049002C802189B9001FF74FFD5
:10130E00F0A37444F0A37451F0A3E4F0A37404F0BA
:10131E009001F0E0FBA3E0FAA3E0F91276C9EF33F7
:10132E0095E04F60030213DB9001F175F006122871
:10133E000E90035EE0FF64057003021D84EF6402ED
:10134E00701090900B936405700890035E74050204
:10135E00144B9001FF74FFF0A37442F0A37427F0B6
:10136E00A3E4F0A37404F09001F0E0FBA3E0FAA371
:10137E00E0F91276C9EF3395E04F701090035EE0FE
:10138E007003021D84E4F0D21902144C9001FF7414
:10139E00FFF0A37442F0A37421F0A3E4F0A374054C
:1013AE00F09001F0E0FBA3E0FAA3E0F91276C9EFAA
:1013BE003395E04F6003021D7A90035EE064017086
:1013CE0003021D847401F0D219FF021B469001FF27
:1013DE0074FFF0A37444F0A37456F0A3E4F0A37466
:1013EE0005F09001F0E0FBA3E0FAA3E0F91276C954
:1013FE00EF3395E04F60030214929001F175F00700
:10140E0012280E9001FF74FFF0A37441F0A374EF45
:10141E00F0A3E4F0A37404F09001F0E0FBA3E0FA73
:10142E00A3E0F91276C9EF3395E04F70169003CC16
:10143E00E064047003021D849003917402F07F0136
:10144E00021B469001FF74FFF0A37441F0A374EBEE
:10145E00F0A3E4F0A37403F09001F0E0FBA3E0FA34
:10146E00A3E0F91276C9EF3395E04F70149003CCD8
:10147E00E06003021D849003917403F07F01021B50
:10148E0046021D7A9001FF74FFF0A37444F0A3741A
:10149E005CF0A3E4F0A37405F09001F0E0FBA3E090
:1014AE00FAA3E0F91276C9EF3395E04F6003021507
:1014BE00469001F175F00712280E9001FF74FFF0AF
:1014CE00A37442F0A3740BF0A3E4F0A37402F090A3
:1014DE0001F0E0FBA3E0FAA3E0F91276C9EF339531
:1014EE00E04F701490035EE064026003021D84906E
:1014FE0003E7F0A304021BE99001FF74FFF0A3744D
:10150E0042F0A37407F0A3E4F0A37403F09001F08B
:10151E00E0FBA3E0FAA3E0F91276C9EF3395E04FB2
:10152E00701390035EE064027003021D847402F077
:10153E007F01021B46021D7A9001FF74FFF0A37417
:10154E0043F0A374F0F0A3E4F0A37403F09001F061
:10155E00E0FBA3E0FAA3E0F91276C9EF3395E04F72
:10156E00707675F004126C73900315EFF07E00D355
:10157E0094B474809480400574B4F08011C3EF94D9
:10158E000FEE648094805006900315740FF07B016B
:10159E007A017904127A89900315E0FD7F0D7E9011
:1015AE00127848900315E0FF9002CBE0D39F400FD6
:1015BE00EFF09001EEA3E0FD7F0C7E9012784820B4
:1015CE000F0BD20F7D017F117E901278489003D5BC
:1015DE00740FF07F01021B469001FF74FFF0A3749D
:1015EE0043F0A374F4F0A3E4F0A3740BF09001F0B5
:1015FE00E0FBA3E0FAA3E0F91276C9EF3395E04FD2
:10160E0070579001F175F00C12280E9001F0E0FB6E
:10161E00A3E0FAA3E0F9126D579001EEEEF0A3EFFE
:10162E00F0C39401EE6480948040179001EEE0FECA
:10163E00A3E0FFD39403EE648094805005900320C2
:10164E00EFF090032012811B900320E0FD7F0F7EB0
:10165E00901278487F01021B469001FF74FFF0A3A1
:10166E007444F0A3746AF0A3E4F0A37404F0900140
:10167E00F0E0FBA3E0FAA3E0F91276C9EF3395E0B0
:10168E004F70589001F175F00512280E9001F0E0A0
:10169E00FBA3E0FAA3E0F9126D579001EEEEF0A372
:1016AE00EFF064014E700E9003E704F0A37411F096
:1016BE00C217021A2F9001EEE07002A3E06003023F
:1016CE001A2F90035EE064046003021A2F900391B8
:1016DE007402F07F01120003021A2F9001FF74FFB3
:1016EE00F0A37443F0A374EBF0A3E4F0A37404F03E
:1016FE009001F0E0FBA3E0FAA3E0F91276C9EF3314
:10170E0095E04F60030217F99001F175F00512286C
:10171E000E9001F0E0FBA3E0FAA3E0F912272DFFF3
:10172E00C3943050030217C1EFD394324003021713
:10173E00C1900001122746642C707812272D24D0F8
:10174E00FFE434FFFE9001EEF0A3EFF0900316E0FD
:10175E006F7001EE60179001EEA3E0900316F0FD9E
:10176E007F147E9012784890030F7402F09001F06F
:10177E00E0FBA3E0FAA3E02402F9E43AFA126D5773
:10178E009001EEEEF0A3EFF09002F2E06E7003A384
:10179E00E06F601F9001EEE0FEA3E0FF9002F2EE1C
:1017AE00F0FCA3EFF0FD7F157E9012808790030F63
:1017BE007402F090022F74FFF0A37444F0A3746FC0
:1017CE00F0900316E0FF900232E4F0A3EFF09002E7
:1017DE00F2E0FFA3E0900234CFF0A3EFF07B017AAA
:1017EE000179041239577F01021B469001FF74FFE5
:1017FE00F0A37443F0A374DFF0A3E4F0A3740BF032
:10180E009001F0E0FBA3E0FAA3E0F91276C9EF3302
:10181E0095E04F60030218A575F00C126C737E00F4
:10182E009001EEEEF0A3EFF0D394B4748094805058
:10183E00539001EEE0FEA3E0FFC3940FEE6480949C
:10184E008040419002CBE0FDEF6D7001EE6035906F
:10185E000315E0FF7E00D39001EFE09F7480F890B7
:10186E0001EEE0648098400BEEF0A3EFF09003D50C
:10187E00740FF09001EEA3E0FD9002CBF07F0C7E92
:10188E00901278487B017A0179049002CBE0FD1228
:10189E007A8E7F01021B469001FF74FFF0A3744203
:1018AE00F0A37427F0A3E4F0A37404F09001F0E029
:1018BE00FBA3E0FAA3E0F91276C9EF3395E04F707F
:1018CE00729001F175F00512280E9001F0E0FBA365
:1018DE00E0FAA3E0F912272D24D0FFE434FFFE90A6
:1018EE0001EEF0A3EFF0C3EE6480948040319001DE
:1018FE00EEE0FEA3E0FFD39401EE64809480501FCF
:10190E00A209E433FDEF6D7001EE60139001EEA3BA
:10191E00EE4F24FF9209AD077F127E901278487B1E
:10192E00017A017904A209E4FC33FD1281257F01BD
:10193E00021B469001FF74FFF0A37444F0A37435AC
:10194E00F0A3E4F0A37404F09001F0E0FBA3E0FA3E
:10195E00A3E0F91276C9EF3395E04F70639001F171
:10196E0075F00512280E9001F0E0FBA3E0FAA3E05B
:10197E00F9126D579001EEEEF0A3EFF0D39400EE56
:10198E0064809480402F9001EEE0FEA3E0FFD3949C
:10199E001FEE64809480501D900310E0FDEF6D707B
:1019AE0001EE60119001EEA3E0900310F0FD7F13A5
:1019BE007E9012784890031012811B7F01021B4605
:1019CE009001FF74FFF0A37444F0A37475F0A3E4C8
:1019DE00F0A37406F09001F0E0FBA3E0FAA3E0F9A7
:1019EE001276C9EF3395E04F70489001F175F0070C
:1019FE0012280E9001F0E0FBA3E0FAA3E0F9122703
:101A0E002D24D0FFE434FFFE9001EEF0A3EFF0643E
:101A1E00014E700D9001EEA3E0FD7F7E7E90127858
:101A2E00487B017A0179049001EEE0FCA3E0FD020F
:101A3E001C649001FF74FFF0A37444F0A37442F091
:101A4E00A3E4F0A37404F09001F0E0FBA3E0FAA38A
:101A5E00E0F91276C9EF3395E04F705C9001F175A5
:101A6E00F00512280E900312E0702E9001F0E0FBAC
:101A7E00A3E0FAA3E0F912272D24D0FFE434FFFEF1
:101A8E009001EEF0A3EFF064014E70047F0580022A
:101A9E007F0190035EEFF0D2197B017A01790490F9
:101AAE00035EE064057005FC7D0180047C007D0012
:101ABE001281257F01021B469001FF74FFF0A37473
:101ACE0041F0A37479F0A3E4F0A37407F09001F051
:101ADE00E0FBA3E0FAA3E0F91276C9EF3395E04FED
:101AEE00705C9001F175F00812280E9001F0E0FB89
:101AFE00A3E0FAA3E0F912272D24D0FFE434FFFE71
:101B0E009001EEF0A3EFF04E70051281648016D3B3
:101B1E0090002CE0940090002BE094004007900081
:101B2E0014E04420F07B017A0179049001EEE0FC90
:101B3E00A3E0FD1281257F01120003021D84021D08
:101B4E007A9001FF74FFF0A37443F0A3747FF0A3A7
:101B5E00E4F0A37405F09001F0E0FBA3E0FAA3E03B
:101B6E00F91276C9EF3395E04F70769001F175F06A
:101B7E000612280E9001FF74FFF0A37444F0A374B4
:101B8E007CF0A3E4F0A37402F09001F0E0FBA3E07C
:101B9E00FAA3E0F91276C9EF3395E04F700990037E
:101BAE00E7F0A3740280349001FF74FFF0A3744336
:101BBE00F0A3745FF0A3E4F0A37404F09001F0E0DE
:101BCE00FBA3E0FAA3E0F91276C9EF3395E04F607C
:101BDE0003021D849003E7F0A37404F0C217021DE4
:101BEE00849001FF74FFF0A37444F0A3747FF0A3FC
:101BFE00E4F0A37408F09001F0E0FBA3E0FAA3E098
:101C0E00F91276C9EF3395E04F70519001F175F0EE
:101C1E000912280E9001F0E0FBA3E0FAA3E0F912FE
:101C2E006D579001EEEEF0A3EFF0C3EE648094805A
:101C3E0040179001EEE0FEA3E0FFD39407EE648020
:101C4E009480500590035DEFF07B017A017904904A
:101C5E00035DE0FD7C00128125021D849001FF745E
:101C6E00FFF0A37444F0A37488F0A3E4F0A37414FB
:101C7E00F09001F0E0FBA3E0FAA3E0F91276C9EFD1
:101C8E003395E04F7006900036021E879001FF7468
:101C9E00FFF0A37444F0A3749DF0A3E4F0A3740EBC
:101CAE00F09001F0E0FBA3E0FAA3E0F91276C9EFA1
:101CBE003395E04F7006900036021E579001FF7468
:101CCE00FFF0A37444F0A374ACF0A3E4F0A3740F7C
:101CDE00F09001F0E0FBA3E0FAA3E0F91276C9EF71
:101CEE003395E04F70179001F175F01012280E9099
:101CFE0001F0E0FBA3E0FAA3E0F9021ED69001FF8B
:101D0E0074FFF0A37444F0A374BCF0A3E4F0A374C6
:101D1E0009F09001F0E0FBA3E0FAA3E0F91276C916
:101D2E00EF3395E04F7045900312E0D3940074802A
:101D3E00948040030220667D017F7F7E901278485A
:101D4E00E4FF1285C57BFF7A4479C6E4FD125EF18D
:101D5E007BFF7A4479CB7D01125EF1126A8075FDAC
:101D6E00F075FC0F75FD7875FC87800A90000B747A
:101D7E00ECF0A37477F090000BE07002A3E0700417
:101D8E007F0780027F08900036EFF00220669001F8
:101D9E00FF74FFF0A37442F0A374F7F0A3E4F0A372
:101DAE007405F07B017A00793B1276C9EF3395E02A
:101DBE004F022066900014E054FBF09001FF74FF78
:101DCE00F0A37445F0A37401F0A3E4F0A37402F041
:101DDE007B017A00793B1276C9EF3395E04F6003B1
:101DEE00022066021F41900014E054FBF054DFF015
:101DFE000220609001FF74FFF0A37444F0A374E915
:101E0E00F0A3E4F0A37412F07B017A00793B127612
:101E1E00C9EF3395E04F9000367002805C802A90B7
:101E2E0001FF74FFF0A37445F0A37401F0A3E4F076
:101E3E00A37402F07B017A00793B1276C9EF3395D9
:101E4E00E04F900036700280307402F002206690EF
:101E5E0001FF74FFF0A37445F0A37401F0A3E4F046
:101E6E00A37402F07B017A00793B1276C9EF3395A9
:101E7E00E04F9000367002803A7403F002206690B4
:101E8E0001FF74FFF0A37445F0A37401F0A3E4F016
:101E9E00A37402F07B017A00793B1276C9EF339579
:101EAE00E04F7015900014E054FEF0E4900037F00F
:101EBE00900036740FF00220669000367404F00223
:101ECE0020667B017A00793B1264F702206690004F
:101EDE0014E054F7F09000367409F0022066900179
:101EEE00FF74FFF0A37444F0A374D0F0A3E4F0A346
:101EFE007412F07B017A00793B1276C9EF3395E0CC
:101F0E004F70339001FC74FFF0A37444F0A374FC83
:101F1E00F07B017A00793B12715A9001F0EBF0A33D
:101F2E00EAF0A3E9F09001F0E0FBA3E0FAA3E04AA7
:101F3E004B60030220609000367410F00220669011
:101F4E0001FF74FFF0A37445F0A37401F0A3E4F055
:101F5E00A37402F07B017A00793B1276C9EF3395B8
:101F6E00E04F90003670057406F080037410F07B1D
:101F7E00017A00793B12697490000F12299C7F5AE6
:101F8E007ED47D6E7C5A90000FE0F8A3E0F9A3E0BA
:101F9E00FAA3E0FBD3122965500302205690000FDE
:101FAE00E0FCA3E0FDA3E0FEA3E0FFC004C005C07B
:101FBE0006C0071285D7E47B887A13F9F81228AF8A
:101FCE00A804A905AA06AB07D007D006D005D004F1
:101FDE00C3EF9BFFEE9AFEED99FDEC98FC90000F7F
:101FEE0012299C9003AAE07069909023939003AA03
:101FFE00F0D39400748094804058909025E4937EA2
:10200E00007810C333CE33CED8F9FDAC06909024B1
:10201E00E4937E007818C333CE33CED8F9FFEE4C5E
:10202E00FCEF4DFD909026E4934CFEEDFFA3E49360
:10203E00FDEF4DFFEE3395E0FDFC9003A512299CBC
:10204E00900036740EF0801090000F1229A8000038
:10205E0000009000367406F0E4900035F090001504
:10206E0004F0E4801E90003AE0C394FA74809480E9
:10207E0040169000157401F0900035E0A3F0E49046
:10208E000035F090003AF02290003AE004F0222061
:10209E00100EE4900103F090001504F0900036F05D
:0120AE00220F
:0300230002736CF9
:10736C00C0E0C083C082C0D075D000C00730984E3A
:10737C0090000EE0FF243BF582E43400F583E599A0
:10738C00F0743B2FF582E43400F583E0FFB40D1765
:10739C0090000EE0243BF582E43400F583E4F0D257
:1073AC001890000EF08015EF601290000EE004F0C3
:1073BC00E0C39464748094804002E4F0C2983099E5
:1073CC002790000DE0FF900013E0C39F5013E0FFE7
:1073DC0004F0749F2FF582E43400F583E0F5998076
:1073EC0005900013E4F0C299D007D0D0D082D0839E
:0373FC00D0E032AC
:1070960043414C49004C4F434B0053544F50004E14
:1070A60045570054494D450025642025303264007B
:1070B60025643A2530326400535044004B4D00435A
:1070C600414C005354455000463100463200463389
:1070D600004D41580046414354004F4646004F4E2E
:1070E60000474F414C00444F4E4500452530326421
:1070F6000057414954000915151200107F11000A66
:1071060015150F0100111F091000107F11111F091D
:1071160010100E15150D0009151512000E15150D7A
:10712600107F11113F242418023E1220201C2A2A07
:107136001A00122A2A2400122A2A2400000000001B
:1071460000000000000C1E1E0C00000000000000E5
:047156000000000035
:100026009003CCEFF0E49003EBF0A3F09003EAF03A
:050036009003CBF02255
:1077CE0090035EE014601B14602B14602F24037072
:1077DE0068D2C29002C7E0C3946E74809480405009
:1077EE008053D2C29002C7E0C3946E7480948040DE
:1077FE0002803D8040C2C2D290D2912290035DE0C1
:10780E00FFC39404748094804017EF64086012D212
:10781E00C29002C7E0946E748094804002801680FD
:10782E000FD2C29002C7E0C3946E7480948040055C
:0A783E00C290D29122D290C2912292
:10325700E4FF1285C53010030238809003CCE024C8
:10326700FC700302377814700302379A240524F997
:1032770050030238F11277CE90035EE06404701BAE
:103287009003CCE064066013D280D2C2D290D29170
:10329700D2CD7BFF7A707996023355900037E0B430
:1032A700070050529032B2F82828730232CF023208
:1032B700CF0232CB0232C70232E40232D70232D710
:1032C700D2CD8032C2CD802E7DC87C007F6480063F
:1032D7007D207C037FC87E00127F4480199001F80F
:1032E7007403F0A37420F07B647A007DC87C007FB0
:1032F700647E001272CA90035EE06405700FD2C24A
:10330700D290D2917BFF7A70799B0237559003CC8C
:10331700E0640670239003D6F0A3F07BFF7A707900
:10332700FCFD12836B9003EBE0FEA3E0FFC3740385
:103337009FFFE49EFE0236E19003CCE06403600841
:10334700900391E06402700A7BFF7A7079A0E4022F
:103357003755900014E030E00B7BFF7A717913E466
:10336700FD02836B301B030234599003D5E06413CD
:10337700702E7BFF7A71792AFD12836B9003EAE046
:10338700C3942374809480500B7BFF7A7179417DBD
:103397000112836B9003D57404F0E4A3F0A3F02229
:1033A70090035EE0640370147BFF7A7079A5FD12C9
:1033B7005EF1900312E0FF7E0002354A9003D9E0E8
:1033C70060179003D6E07002A3E070289003D574CD
:1033D70004F0E49003D9F0801B9003D5E0D3940D5B
:1033E70074809480400EA37401F0A374F4F09003EA
:1033F700D97401F09003D5E0C3940574809480508C
:1034070043A3E07002A3E0703B12843A9003D6E432
:10341700F0A374FAF09003D5E02401FFE433FE7CB7
:10342700007D051227B9EDF0E0FF7E007401A807C3
:10343700088005C333CE33CED8F9FF900310E0FDE3
:10344700EF5D60D19003D7E024FFF09003D6E0341E
:10345700FFF09003D5E060030235077BFF7A7079B0
:10346700A9FD125EF19003C9E0FEA3E0FFC3943CFF
:10347700EE9400500F9001EEEFF09003C8E090013A
:10348700EFF080259003C9E0FAA3E0FB7C007D3CC8
:10349700FFAE021227B99001EEEFF07C007D3CAF42
:1034A70003AE021227B9A3EDF09001EEE0D39463C7
:1034B7007480948040037463F0D39003CAE0943B14
:1034C7009003C9E0940040159003EAE0D39419747F
:1034D70080948040087BFF7A7079AE80067BFF7A04
:1034E7007079B69001EEE0FF9001FBE4F0A3EFF0F6
:1034F7009001EFE0FF9001FDE4F0A3EFF002387BCD
:103507009003D5E0FF64016005EF6412703F7BFF15
:103517007A7079BEE4FD125EF190035EE06401709B
:103527000D9003CCE0640170059002C880039003FE
:1035370012E0FF9001F0E4F0A3EFF09001F0E0FE5D
:10354700A3E0FF7C007D031227B902370A9003D559
:10355700E0640270177BFF7A7079C2FD125EF1900A
:1035670003CFE0FEA3E0FF7D010282BE9003D5E01A
:10357700640370797BFF7A7079C5FD125EF17FA0D5
:103587007E867D017C009003D1E0F8A3E0F9A3E0FB
:10359700FAA3E0FBC3122965501AE47B0AFAF9F88B
:1035A7009003D1E0FCA3E0FDA3E0FEA3E0FF122817
:1035B700AF02370A7F407E427D0F7C009003D1E047
:1035C700F8A3E0F9A3E0FAA3E0FBC31229654003DF
:1035D7000238F1E47B64FAF9F89003D1E0FCA3E048
:1035E700FDA3E0FEA3E0FF1228AF0236E19003D56A
:1035F700E0640470327BFF7A7079C9FD125EF19046
:10360700031CE0FEA3E0FFC39410EE942750028052
:103617001390031CE0FEA3E0FF7C277D101227B95F
:10362700AE04AF050236E19003D5E0641070169042
:10363700031BE0FF7E00E4FD12827C9002CAE0FFDC
:103647007E000236E19003D5E06411703E7B64FA98
:10365700F9F890025CE0FCA3E0FDA3E0FEA3E0FF25
:103667001228AFE49001F6F01283C5E47B64FAF9FF
:10367700F8900291E0FCA3E0FDA3E0FEA3E0FF12B7
:1036870028AF9001F67401F00283C59003D5E0647A
:103697000670137BFF7A7079CEFD125EF1900314EA
:1036A700E0FF7E0080349003D5E0640770137BFF52
:1036B7007A7079D1FD125EF1900326E0FF7E0080DB
:1036C700199003D5E0640870167BFF7A7079D4FDF2
:1036D700125EF1900323E0FF7E007D0102852B90AF
:1036E70003D5E0FF64096005EF640F701B7BFF7A69
:1036F7007079D7E4FD125EF1900315E075F003844D
:10370700FF7E007D0102827C9003D5E0640A70236E
:103717007BFF7A7079DBFD125EF12011087BFF7A5F
:103727007079E080472011030238F17BFF7A7079C6
:10373700E480399003D5E0640B70169002C7E0FF70
:103747007E007D0112852B7BFF7A4479FCE4FD80A6
:103757001D9003D5E0640E60030238F17BFF7A7099
:1037670079E7FD125EF17BFF7A7079EC7D01025EED
:10377700F190035EE064027006C2C2D290D29190CB
:1037870003EBE07004A3E0640160030238F1D2CDDB
:10379700D280227BFF7A7079F19003AAE0FF900133
:1037A700FBE4F0A3EFF0E4FF127D0BD2C2D290D27C
:1037B70091C2809003AAE0FD7C0064087003027741
:1037C700CEED640A4C600B9003AAE0640B60030221
:1037D70038F11285D7E47B887A13F9F81228AFAB52
:1037E70007AA06C002C00390000FA3A3E0FEA3E050
:1037F700FBAA069003A5A3A3E0FEA3E0C39BFFEEED
:103807009AFED003D002C3EF9BFFEE9AFEC006C01C
:10381700079003AAE0FF7E007C007D141227A7C350
:1038270074E69FFFE49EFE3395E0FDFCE47B3CFAE3
:10383700F9F8122824D0E02FFFD0E03E9001F0F0F5
:10384700A3EFF09001F0E0FAA3E0FB7C007D3CFFE2
:10385700AE021227B99001FBEEF0A3EFF07C007DDA
:103867003CAF03AE021227B9A3ECF0A3EDF07BFF48
:103877007A7079B67F01027D0B9002CCE064967076
:10388700057F011200037BFF7A7079F7E4FD125E72
:10389700F19002CCE0D39400748094804005E0144A
:1038A700F08002C2109002CCE0FFC374969FFFE441
:1038B7009400FE7C007D191227A77D961227B990E8
:1038C70001F0EEF0A3EFF0D39400EE9400401B90CC
:1038D70001F0E0FEA3E0FF7D18906E4AE493FB74CD
:0A38E7000193FA740293F9122B62A8
:0138F10022B4
:10553C001283009003E7E0FEA3E0FF4E70030257D6
:10554C0069301703025769301003025769D217905C
:10555C000038EEF0A3EFF0900391E060030257697E
:10556C009003E7A3E08EF0122A1F55AA000155DF25
:10557C00000256A90003563F000457220011572978
:10558C0000135709010156CA0103574B011155AAC3
:10559C00100056DD110057301101000057697F01D2
:1055AC0012000390035EE0FF7E006402700CC213D5
:1055BC0090900B9390035E02571EEF4E7007900372
:1055CC005E0402571E90035EE0640160030257699B
:1055DC0002571E9003CCE0640470030257697F01EC
:1055EC001200039003D57412F0900312E0D39400D0
:1055FC0074809480403B90035EE0FF64016005EF93
:10560C006403702D9002C8E0240FF0900315E0FFA6
:10561C009002C8E0D39F4008EFF09003D5740FF0D0
:10562C009002C8E075F00F84AFF0EF6068E0C39FA4
:10563C00F080629003CCE0640470030257697F0130
:10564C001200039003D57412F0900312E0D394006F
:10565C0074809480403F90035EE0FF64016005EF2E
:10566C00640370319002C8E0C3941E74809480501F
:10567C00089003917402F080079002C8E024F1F0C6
:10568C009002C8E075F00F84AFF0EF6008C3740FA0
:10569C009FFFE02FF0E49003E7F0A3F0229003CCFF
:1056AC00E0640470030257697F011200039003CC7D
:1056BC00E090039170047403F0227402F0229003C2
:1056CC00CCE0640360030257697F01120003D2121D
:1056DC002290035EE0640270247F021200039000AB
:1056EC0014E04401F0C21390900BE49390035EF02D
:1056FC006403700204F0D219E4FF0200269003CC7C
:10570C00E0705A7F011200037F0412002690035EA2
:10571C007402F0D219229003D57411F0229003D5A3
:10572C007410F02290035EE0C39402748094805055
:10573C002C7F01120003D21B9003D57406F022902B
:10574C00035EE0640460167F0112000390035E7434
:0E575C0004F07F061200269002C87478F02236
:102BA400900295E0FCA3E0FDA3E0FEA3E0FF900209
:102BB40060E0F8A3E0F9A3E0FAA3E02FFFEA3EFE09
:102BC400E93DFDE83CFCE47B02FAF9F81282389016
:102BD40001EE12299C30193990035EE0FF64026013
:102BE40029EF64046024E0FD7F0B7E901278489006
:102BF400035EE064017013900312E0FFD394007449
:102C040080948040059002C8EFF0E49002C6F0C2C0
:102C140019E49003DBF09003AAE0FF7E00D3940054
:102C240074809480403D9003CCE064056035EF648B
:102C340008701190035EE0600B900299E0640370E9
:102C44002230091F900312E0D394007480948040D2
:102C5400089003917402F0800AE4900391F07F05D8
:102C64001200269003CCE0B4070040030231DB904D
:102C74002C7AF8282873022CDB02301E02310A0257
:102C84003111022C8F0231A1022FD490035EE06433
:102C94000260227F01120003C213C21CD39003EC12
:102CA400E0940A9003EBE094004007900014E044A1
:102CB40040F002310C9003EBE07004A3E064016087
:102CC400030231DB9003EAE060030231DB12775048
:102CD400D21CD21F0231DB900391E064036002E452
:102CE400F0C39003ECE094589003EBE09402500B93
:102CF40090035EE0FD7C006402700B90035E74023E
:102D0400F0D2190231B3ED64054C7007900391F0D1
:102D14000231DB900391E064037033F090035EE0D2
:102D2400FF64016018EF640360030231DB90035D0C
:102D3400E0C394057480948040030231DB9002CB9D
:102D4400E09002C8F09003D57412F0022E35E47FAF
:102D5400C47E09FDFC9001EEE0F8A3E0F9A3E0FADB
:102D6400A3E0FBD312294F404220093F90035EE0C9
:102D7400FF64016011EF6403703190035DE094051A
:102D8400748094805025301B030231DB9003CBE028
:102D9400D3940F7480948040099003D57413F00287
:102DA40031DB9003CBE004F00231DBE47FC47E0925
:102DB400FDFC9001EEE0F8A3E0F9A3E0FAA3E0FB48
:102DC400D312294F407020106D9003EAE0D3940190
:102DD40074809480406090035EE0601B6403700C18
:102DE40090035DE0940574809480500B3009479003
:102DF400035EE06403603F9003CBE0FF04F0C3EFA5
:102E0400940F7480948050030231DB90035EE0FFE2
:102E14007E0070089002CD740FF0800EEF64014EB6
:102E240070089002CBE09002C8F07F01120003C248
:102E34001F7F060231D890035EE064037014900390
:102E44005DE06407700C900299E070061273FF0253
:102E540031DB9003EBE07004A3E064016003023112
:102E64009A9003EAE06401600302319A900016E04C
:102E7400FEA3E0FFD39003D0E09F9003CFE09E50E9
:102E8400030231DB900037E09405748094804003A2
:102E94000231DB9003CFE0FCA3E0FDC39FFFEC9E77
:102EA400FE90002CE02FF090002BE03EF0900016F6
:102EB400ECF0A3EDF090002DE0F8A3E0F9A3E0FA24
:102EC400A3E0FBC000C001C002C00390001AE0F8F8
:102ED400A3E0F9A3E0FAA3E0FB9003D1E0FCA3E0B4
:102EE400FDA3E0FEA3E0C39BFFEE9AFEED99FDEC8B
:102EF40098FCD003D002D001D000EB2FFFEA3EFEB5
:102F0400E93DFDE83CFC90002D12299C9003D1E0A2
:102F1400FCA3E0FDA3E0FEA3E0FF90001A12299CAD
:102F2400900020E0FEA3E0FF90031CE0FCA3E0FD82
:102F3400C39FFFEC9EFE900032E02FF0900031E042
:102F44003EF0900020ECF0A3EDF09003C9E0FEA366
:102F5400E0FF7C007D3C1227A79003C8E02FFFEC24
:102F64003EFE900024E0FCA3E0FDC3EF9DFDEE9C3B
:102F7400FC900034E02DF0900033E03CF09000240D
:102F8400EEF0A3EFF090002BE0FCA3E0FD7F177EB2
:102F94009012808790002DE0FCA3E0FDA3E0FEA347
:102FA400E0FF9001FB12299C7F197E901281AC9066
:102FB4000031E0FCA3E0FD7F1D7E9012808790002D
:102FC40033E0FCA3E0FD7F1F7E901280870231DB9B
:102FD4009003EBE0FCA3E0FDC39403EC94004010E9
:102FE4009003117401F0E49002C6F07F010231D81D
:102FF400900391E0640270057F030231D89003EAE4
:10300400E060030231DBC3ED9401EC940050030251
:1030140031DB7F011200030231DB9003DB7401F02A
:10302400127E91900311E064027028127A1A9003C0
:103034001CE0FFA3E0900319CFF0A3EFF0900391FD
:10304400E0640170047F0280027F03120026E49092
:103054000391F090030FE0640170030231DB9002EE
:10306400F2E0FEA3E0FFD39400EE9400500302319B
:10307400DB900316E0F9700C9003CAE09F9003C93B
:10308400E09E5059E9FB7A006401701C9003CFE084
:10309400FEA3E0FF7C007D641227B9D39002F3E025
:1030A4009F9002F2E09E4035EB64024A70497B64D3
:1030B400FAF9F89003D1E0FCA3E0FDA3E0FEA3E05D
:1030C400FF1228AFA804A905AA06AB079002F2E0F4
:1030D400FEA3E0FFE4FCFDC3122965401A90030F30
:1030E400E0700B9003D5740EF07F0512000390037B
:1030F4000F7401F00231DB90030FE06402600302FD
:1031040031DBF00231DBD213E4FF0231D890031239
:10311400E07004900391F0900295E0FCA3E0FDA31D
:10312400E0FEA3E0FF900260E0F8A3E0F9A3E0FA78
:10313400A3E02FFFEA3EFEE93DFDE83CFCE47B58BA
:103144007A02F9F8D312294F501990035DE0FF6415
:10315400056010EF6401600B20093B90035EE0649E
:1031640001703390035EE064047012900312E07007
:103174006690900B9390035EF0D219805A9003CB23
:10318400E0FF04F0C3EF9403748094804049D213A9
:10319400C212E4FF803EE49003CBF0803AE4900353
:1031A40091F090035EE0FD7C0064027006D2807FA3
:1031B4000480219003AAE060176408701A900299B1
:1031C400E0C3940374809480500DED64014C700747
:1031D400C213E4FF120026200A379003DBE06401E7
:1031E400602F300B2C9003D8E0D394037480948028
:1031F4004011E4F09003117402F0D213E4FF1200C2
:103204002680139003EAE0700D9003D8E004F08068
:1032140005E49003D8F0200A349003DBE0640170E5
:103224002C200B299003DAE0D3940A748094804014
