:03F0000002FC49C6
:10FC490078FFE4F6D8FD9000007F007E08E4F0A379
:0AFC5900DFFCDEFA75810702F55C9E
:10FC02006765745F646F776E0D007570646174650B
:10FC12005F667700726573756C7420227265616429
:07FC220079220D006F6B0059
:10F55C0012FC2990FE927410F0E4900080F0A3F05D
:10F56C00900098F0A3F0900097740AF07B017A0059
:10F57C0079007D807F007E9012FBC290007FE0645A
:10F58C0001600312FCBF7F007EC27D017C0012FB78
:10F59C000D900097E0FF14F0EF700302F6AB7BFFC9
:10F5AC007AFC79027D097C0012FB777B017A007969
:10F5BC0082900142E4F0A37402F07D0F7C0012F6FD
:10F5CC00AED3EF9400EE6480948040C5E49000903C
:10F5DC00F090012474FFF0A374FCF0A3740CF07B86
:10F5EC00017A00798212F892E94A4B60A47BFF7A87
:10F5FC00FC79167D0F7C0012FB777B017A007982F7
:10F60C00900142E4F0A37402F07D037C0012F6AE8C
:10F61C00D3EF9400EE64809480500302F59DE49047
:10F62C000084F090012474FFF0A374FCF0A3742602
:10F63C00F07B017A00798212F892E94A4B7003024E
:10F64C00F59D7B007A0079007DFF7C6F12F00390B2
:10F65C000080EEF0A3EFF0D39400EE940050030280
:10F66C00F59D7F007E9012FC95E490007FF0900158
:10F67C0020F0900120E0FDC3948074809480501F92
:10F68C00ED2400FFE43490FE74002DF582E4340088
:10F69C00F583E0FD12FC63900120E004F080D302BE
:02F6AC00FCBFA1
:05FA9700900140EDF0BC
:10FA9C00AE02AF01900144EEF0A3EFF0900141E013
:10FAAC00F9A3E0FAA3E0900146C9F0A3EAF0A3E9B8
:10FABC00F0E4A3F0A3F012FC95900140E0D3940085
:10FACC00748094804038900144E0FEA3E0FFA3E0F2
:10FADC00FBA3E0FAA3E0F912F364FD12FC639001BE
:10FAEC0045E004F07006900144E004F0900147E416
:10FAFC0075F00112F3DE900140E014F080BB7F0141
:01FB0C0022D6
:10FC290090FEA0E4F0758F02E58F5420642070F8EF
:10FC3900538EEFE58E544070FA90FE917402F022D3
:10FB0D0090012112F55090FF1A7428F090FFA07407
:10FB1D001CF0A304F0900121E0F8A3E0F9A3E0FAB2
:10FB2D00A3E0FB7F407E427D0F7C0012F495C374F1
:10FB3D00FF9FFF74FF9EFEE49DFDE49CFC78081280
:10FB4D00F53D8F9D900121E0F8A3E0F9A3E0FAA324
:10FB5D00E0FB7F407E427D0F7C0012F495C374FF65
:0AFB6D009FF59C759E1275981022FA
:10FC950075FDF075FC0F8EFA8FF975FDD275FC2D8B
:07FCA50075FDE175FC1E2254
:10FC63008DFB75FDF075FC0F8EFA8FF975FDB4757C
:09FC7300FC4B75FDE175FC1E223D
:0DFCBF0075FDF075FC0F75FD8775FC782252
:10FBC200900121EEF0A3EFF0A3EBF0A3EAF0A3E99A
:10FBD200F0AF051DEF6028900121E475F00112F3EA
:10FBE200F485F082F583E493FF900123E0FBA3E424
:10FBF20075F00112F3F4A9F0FAEF12F3AA80D222FF
:10FB7700900121EBF0A3EAF0A3E9F0A3ECF0A3EDE9
:01FB8700F08D
:10FB8800E4FFFED3900125E09FEE6480F890012405
:10FB9800E06480984023900121E0FBA3E0FAA3E011
:10FBA800F98F828E8312F37DF599E59830E1FB5346
:09FBB80098FD0FBF00010E80CA88
:01FBC1002221
:10F6AE0090013DEBF0A3EAF0A3E9F0A3ECF0A3ED9B
:01F6BE00F05B
:10F6BF00A3E0FEA3E0FFE4FCFDFB7AE27904F8127D
:10F6CF00F40A90014412F550E4900148F0A3F09031
:10F6DF000140E0FEA3E0FFC3900149E09FEE64808C
:10F6EF00F8900148E0648098400302F798E4FFFE29
:10F6FF00FDFC900144E0F8A3E0F9A3E0FAA3E0FBDE
:10F70F0012F527500302F798900144E0FCA3E0FDA7
:10F71F00A3E0FEA3E0FFEF24FFFFEE34FFFEED3486
:10F72F00FFFDEC34FFFC90014412F550E59830E0FA
:10F73F009EE59830E62190013DE0FBA3E0FAA3E0BF
:10F74F00F9900148E0FEA3E0F5828E83E59912F36C
:10F75F00BC5398BE02F6DE90013DE0FBA3E0FAA396
:10F76F00E0F9900148E0FEA3E0F5828E83E599125F
:10F77F00F3BC5398FE900149E004F0600302F6DEFB
:10F78F00900148E004F002F6DE900148E0FEA3E0AD
:01F79F00FF6A
:01F7A0002246
:08FCAC007F1812FCB412FCB435
:0BFCB4008F99E59830E1FB5398FD228A
:08F951007B017A0179327C0090
:0BF9590090013EEBF0A3EAF0A3E9F000
:10F96400AE04AF05E4FCFDFB7AE27904F812F40A74
:10F97400803CE59820E03FE4FFFEFDFC900141E07F
:10F98400F8A3E0F9A3E0FAA3E0FBD312F52740269D
:10F99400900141E0FCA3E0FDA3E0FEA3E0FFEF241F
:10F9A400FFFFEE34FFFEED34FFFDEC34FFFC90016D
:10F9B4004112F55080BCE59820E004E4FEFF22E506
:10F9C4009890013E30E615E0FBA3E0FAA3E0F9E5E8
:10F9D4009912F3AA5398BE7EFF7FFF22E0FBA3E0B7
:10F9E400FAA3E0F9E59912F3AA5398FE7E007F0189
:01F9F40022F0
:10FC7C007B017A01793D7D017C0012F959D3EF9417
:08FC8C0000EE6480948050E852
:01FC9400224D
:10F9F500900148EBF0A3EAF0A3E9F0A3ECF0A3ED46
:01FA0500F010
:10FA0600E4A3F0A3F090014B74FFF5F012F3F44574
:10FA1600F06075900148E0FBA3E475F00112F3F481
:10FA2600A9F0FA12F364FFEFFE90014DE06EF0A329
:10FA3600E0F0E4A3F0A3F0C3900150E09408900135
:10FA46004FE06480948050BD90014DE0FEA3E0FF3E
:10FA5600EE30E717EF25E0FFEE336410FEEF64218A
:10FA6600FF90014DEEF0A3EFF0800D90014EE025E2
:10FA7600E0F090014DE033F0900150E004F070B7F3
:10FA860090014FE004F080AF90014DE0FEA3E0FF4F
:01FA9600224D
:0FF7A10090013FEBF0A3EAF0A3E9F0EF4E606CAC
:10F7B00090013FE0FBA3E0FAA3E0F9A3E0FCA3E0A3
:10F7C000FD12F9F5900144EEF0A3EFF090013FE057
:10F7D000FBA3E0FAA3E0F9900143E02401FF9001CC
:10F7E00042E034008F82F58312F37DFD7C009001AE
:10F7F00042E0FEA3E0F5828E8312F37DFFEFFEE48C
:10F800002DFFEC3EFE900146F0A3EFF0900144E0A6
:0CF810006E7003A3E06F7076FE7F012293
:10F81C00E4900146F0900144F0A3F0900142E0FE28
:10F82C00A3E0FFA3E0FCA3E0FDC39FEE6480F8EC33
:10F83C00648098502990013FE0FBA3E0FAA3E0F923
:10F84C008D828C8312F37DFF900146E02FF09001A6
:10F85C0045E004F07006900144E004F080BD900196
:10F86C003FE0FBA3E0FAA3E0F9A3E0FEA3E0F582FE
:10F87C008E8312F37DFF900146E0B507057E007F75
:02F88C00012257
:04F88E00E4FEFF2273
:10F00300900121EBF0A3EAF0A3E9F0A3ECF0A3ED68
:01F01300F00C
:10F01400E490012EF0A3F0A37443F0A37401F0E490
:10F02400900133F0A3F0A3F0A3F0900139F0A3749E
:10F0340019F07B017A00799A900126EBF0A3EAF0AB
:10F04400A3E9F04A4B700302F35BE4900137F0A3A9
:10F05400F0900130E0FF600312FCB47D0212F9511C
:10F06400D3EF9400EE648094804068900132E024F1
:10F07400FC601424EC602A2417705890012CE4F0EE
:10F08400A37480F002F11812FC7C7F0612FCB49089
:10F094000135E0FFA3E0900133CFF0A3EFF002F3DA
:10F0A4005B7D0112F951D3EF9400EE6480948040AB
:10F0B40022900132E0FF3395E0FEEF64184E7013A6
:10F0C40012FC7C7F0612FCB474FF900133F0A3F0B1
:10F0D40002F35B900138E004F07006900137E0041D
:10F0E400F0C3900138E09410900137E0648094807C
:10F0F400500302F055900130E0B443067415F00259
:10F10400F04E12FC7C12FCAC90013374FFF0A3149B
:10F11400F002F35B900130E0B4430890012EE4F078
:10F12400A304F0E4900130F0900126E0F9A3E0FAA2
:10F13400A3E0A3C9F0A3EAF0A3E9F0900132E0FF51
:10F14400900129E0FBA3E475F00112F3F4A9F0FAAD
:10F15400EF12F3AA900129E0FBA3E0FAA3E0F990EF
:10F16400012EE07002A3E07E0060047F0180027F34
:10F174000090012DE02FFF90012CE03ECF2403FDF1
:10F18400E43FFC900142E4F0A37402F012F6AE9066
:10F19400012EE07002A3E07C0060047D0180027D0A
:10F1A4000090012DE02DFD90012CE03CCD2403CDF9
:10F1B4003400FCEF6D7002EE6C600302F3509001BA
:10F1C4002EE07002A3E07E0060047F0180027F00D5
:10F1D40090012DE02FFF90012CE03ECF2403CF348B
:10F1E4000090012A8FF012F3DE900126E0FBA3E0E9
:10F1F400FAA3E0F990000212F37DF4FF90000112EB
:10F20400F37DFE6F600302F350900131E0FF6E6006
:10F214000F90000112F37DFEEF146E600302F350B1
:10F2240090012EE0FEA3E0FF900126E0FBA3E0FAAC
:10F23400A3E02403F9E43AFA90012CE0FDA3E09062
:10F244000142CDF0A3EDF012F7A1EF4E700302F3EB
:10F2540050900126E0FBA3E0FAA3E0F9900001122C
:0DF26400F37DFF900131E06F600302F323A2
:10F27100900135E0FEA3E0FFC3900125E09FFF90E0
:10F281000124E09EFE90013BF0A3EFF090012CE001
:10F29100FCA3E0FDC39FEE6480F8EC648098500805
:10F2A10090013BECF0A3EDF090013BE0FEA3E0FF09
:10F2B100D39400EE648094804059900121E0FBA337
:10F2C100E0FAA3E0F9900135E0FCA3E0FDE92DF9B6
:10F2D100EA3CFAC003C002C001AD07900126E0FB81
:10F2E100A3E0FAA3E02403F9E43AFA900141EBF038
:10F2F100A3EAF0A3E9F0D001D002D00312FA97906B
:10F30100013BE0FEA3E0FF900136E02FF0900135D4
:10F31100E03EF0900131E004F0900139E4F0A37493
:02F321001AF0E0
:10F3230090013974FFF5F012F3DEFED3E5F094009B
:10F33300EE64809480501212FC7C12FCAC9001337A
:10F3430074FFF0A374FDF0800F7F06800512FC7C30
:10F353007F1512FCB402F04E900133E0FEA3E0FFF0
:01F363002287
:10F36400BB010689828A83E0225002E722BBFE02A7
:09F37400E32289828A83E49322DA
:10F37D00BB010CE58229F582E5833AF583E0225045
:10F38D0006E92582F8E622BBFE06E92582F8E2228F
:0DF39D00E58229F582E5833AF583E49322A9
:10F3AA00BB010689828A83F0225002F722BBFE0142
:02F3BA00F3223C
:10F3BC00F8BB010DE58229F582E5833AF583E8F087
:10F3CC00225006E92582C8F622BBFE05E92582C833
:02F3DC00F2221B
:10F3DE00C5F0F8A3E028F0C5F0F8E58215827002BA
:06F3EE001583E038F02257
:10F3F400A3F8E0C5F025F0F0E582158270021583CC
:06F40400E0C838F0E82228
:10F40A00E88FF0A4CC8BF0A42CFCE98EF0A42CFCA1
:10F41A008AF0EDA42CFCEA8EF0A4CDA8F08BF0A41F
:10F42A002DCC3825F0FDE98FF0A42CCD35F0FCEB7E
:10F43A008EF0A4FEA9F0EB8FF0A4CFC5F02ECD3943
:0FF44A00FEE43CFCEAA42DCE35F0FDE43CFC22B0
:10F4590075F008758200EF2FFFEE33FECD33CDCC6A
:10F4690033CCC58233C5829BED9AEC99E5829840ED
:10F479000CF582EE9BFEED9AFDEC99FC0FD5F0D6CA
:10F48900E4CEFBE4CDFAE4CCF9A88222B800C1B9F4
:10F499000059BA002DEC8BF084CFCECDFCE5F0CB32
:10F4A900F97818EF2FFFEE33FEED33FDEC33FCEB6B
:10F4B90033FB10D703994004EB99FB0FD8E5E4F926
:10F4C900FA227818EF2FFFEE33FEED33FDEC33FC13
:10F4D900C933C910D7059BE99A4007EC9BFCE99A07
:10F4E900F90FD8E0E4C9FAE4CCFB2275F010EF2F4C
:10F4F900FFEE33FEED33FDCC33CCC833C810D7074C
:10F509009BEC9AE899400AED9BFDEC9AFCE899F886
:0EF519000FD5F0DAE4CDFBE4CCFAE4C8F92219
:10F52700EB9FF5F0EA9E42F0E99D42F0EC6480C85B
:06F5370064809845F022FB
:10F53D00E8600FECC313FCED13FDEE13FEEF13FFAC
:03F54D00D8F122D0
:0CF55000ECF0A3EDF0A3EEF0A3EFF0222E
:10F89200900121EBF0A3EAF0A3E9F0A3E0FBA3E0DF
:10F8A200FAA3E0F912F364700302F93E900121E039
:10F8B200FBA3E0FAA3E0F912F364700302F94A90A1
:10F8C2000124E0F9A3E0FAA3E0A3C9F0A3EAF0A3BC
:10F8D200E9F0900121A3E0FAA3E0F990012AEBF00C
:10F8E200A3EAF0A3E9F0900127E0FBA3E0FAA3E08A
:10F8F200F912F364FF602690012AE0FBA3E0FAA369
:10F90200E0F912F3646F701590012875F00112F39B
:10F91200DE90012BE475F00112F3DE80C99001271D
:10F92200E0FBA3E0FAA3E0F912F3647002800D9009
:10F932000122E475F00112F3DE02F8AE900121E03B
:0FF94200FBA3E0FAA3E0F9227B007A0079002210
:00000001FF
