:0300000002736028
:1073600078FFE4F6D8FD9000007F007E08E4F0A3EB
:0A737000DFFCDEFA7581230273B51D
:026E2300C11A92
:1052BF009003F9E060030253D7301A08C21A900323
:1052CF00F87402F09003F97401F09002F474F7F09F
:1052DF00A304F09002F77401F0A3F09003F8E090AC
:1052EF0002F9F024FE60121460632402600302537B
:1052FF00869003F77408F0807E9003F77416F09091
:10530F000311E09002FAF0E4900311F090031EE015
:10531F00FFA3E09002FBCFF0A3EFF0E4A3F0900324
:10532F0026E09002FEF0900323E09002FFF0E4A34A
:10533F00F0A31229A8000CB7359003057413F0A33E
:10534F007424F0900314E0900307F0802A9003F781
:10535F00740CF0900311E09002FAF0E4900311F056
:10536F0090031EE0FFA3E09002FBCFF0A3EFF0123B
:10537F007F9B9002FDEFF09003F7E024FCFF90027B
:10538F00F6F07E039003F7E024FEFDEEC39D501070
:10539F0074F42EF582E43402F583E02FFF0E80E4DF
:1053AF009003F7E0FE24F2F582E43402F583EFF088
:1053BF0074F32EF582E43402F58374FDF09002F459
:1053CF00E090FE8AF00255219003F9E0640160033A
:1053DF0002552E200E030254F4900313F09003FA9B
:1053EF00F0C20AC20E9003F9F09002D4E09003F8D5
:1053FF00F024FE601C147003025495240260030213
:10540F0054ED9002D7E09002C7F09003F87402F0C9
:10541F00229002D6E0FFA3E0900324CFF0A3EFF099
:10542F00900317E0FFA3E0900321CFF0A3EFF090DC
:10543F0002DAE0FFA3E0900317CFF0A3EFF09002A2
:10544F00DEE09002CAF09002E4E0FD90031BF090C2
:10545F0002E2E0FE9002E1E0FBEBFF90030DEEF0C5
:10546F00A3EFF09002E3E013920B90031BEDF0908B
:10547F0002C7E0C39464748094805003025538903F
:10548F0003F87403F0229002D5E024FF920BA3E0FF
:10549F00FFA3E0900324CFF0A3EFF0900317E0FFFA
:1054AF00A3E0900321CFF0A3EFF09002D8E0FFA389
:1054BF00E0900317CFF0A3EFF09002DAE09002CA6A
:1054CF00F09002DBE090031BF09002DDE0FE900213
:1054DF00DCE0FDEDFF90030DEEF0A3EFF022900363
:1054EF00F87401F022900313E0C394197480948030
:1054FF0040269003FAE0940F748094804004D20AFF
:10550F0080069003FAE004F0E49003F9F09003F8BA
:10551F0004F0E4900313F022900313E004F022E46C
:09552F009003F9F09003F804F078
:015538002250
:03003B0002623A24
:10623A00C0E0C083C082C0D075D000C004C005C011
:03624A0006C00784
:10624D0090FE88E020E00302634B9002C9E0C39406
:10625D0023748094804002E4F090FE8AE0FF900267
:10626D00C9E0FE24CFF582E43402F583EFF0EEFFB2
:10627D007E0070139002CFE064F79002C9700302A4
:10628D00633AE4F0026344EF64014E70139002D060
:10629D00E064F89002C9700302633AE4F0026344CB
:1062AD009002C9E0FF7E00640470139002D2E06496
:1062BD00017069A3E0640270799002C9806F900249
:1062CD00D1E02403FDE433FCED6F7002EC6E7050F1
:1062DD009002C9E024CFF582E43402F583E064FD39
:1062ED00703CFF7E029002C9E0FD14FCEEC39C5091
:1062FD001074CF2EF582E43402F583E02FFF0E806B
:10630D00E474CE2DF582E43402F583E0B5070DD2A9
:10631D000E9002C9E4F09002CEF0801B8014801222
:10632D009002C9E0C39423748094805005E004F07A
:10633D0080059002C9E4F090FE88E054FEF090FED6
:10634D0088E030E13B9002CEE0C3941974809480D4
:10635D005003E004F09003F7E0FF9002CEE0FEC39F
:10636D009F501174F42EF582E43402F583E090FE13
:10637D008AF080059002CEE4F090FE88E054FDF0A6
:10638D00D007D006D005D004D0D0D082D083D0E0B5
:01639D0032CD
:10849D00E4FEEEC39D5015C286EF30E704D2858011
:0C84AD0002C285EF25E0FFD2860E80E6BB
:0184B90022A0
:04841000122746FFEA
:10841400E4FEEEC39408748094805015C286EF3055
:10842400E004D2858002C285EFC313FFD2860E809A
:01843400E166
:018435002224
:10854200AC07D286C2847D037F8012849DAF047DF6
:078552000912849DD284226E
:106B700090035DE0F9A3E0FAA3E09001F9C9F0A366
:106B8000EAF0A3E9F0900360E0F9A3E0FAA3E09053
:106B900001FCC9F0A3EAF0A3E9F0C2847D037FA061
:106BA00012849D7D07E4FF12849D9001FCE0FBA30D
:106BB000E0FAA3E0F912272DFCE4FDECD394007475
:106BC0008094804040EDFB3395E0FAC3EB9407EAF4
:106BD00064809480502FEC30E024ED3395E0FAC3CC
:106BE00074189BFFE49AFE9001FCE0FBA3E0FAA37B
:106BF000E02FF9EA3EFA12272D4480122773ECC3E6
:106C000013FC0D80B67D16ED3395E0C3648094804F
:106C100040399001F9E0FBA3E0FAA3E0F9EDFF337E
:106C200095E08F82F583128410EDFF3395E0FEEF3F
:106C30002402FFE43EFE9001FCE0FBA3E0FAA3E0A7
:106C4000F98F828E831284101D80BCE4FF1284149D
:106C50009001FCE0FBA3E0FAA3E0F99000011284AC
:036C600010D284CB
:016C6300220E
:10843600D284E4FF1285427F241285427F1812857A
:10844600427F011285427FA01285427F0812854233
:058456007F03028542D6
:107E360090FF007408F0D280A37488F0D283A3F078
:107E4600D284A3F0D28790FF08F0D290D291A37487
:107E560082F0A3F0A37488F090FF107408F0A3F0EA
:107E6600A37480F0A37488F090FF18F0A37482F0D6
:107E7600A37428F0A37488F0C2B690FF20F0A3F094
:0D7E8600D2C290FF28F0A3F0A3F0D2CD22CD
:1085590090FEB0E04404F090FFB17401F043A80428
:0685690043A930D2AF224D
:1084D60090FE80E04401F05389FC758CFC758AE0BF
:0B84E600D2A943A90C438810D2AF229A
:0C85DA0090FEA0E4F075BD577428F0225C
:04000E0043BD1022BC
:10847D0090FEA0E4F0438F02E58F5420642070F845
:10848D00538EEFE58E544070FA90FE917402F022F7
:1084F10090FE80E04410F05389CF758DF3758B8029
:0B850100D2AB43A9C0438840D2AF2298
:107B69009001EE12299C90FFA0741CF0A304F090E0
:107B790001EEE0F8A3E0F9A3E0FAA3E0FB7F407E81
:107B8900427D0F7C001228AFC374FF9FFF74FF9ED4
:107B9900FEE49DFDE49CFC78081229768F9D9001F6
:107BA900EEE0F8A3E0F9A3E0FAA3E0FB7F407E4210
:107BB9007D0F7C001228AFC374FF9FF59C759E1240
:0B7BC900759810D2AC43AA01D2AF2285
:1078C1009001EE12299C90FFA8741BF0A314F09074
:1078D10001EEE0F8A3E0F9A3E0FAA3E0FB7F407E2C
:1078E100427D0F7C001228AFC374FF9FFF74FF9E7F
:1078F100FEE49DFDE49CFC780812297690FE8DEF54
:10790100F09001EEE0F8A3E0F9A3E0FAA3E0FB7F39
:10791100407E427D0F7C001228AFC374FF9F90FE12
:107921008EF090FE897412F090FE887410F0D2AE41
:0679310043AA20D2AF22A0
:106FC1009002CC7496F0D21012639E900326E0FFDB
:106FD100C3940574809480400AD3EF94197480940B
:106FE100804006900326740DF0900323E0FFC394C4
:106FF1008274809480400AD3EF94AA748094804074
:10700100069003237496F0900314E0FFC394057473
:10701100809480400AD3EF94FA7480948040069063
:1070210003147482F0900315E0FFC3940F748094ED
:1070310080400AD3EF94B474809480400690031585
:10704100745AF0900315E0FF9002CBE0FED39F50FD
:107051000AEEC3940F7480948050069002CB745A48
:10706100F0900320E0FFC3940174809480400AD320
:10707100EF94037480948040069003207402F09092
:097081000310E070037417F02203
:10803C0012847D90FE927410F0127E3612855912C5
:10804C0084D61284F17F007EC27D017C00127B6994
:10805C007F607E097D007C001278C11285DAE4F520
:10806C00F8128436D280D2C2D290D291D2CD126F75
:0A807C00C1E4FD7F7F7E9002784A88
:107FEE0012803CC28312000E12845B126A77123D1D
:107FFE0072126A77124D72200D051247E980031234
:10800E008397126B70126A771252BF126A77120040
:10801E003E12720D126A779003EFE0C3946474807F
:0E802E00948050030080F0E49003EFF080B5E2
:108598000000000505000F0F000303020F0F080578
:0285A8000505C7
:080003009003FDEFF0D214227E
:10720D00301445C2149003FDE0FF75F003A42498DB
:10721D00F582E43485F583E4939003FBF0EF75F08C
:10722D0003A42499F582E43485F583E4939003FE59
:10723D00F09003FDE075F003A4249AF582E4348503
:10724D00F583E4939003FCF09003FBE0D39400747A
:10725D008094804004D215801CC2159003FCE0D3AD
:10726D00940074809480403F9003FEE0D3940074AA
:10727D008094804004E014F0229003FCE014F0A30D
:10728D00E0FF75F003A42498F582E43485F583E4DA
:10729D00939003FBF0EF75F003A42499F582E43489
:1072AD0085F583E4938005E49003FBF09003FEF0F5
:0172BD0022AE
:107EF0009003D2E06401704D9003F0E0704790026F
:107F0000C6E0C3949674809480503A9003CEE00407
:107F1000F0E0C3943C74809480402AE4F09003D055
:107F2000E004F070069003CFE004F0C39003D0E0CB
:107F300094389003CFE09404400B7F0112000312A9
:067F40007A1C12775222A8
:105D3700900016E0FEA3E0FFD39003D6E09F900308
:105D4700D5E09E5003025EED900014E030E20302BE
:105D57005E81900037E064036003025E81FFFEFD11
:105D6700FC90000FE0F8A3E0F9A3E0FAA3E0FBD36F
:105D77001229655003025E81900016E0FEA3E0FF42
:105D87009003D5E0FCA3E0FD9FFFEC9E900018F088
:105D9700A3EFF0900016ECF0A3EDF090001AA3A388
:105DA700E0FEA3E0FBAA069003D7A3A3E0FEA3E0CF
:105DB700C39BFFEE9A90001EF0A3EFF09003D7E08D
:105DC700FCA3E0FDA3A3E0FF90001A12299C90001A
:105DD70020E0FEA3E0FF90031CE0FCA3E0FDC39FCF
:105DE700FFEC9E900022F0A3EFF0900020ECF0A3D0
:105DF700EDF09003CFE0FEA3E0FF7C007D3C12278F
:105E0700A79003CEE02FFFEC3E9001EEF0FCA3EF4E
:105E1700F0FD900024E0FEA3E0FFC3ED9FFFEC9EA2
:105E2700A3F0A3EFF0900024ECF0A3EDF0900312A1
:105E3700E075F00384900028F09002CAE0FF90001C
:105E470029E4F0A3EFF0E07F00FE900029F0A3EF34
:105E5700F090031BE0FDEDFF900029EEF0A3EFF0BB
:105E6700900364E090002A7006E0547FF08004E01D
:105E77004480F0900014E04404F09003D5E0FEA3C2
:105E8700E0FF7C007D641227B9AA06AB07C3900127
:105E97006BE09B90016AE09A504C9003CFE0FEA321
:105EA700E0FF7C007D3C1227A79003CEE02FFFEC9C
:105EB7003E9001EEF0FCA3EFF0FD90016CE0FEA335
:105EC700E0FFC3ED9FFFEC9E900168F0A3EFF09019
:105ED700016CECF0A3EDF090016AEAF0A3EBF0900F
:065EE7000014E04402F08B
:015EED002292
:10685D009003D2E0FF7E0070149003D5E07002A388
:10686D00E0600302696A9003CCF0A3F022EF6401AB
:10687D004E600302696A900397E0600302696A90B3
:10688D0002C6E0C3949674809480400302696A90B6
:10689D000317E0FEA3E0FF90031AE02FFF9003190A
:1068AD00E03E90031CF0A3EFF09003F0E0600302D4
:1068BD00696A900312E0FF9003CDE02FF09003CCB6
:1068CD00E03400F0D3A3E094389003CCE09404407E
:1068DD00369003D6E004F070069003D5E004F090F6
:1068ED0003CDE024C8F09003CCE034FBF0D390034B
:1068FD00D6E0940F9003D5E09427400B7F01120052
:10690D0003127A1C1277529003CCE0FEA3E0FF7CB9
:10691D00017D03122A4CE47B947A11F9F81228AF09
:10692D00C004C005C006C0079003D5E0FEA3E0FF7C
:10693D007C067D12122A4CE47B19FAF9F81228AF65
:10694D00D003D002D001D000EF2BFFEE3AFEED398F
:0D695D00FDEC38FC9003D712299C125D3729
:01696A00220A
:107C3F009002CDE0FD7C00D3946474809480401951
:107C4F00ED249CFFEC34FFFE7D501227A71227B9BD
:107C5F0074642FFFE43EFE80079002CDE0FF7E00AC
:107C6F007C017D101227A71C7D0A1227B990031ED5
:107C7F00EEF0A3EFF0900324E0FEA3E0FF7C007D85
:107C8F000A1227A7EF2488FFE43EFE0C7D1012276F
:067C9F00B9900312EFF0A2
:017CA50022BC
:10775200E49003CFF0A3F09003CEF09003D5F0A312
:10776200F09003D3F0A3F09003D71229A8000000F1
:1077720000E490031CF0A3F0900319F0A3F090032F
:107782000FF0900168F0A3F090016CF0A3F090016B
:107792006AF0A3F0900018F0A3F0900016F0A3F0A6
:1077A20090001EF0A3F090001A1229A80000000019
:1077B200E4900022F0A3F0900020F0A3F0900026C5
:0E77C200F0A3F0900024F0A3F0900028F02235
:107A1C009003D3E0FEA3E0FFD39003D6E09F900346
:107A2C00D5E09E40599003E2E0F8A3E0F9A3E0FA18
:107A3C00A3E0FB9003D6E09FFF9003D5E09EFEE40D
:107A4C00FCFDEB2FFFEA3EFEED39FDEC38FC90031C
:107A5C00E212299C9003D5E0FFA3E09003D3CFF072
:107A6C00A3EFF09003E2E0FCA3E0FDA3E0FEA3E0B3
:0F7A7C00FF9001FB12299C7F017E901281AB22AB
:10839700900364E0FF600964016005EF6403700601
:1083A700127EF012685D127C3F301B05125B7A80EB
:0A83B70003125539122BA4023257AD
:10850C00C2AF75FDF075FC0F8EFA8FF975FDD27543
:0B851C00FC2D75FDE175FC1ED2AF22A6
:04784A00AB07AA06D8
:10784E00E4FFEFC39480748094805015EF90900005
:10785E0093FE746E2FF582E43401F583EEF00F8003
:10786E00E17F007E9012850C746E2BF58274713A56
:10787E00F583EDF0C2AFEFC3948074809480502EE8
:10788E00EF2400FBE43490FA746E2FF582E4340199
:10789E00F583E0F5FB75FDF075FC0F8AFA8BF97533
:1078AE00FDB475FC4B75FDE175FC1E0F80C8D2AFA3
:0278BE007F0148
:0178C00022A5
:0881AB009001F9EEF0A3EFF0E2
:1081B300E49001FFF09001FFE0C394047480948085
:1081C300502BE0FDFF9001FAE02FFF9001F9E0341E
:1081D30000FE7C007B0174FB2DF9EC3401FA1227BD
:0D81E3002DFD12784A9001FFE004F080C8E5
:0181F000226C
:0E8086009001F9EEF0A3EFF0A3ECF0A3EDF003
:10809400E4A3F09001FDE0C3940274809480502B1B
:1080A400E0FDFF9001FAE02FFF9001F9E03400FEBB
:1080B4007C007B0174FB2DF9EC3401FA12272DFDB1
:0B80C40012784A9001FDE004F080C833
:0180CF00228E
:10639E00909002E4937E007810C333CE33CED8F9BA
:1063AE00FDAC06909001E4937E007818C333CE3393
:1063BE00CED8F9FFEE4CFCEF4DFD909003E4934CDC
:1063CE00FEEDFFA3E493FDEF4DFFEE3395E0FDFCF4
:1063DE009003E212299C909006E493900323F09090
:1063EE009007E493900314F0909008E493900326A2
:1063FE00F090900BE493900364F06403700204F049
:10640E0090900CE4939002CBF090900DE493900357
:10641E0015F090900EE49324FF920CA3E493900356
:10642E0020F0909010E49324FF920DA3E49324FFA8
:10643E00920FA3E49324FF9209A3E493900310F028
:10644E00909014E493900316F0909015E493FEA3AD
:10645E00E493FDEDFF9002F2EEF0A3EFF0909017B3
:10646E00E493FEA3E493FDEDFF90002BEEF0A3EF7B
:10647E00F090901AE4937E007810C333CE33CED8CA
:10648E00F9FDAC06909019E4937E007818C333CED4
:10649E0033CED8F9FFEE4CFCEF4DFD90901BE493FC
:1064AE004CFEEDFFA3E493FDEF4DFFEE3395E0FDC3
:1064BE00FC90002D12299C90901DE493FEA3E49372
:1064CE00FDEDFF900031EEF0A3EFF090901FE493FE
:1064DE00FEA3E493FDEDFF900033EEF0A3EFF02268
:107937009001EE7490F0A3E4F09001EEE0FEA3E076
:10794700FFC39406EE94905015E4FD12784A900117
:10795700EFE004F070E39001EEE004F080DB9001CB
:10796700EE7490F0A3740BF09001EEE0FEA3E0FF3D
:10797700D3947DEE94905015E4FD12784A9001EF70
:10798700E004F070E39001EEE004F080DB7D017F1E
:107997000B7E9012784A7F107E9012784A1D7F7F67
:0579A7007E9002784A09
:103D72001285BC9001EE12299C9003B0E0FF640A08
:103D82006008EF640B6003023E3A9003B0E0FF7EEE
:103D9200007C007D141227A7C374E69FFFE49EFEF9
:103DA2003395E0FDFCE47B3CFAF9F81228249003F9
:103DB200ABE0F8A3E0F9A3E0FAA3E02FFFEA3EFEAE
:103DC200E93DFDE83CFCC004C005C006C007E47B39
:103DD200887A13F9F89001EEE0FCA3E0FDA3E0FE7F
:103DE200A3E0FF1228AF90000FE0F8A3E0F9A3E0F0
:103DF200FAA3E02FFBEA3EFAE93DF9E83CF8D007E6
:103E0200D006D005D004C312296550030240B5E4A0
:103E1200FD7F237E9012784A9001FB1229A80000B0
:103E220000007F247E901281AB75FDF075FC0F754A
:103E3200FD7875FC870240B59003ABE0FCA3E0FD82
:103E4200A3E0FEA3E024E0FFEE3493FEED3404FD94
:103E5200E43CFC9001EEE0F8A3E0F9A3E0FAA3E071
:103E6200FBC3122965500302404D9001EEE0FCA312
:103E7200E0FDA3E0FEA3E0FF9003AB12299C9003B8
:103E8200B1E0FEA3E0FBAA06E4F9F8900399E0FC96
:103E9200A3E0FDA3E0FEA3E0FF1228AF9003AFE092
:103EA20024B3F582E43403F583EFF09003B1E0FE2E
:103EB200A3E0FBAA06E4F9F89003A7E0FCA3E0FD67
:103EC200A3E0FEA3E0FF1228AF9003AFE0FB25E0E2
:103ED200249DF582E43403F583EEF0A3EFF0900322
:103EE200991229A8000000009003A71229A8000037
:103EF2000000EB2401FFE433FE7C007D051227B9AC
:103F02009003AFEDF0E4FFEFC3940574809480500A
:103F12003974B32FF582E43403F583E0FD90039AFC
:103F2200E02DF0900399E03400F0EF25E0249DF5B8
:103F320082E43403F583E0FCA3E0FD9003A8E02DC6
:103F4200F09003A7E03CF00F80BD900399E0FEA340
:103F5200E0FF7C007D051227B9900399EEF0A3EFF4
:103F6200F09003A7E0FEA3E0FF7C007D051227B9D5
:103F72009003A7EEF0A3EFF0D39003A8E09488900B
:103F820003A7E09413500E90039AE0941E900399B5
:103F9200E094004015C39003D0E094789003CFE002
:103FA200940040069003B0740AF09003B0E0640AF3
:103FB200600302403A9003ABE0FCA3E0FDA3E0FE05
:103FC200A3E0FFE47B887A13F9F81228AF9003ABE1
:103FD20012299CE4FFFEFDFC90000FE0F8A3E0F93B
:103FE200A3E0FAA3E0FBD3122965404C9003ABE0B7
:103FF200FCA3E0FDA3E0FEA3E0FF90000FE0F8EFDA
:104002002BFFEE3AFEED39FDEC38FC9003AB1229A2
:104012009C9003B0E0FD7F237E9012784A9003AB20
:10402200E0FCA3E0FDA3E0FEA3E0FF9001FB122968
:104032009C7F247E901281ABE4900399F0A3F090D0
:1040420003A7F0A3F09003B1F0A3F0900399E0F876
:10405200A3E0F9A3E0FAA3E0FB90031BE0FFE4FC7A
:10406200FDFEEB2FFFEE3AFEED39FDEC38FC90033E
:104072009912299C9003A7E0F8A3E0F9A3E0FAA320
:10408200E0FB90031BE0FF9002CAE08FF0A4FFE484
:10409200FCFDEB2FFFEA35F0FEED39FDEC38FC902C
:1040A20003A712299C9003B2E004F070069003B1BA
:1040B200E004F0300A0990030DE4F0A37480F020CC
:1040C2001C1790030DE07002A3E0701A900299E0B1
:1040D200D3940074809480500D9003B0E0C3940A8E
:1040E20074809480407890030DE0FEA3E0FF30E7F7
:1040F200089003B07401F08049EF30E0089003B0FB
:104102007402F0803DEF30E3089003B07403F08056
:1041120031EF30E2028004EF30E1089003B0740521
:10412200F0801FEF30E4089003B07406F080139023
:104132000299E0D394007480948040069003B07496
:1041420008F09003B0E06023900398E0701D9000A7
:1041520014E04410F07F04120003C280800D90032B
:1041620098E06007E49003B0F0D2809003B0E09052
:034172000398F0BF
:014175002227
:10833A004525303264004C005200574149540054DC
:10834A00455354004E4554004F4B0045525200527B
:10835A00554E0053544F500046414E00454E44007E
:107BD400900037E0B407005061907BE4F8282873E4
:107BE400027C0F027C12027BF9027BF9027C1A02EE
:107BF4007C12027C339004007406F0FD7F7D7E903D
:107C040012784A900014E04401F022C2CD227DC8CB
:107C14007C007F64801F9001F87403F0A37420F04B
:107C24007B647A007DC87C007F647E000272BE7D26
:0B7C3400207C037FC87E00127F4622E8
:10661E001282FF9003EDE0FEA3E0FF4E70030267CF
:10662E0040301703026740D217EF64014E600BEF44
:10663E007003EE6410600302670D7F01120003D237
:10664E0017E4FF1285AA900400E0FB24FC601824D6
:10665E00FC603524FE603F24077064D280D2C2D223
:10666E0090D291D2CD8058E4900397F0900311040C
:10667E00F09002C874B4F0900014E04408F0E49076
:10668E000037F09003F18034900312E060319003F4
:10669E00117402F080299003E21229A80000000074
:1066AE0090031574B4F09003207402F0D21090028F
:1066BE00CC7496F0E49003DBF09003DCF0A3F020B2
:1066CE001B70EBFF6405606AEF64066005EF6407FC
:1066DE00701B9003EDE0B4101AA3E0B40015900403
:1066EE0000E0FFC374089FFFE02FF08006900400C7
:1066FE00E004F0900400E0FD7F7D7E9002784A90E9
:10670E000400E0FF7E00C39405748094804023D380
:10671E00EF94077480948050199003EDE0B4011249
:10672E00A3E0B4030D7F01120003D21B9003DB74B0
:03673E0006F02240
:1047E9009003B0E06051E4FF1285AA7BFF7A8379D8
:1047F9003A9003B0E0FF9001FBE4F0A3EFF0E4FF8F
:10480900127D0D9003B0E064086003024AB2900281
:1048190099E0FF7E00C39403748094804003024AA8
:10482900B2EF64017BFF70067A83794080047A8352
:1048390079427D01024989301B05125B7A802590F6
:104849000400E0640B70051255398018900400E0EB
:10485900700FD39003F2E094039003F1E0940040C9
:104869000312661E900400E0B40C004003024AB231
:10487900904880F82828730248A4024961024970C7
:1048890002498C02499C0249E80249E80249E802C6
:104899004A6F024A86024AA20249E09003F1E07097
:1048A90002A3E0706C9003F0E064017064C21090A0
:1048B90002CCF0FF1285AAD280D2C2D290D291D274
:1048C900CDC21D90907DE493FF9003FFF07E00C35D
:1048D900940574809480401FD3EF9407748094806A
:1048E9005015EF64056003024AB2900014E04408D1
:1048F900F0E4900037F0229003FFE0C3940A74803B
:1049090094804006127937026FC19004007401F057
:1049190022C39003F2E094039003F1E09400502540
:10492900E4FF1285AA7BFF7A837944E4FD125EEEE7
:104939009003F1E0FEA3E0FFC374039FFFE49EFE32
:104949007D010285279003FFE0A3F0900311740114
:10495900F09002C874B4F022E4FF1285AA7BFF7AB2
:10496900837949E4FD8019E4FF1285AA9002C7E022
:10497900FF7E007D011285277BFF7A4479F9E4FDEA
:10498900025EEE7FFF1285AAC280C2C2C290C291A6
:10499900C2CD22E4FF1285AAE47B64FAF9F89002F9
:1049A9005CE0FCA3E0FDA3E0FEA3E0FF1228AFE476
:1049B9009001F6F01283C1E47B64FAF9F890029150
:1049C900E0FCA3E0FDA3E0FEA3E0FF1228AF900105
:1049D900F67401F00283C1127C3F122BA4800F12DE
:1049E9007C3F9003647401F0127E93301B03023202
:1049F90057E4FF1285AA900400E06405702C7BFF40
:104A09007A83794EFD125EEE127BD4D39003F2E0E5
:104A1900943C9003F1E0940040399004007407F04D
:104A2900FD7F7D7E9012784A8029900400E064061B
:104A390070087BFF7A8379528015900400E064073F
:104A49007BFF70067A83795580057A837959E4FD6D
:104A5900125EEE9002C8E0FF7E007C007D03122703
:104A6900B97D0102827B7BFF7A83795DE4FD125E69
:104A7900EE127C3F9003977401F0027E937BFF7ADC
:104A8900837962E4FD125EEE7BFF7A8379497D01C9
:104A9900125EEE201D13D21D227BFF7A837966E414
:094AA900FD125EEE301D02C21D7B
:014AB20022E1
:107F9B009003B0E0FD640A6005ED640B70037F0B8A
:107FAB0022300D1FC39003D6E0940A9003D5E094C2
:107FBB0000400D900312E0FE941E74809480501AC2
:107FCB00E4FF22301D037F0B22900312E0FEC394CB
:107FDB001E748094805003E4FF22EE75F01E8424FF
:027FEB0005FF90
:017FED002271
:106EF60025642E25640025642E2530326400256421
:106F060000256C640017193E4141413E00217F0176
:106F160000214345493122414949360C14247F0456
:106F2600725151514E3E4949492640404F506036B4
:106F360049494936324949493E1F2848281F7F4951
:106F46004949363E414141227F4141413E3E494900
:106F560049413F484848403E4149492E7F08080874
:106F66007F00417F4100060101017E7F0814224116
:106F76007E010101017F2010207F7F2010087F3EC7
:106F86004141413E3F484848303C4246433C3F48E9
:106F96004C4A31324949492640407F40407E0101F2
:106FA600017E7C0201027C7F020C027F63140814BE
:0B6FB6006360100F10604345495161FB
:096E250046035D01032701033E51
:1085AA009000307B017A037927AD07AE83AF820250
:0285BA002B6232
:0E5EEE00900226EBF0A3EAF0A3E9F0A3EDF09A
:105EFC00E490022DF0900229E075F003A4245DF5E6
:105F0C0082E43403F583E0F9A3E0FAA3E090022ED7
:105F1C00C9F0A3EAF0A3E9F0900226E0F9A3E0FAB5
:105F2C00A3E090022AC9F0A3EAF0A3E9F090022AB8
:105F3C00E0FBA3E0FAA3E0F912272D602C642E609D
:105F4C000C12272DFF643A6004EFB4200990022D47
:105F5C00E02402F0800790022DE02406F090022B42
:105F6C00E475F00112280E80C490022DE014F0901C
:105F7C000229E0906F0B93FF90022DE0FEC3EF9E81
:105F8C00C313F0900226E0F9A3E0FAA3E090022AF2
:105F9C00C9F0A3EAF0A3E9F090022AE0FBA3E0FA2F
:105FAC00A3E0F912272DFF7003026094B42E189011
:105FBC00022EE0FBA3E0FAA3E0F990022DE0F582BB
:105FCC0075830074018035EFB43A1890022EE0FB13
:105FDC00A3E0FAA3E0F990022DE0F582758300743A
:105FEC00148019EFB4202190022EE0FBA3E0FAA359
:105FFC00E0F990022DE0F582758300E4122785907C
:10600C00022DE02402F08073EFC39441400CEFD3D7
:10601C00945A5006EF24C9FF8010EFC39430405BB4
:10602C00EFD39439505574D02FFFEF75F005A4249D
:10603C000DF9746F35F0FA7BFFC003C002C00190FC
:10604C000229E075F003A4245DF582E43403F583A2
:10605C00E0FBA3E0FAA3E0F990022DE0FF7E00E95B
:10606C002FF9EE3AA801FCAD03D001D002D0037F8A
:10607C000512270790022DE02406F090022BE47500
:08608C00F00112280E025FA4CE
:0160940022E9
:10827B009001F2EEF0A3EFF0AF05C0079001F2E032
:10828B00FAA3E0FB7C007D0AFFAE021227B9900136
:10829B00FBEEF0A3EFF07C007D0AAF03AE021227DA
:1082AB00B9A3ECF0A3EDF07BFF7A6E79F6D0070261
:0282BB007D0D37
:1082BD009001F2EEF0A3EFF0AF05C0079001F2E0F0
:1082CD00FAA3E0FB7C007D64FFAE021227B990019A
:1082DD00FBEEF0A3EFF07C007D64AF03AE0212273E
:1082ED00B9A3ECF0A3EDF07BFF7A6E79FCD0070219
:0282FD007D0DF5
:108527008F828E83AF057BFF7A6F7904AC83AD8230
:0B8537009001FBECF0A3EDF0027D0DC5
:1083C1009001F212299C7BFF7A6F79079001F2E00C
:1083D100FCA3E0FDA3E0FEA3E0FF9001FB12299CBA
:0883E1009001F6E0FF027D0DA2
:0E7D0D009001F7EFF0A3EBF0A3EAF0A3E9F08A
:107D1B009002237401F0A37401F0A374FBF09001A3
:107D2B00F8E0F9A3E0FAA3E0900226C9F0A3EAF089
:107D3B00A3E9F0900223E0F9A3E0FAA3E090022973
:107D4B00C9F0A3EAF0A3E9F07B017A03795712801B
:107D5B00D0900223E4F0A3F0A3F07B017A037957D0
:087D6B009001F7E0FD025EEE5D
:10836A00ED906F0B93FF7E00C003C002ED75F00322
:10837A00A4245DF582E43403F583E0FBA3E0FAA3C9
:0D838A00E0F8AC02AD03D002D003022707DB
:0E7F46009001F2EEF0A3EFF0A3ECF0A3EDF04B
:107F54001285BCE47B05FAF9F81228AFC006C00705
:107F64009001F4E0FEA3E0FF9001F3E02FFF900105
:107F7400F2E03EAB07FAE4F9F8D007D0061228AFD6
:107F8400AE02AF03D39001F3E09F9001F2E09E4074
:067F940003C2CD22D2CD94
:017F9A0022C4
:1072BE009001F2EEF0A3EFF0A3ECF0A3EDF0A3EA51
:0472CE00F0A3EBF04E
:1072D2001285BCE47B05FAF9F81228AFC004C00598
:1072E200C006C0079001F8E0FEA3E0FF9001F3E0C2
:1072F2002FFD9001F2E03EFC9001F7E02DFD9001A0
:10730200F6E03CCD2FFFED3EAB07FAE4F9F8D007EB
:10731200D006D005D0041228AFAE02AF03D390013D
:10732200F3E09F9001F2E09E502E9001F4E0FCA366
:10733200E0FD9001F3E02DFD9001F2E03CFCC3EF93
:107342009DEE9C40169001F7E02DFD9001F6E03C89
:0D735200FCC3EF9DEE9C5003C2CD22D2CDB6
:01735F00220B
:106A77009003EDE07002A3E06006201703026B6F3E
:106A87009003E9E0FFA3E0A3CFF0A3EFF0E49003C6
:106A9700E9F0A3F090FF18E0540FF07F64EFD39470
:106AA700007480948040031F80F320B1099003E9AC
:106AB7007410F0A3E4F090FF18E04480F09003E92D
:106AC700E0FEA3E0FFD39400EE94004061A3E06EE4
:106AD7007003A3E06F70579003E7E004F07006902F
:106AE70003E6E004F0E49003E8F09003E6E0FEA399
:106AF700E0FFC39406EE9400406E9003E9E0FCA328
:106B0700E0FD7003EC641060099003EDECF0A3ED79
:106B1700F022D3EF94C2EE940140109003ED74116C
:106B2700F0A3E4F09003E6F0A38018D216229003B6
:106B3700E9E07002A3E0703030160C9003ED74109A
:106B4700F0A3E4F0C21622E49003E6F0A3F0A3E07A
:106B570004F0E0D3941374809480400C7464F0C202
:086B670017E49003EDF0A3F028
:016B6F002203
:1082FF009003EDE07002A3E0701B9003E9E07002C1
:10830F00A3E07011127AFA9003EDEEF0A3EFF04EA6
:10831F006018C21722127AFABE010FBF030CC217E0
:0B832F009003ED7411F0A37401F02224
:104176006F66666C696E65006C6F63616C00636C7C
:104186006F7564007570646174696E67007561703F
:1041960000756E70726F76002225732220002564EA
:1041A6002000256C64200025642E256420006765A8
:1041B600745F646F776E00726573756C7420257317
:1041C60000226F6B220070726F7073200074696D2D
:1041D600652025642000737461746520222573228E
:1041E600200072756E0073746F700073706565647D
:1041F6002000706F776572202225732220006F667B
:1042060066006F6E006D6F6465202564207479709A
:104216006520222573222000666978656400617531
:10422600746F006469737420256C642063616C206C
:10423600256C6420007374657020256420007374F7
:104246006F7265206D70202564202564202564002A
:1042560073746F726520706F696E7420225F6F765B
:104266006572726964655F74696D652220256C6488
:1042760020256420256420256420256420256420CB
:1042860025642025642025642025640073746F72DC
:104296006520706F696E7420225F6F766572726931
:1042A60064655F74696D652220256C642025642031
:1042B600256420256C64202564202564202564203F
:1042C6002564202564202564002573202573006D50
:1042D60063755F76657273696F6E2025730072650C
:1042E60073746F726500636F6D6D616E64006572E5
:1042F600726F72006572726F722022756E6B6E6FCE
:10430600776E20257322202564006E657400666131
:1043160063746F7279006576656E74206572726F6C
:104326007220256400626C655F636F6E6669672044
:1043360064756D7000626C655F636F6E6669672099
:10434600736574203333312025730074696D6520DD
:10435600706F73697800646F776E006E6F6E6500BC
:104366006765745F70726F70006D6F646500746965
:104376006D650073700073706565640064697374BD
:104386000063616C007374657000616C6C00226D73
:104396006F64653A2564222C2274696D653A25643A
:1043A600222C2273703A25642E2564222C226469FD
:1043B60073743A256C64222C2263616C3A256C6412
:1043C600222C22737465703A256422006275747417
:1043D6006F6E5F69640073746172745F7370656594
:1043E6006400676F616C006D61780073656E736958
:1043F600746976697479006572726F725F696400B8
:104406006C6F6700227B25642C25642C256C642C3C
:10441600256C642C256C642C256C642C25642C2559
:10442600642C25642C256C647D220D0064697370F0
:1044360000696E697469616C006C6F636B007573FB
:104446006572737461746500747970650073746164
:10445600746500706F776572002D31007365745F47
:104466000063616C6900256420256400696E7375BC
:104476007265007570007475746F7269616C004DB9
:1044860049494F5F6D63755F76657273696F6E5FDD
:10449600726571004D49494F5F6D6F64656C5F725F
:1044A6006571004D49494F5F6E65745F6368616E63
:1044B6006765007570646174655F66770055504482
:1044C600410054494E47005B2270726F64756374F5
:1044D600206964223A3333312C006D6F64656C00B9
:1044E6006B736D622E77616C6B696E677061642E9B
:0B44F60076310030303433006F6B0073
:106E2E00606401040000000000000000000000008B
:106E3E000000000000000000000000000000000044
:106E4E000000000000000000000000000000000034
:106E5E000000000000000000000000000000000024
:106E6E000000000000000000000000000000000014
:106E7E000000000000000000000000000000000004
:086E8E000000000000000000FC
:1064EE009001F9EBF0A3EAF0A3E9F09001FF74FF3D
:1064FE00F0A37441F0A37476F0A3E4F0A37407F054
:10650E009001F9E0FBA3E0FAA3E0F91276CBEF33AA
:10651E0095E04F700690003704F0229001FF74FF53
:10652E00F0A37441F0A3747EF0A3E4F0A37405F01D
:10653E009001F9E0FBA3E0FAA3E0F91276CBEF337A
:10654E0095E04F70079000377402F0229001FF74AF
:10655E00FFF0A37441F0A37484F0A3E4F0A37405D8
:10656E00F09001F9E0FBA3E0FAA3E0F91276CBEF8D
:10657E003395E04F70079000377403F0229001FFBF
:10658E0074FFF0A37441F0A3748AF0A3E4F0A37433
:10659E0008F09001F9E0FBA3E0FAA3E0F91276CB44
:1065AE00EF3395E04F70079000377404F02290019E
:1065BE00FF74FFF0A37441F0A37493F0A3E4F0A36F
:1065CE007403F09001F9E0FBA3E0FAA3E0F9127670
:1065DE00CBEF3395E04F70079000377405F02290A3
:1065EE0001FF74FFF0A37441F0A37497F0A3E4F0DD
:1065FE00A37406F09001F9E0FBA3E0FAA3E0F91210
:10660E0076CBEF3395E04F70069000377406F0228C
:106C64009001F112280E9001F0E0FBA3E0FAA3E0FA
:016C7400F926
:0B6C75009001F9EBF0A3EAF0A3E9F0B6
:106C800012272DB4220A9001FAE475F00112280EA1
:106C90009001F9E0FBA3E0FAA3E0F9126D4890013E
:106CA000FCEEF0A3EFF07C007D0A1227A79001FC18
:106CB000EEF0A3EFF09001F9E0FBA3E0FAA3E0F916
:106CC0007D2E1284BA9001F9EBF0A3EAF0A3E9F06B
:106CD0004A605B9001F9E0FBA3E0FAA3E0F99000C1
:106CE00001122746FF1285CB50449001F9E0FBA327
:106CF000E0FAA3E0F990000112274624D0FFE43423
:106D0000FFFE9001FDE02FF09001FCE03EF09000CE
:106D100002122746FFC394354014EFD39439500E26
:106D20009001FDE004F070069001FCE004F0C390D7
:106D300001FCE0648094805004E4F0A3F09001FC36
:076D4000A3E075F003A4FFBE
:016D47002229
:10816300E490002BF0A3F0A31229A800000000E480
:10817300900031F0A3F0A3F0A3F0FDFC7F177E90F5
:108183001280869001FB1229A8000000007F197E4F
:10819300901281ABE4FDFC7F1D7E90128086E4FD8E
:0881A300FC7F1F7E9002808624
:107D73009001FCEBF0A3EAF0A3E9F09001F3E0FB40
:067D8300A3E0FAA3E0F901
:107D89009001F9EBF0A3EAF0A3E9F090022F74FF58
:107D9900F0A37441F0A3749EF09001FCE0F9A3E014
:107DA900FAA3E0900232C9F0A3EAF0A3E9F0900146
:107DB900F9E0FBA3E0FAA3E0F91239549001F9E0E4
:0C7DC900FBA3E0FAA3E02FF9EA3EFA2247
:0A811A007B017A017904E0FD7C008E
:108124009001F9EBF0A3EAF0A3E9F090022F74FFB9
:10813400F0A37441F0A374A4F0AF05A3ECF0A3EF93
:10814400F09001F9E0FBA3E0FAA3E0F912395490AE
:0F81540001F9E0FBA3E0FAA3E02FF9EA3EFA22DB
:0B81F1009001F3E0FBA3E0FAA3E0F92B
:1081FC009001F9EBF0A3EAF0A3E9F090022F74FFE1
:10820C00F0A37441F0A374A8F0A312299C9001F977
:10821C00E0FBA3E0FAA3E0F91239549001F9E0FB7A
:0B822C00A3E0FAA3E02FF9EA3EFA22DB
:057A8B00900315E0FD71
:107A90009001F9EBF0A3EAF0A3E9F0A3EDF0900276
:107AA0002F74FFF0A37441F0A374ADF0EDFB7C00E4
:107AB0007D1EFF7E001227B9A3EEF0A3EFF07C003D
:107AC0007D1EAF037E001227B97E007F03CFCDCF8E
:107AD000CECCCE1227B9A3EEF0A3EFF09001F9E0DF
:107AE000FBA3E0FAA3E0F91239549001F9E0FBA3FB
:0A7AF000E0FAA3E02FF9EA3EFA22C3
:107640001285BCE47B887A13F9F81228AF90000FFA
:10765000E0F8A3E0F9A3E0FAA3E02FFFEA3EFEE999
:107660003DFDE83CFC9001F912299C900000E0FCF3
:10767000A3E0FDA3E0FEA3E0FF9001F9E0F8A3E0A2
:10768000F9A3E0FAA3E0FBD312296540109001F9B9
:10769000E0FCA3E0FDA3E0FEA3E0FF801990000062
:1076A000E0FCA3E0FDA3E0FEA3E02401FFE43EFE36
:1076B000E43DFDE43CFC90000012299C900000E0B9
:0A76C000FCA3E0FDA3E0FEA3E0FF41
:0176CA00229D
:10003E00900015E064016003020777900014E0FF62
:10004E0030E0099000367404F002015CEF30E309F1
:10005E00900036740DF002015C900036E0600302F1
:10006E000157900014E030E40C54EFF09000367419
:10007E000EF002015C900014E030E50C4404F090A8
:10008E000036740CF002015C900014E0FF30E209BF
:10009E00900036740BF002015CEF30E10F54FD90CE
:1000AE000014F0900036740AF002015C900037E004
:1000BE00FF7E0070099000367409F002015C900317
:1000CE00CEE0FD900004E0B50518900312E0FD901F
:1000DE000006E0B5050C900364E0FD900005E06DB0
:1000EE00600EEF64034E70089000367405F0805E6B
:1000FE00900037E064037034FFFEFDFC90000FE0CB
:10010E00F8A3E0F9A3E0FAA3E0FBD31229654003BC
:10011E00D38001C35007900014E030E60F90001416
:10012E00E054BFF09000367411F08022900103E08D
:10013E0004F0E0D394187480948050030220AEE44F
:10014E00F09000367406F08005E4900103F0900004
:10015E0035E060030220AE90009FF0900036E01470
:10016E00B41100400302073190018475F003A4C559
:10017E008325F0C583730205EE0205FD02062502F6
:10018E0006410201F50201B70201C602065002063F
:10019E00B70204920204CF02056D0206C50206D311
:1001AE000206EF0206FD020722789F7C007D017B8E
:1001BE00FF7A4179B402072E900104E090022F706D
:1001CE001974FFF0A37441F0A374BDF0A374FFF093
:1001DE00A37441F0A374C70207167401F0A374014F
:1001EE00F0A3740402071690022F74FFF0A374415B
:1001FE00F0A374CCF07B017A00799F123954749F6E
:10020E002FF974003EFA9001F07401F0A3EAF0A306
:10021E00E9F0900004E0FF9003CEE0FE6F6048909E
:10022E000004EEF090022F74FFF0A37441F0A3745B
:10023E00D3F09003CFE0FEA3E0FF7C007D3C1227BD
:10024E00A79003CEE02FFFEC3E900232F0A3EFF02A
:10025E009001F0E0FBA3E0FAA3E0F912395490010B
:10026E00F1EE8FF012280E900006E0FF900312E0E0
:10027E00FE6F700302031FEE6003EF704990022FB2
:10028E0074FFF0A37441F0A374DCF0900312E0D37A
:10029E009400748094807BFF40067A4179E8800454
:1002AE007A4179EC900232EBF0A3EAF0A3E9F090F8
:1002BE0001F0E0FBA3E0FAA3E0F91239549001F14A
:1002CE00EE8FF012280E900312E0900006F09002CE
:1002DE002F74FFF0A37441F0A374F1F09001F0E0DD
:1002EE00FBA3E0FAA3E0F91239549001F1EE8FF07E
:1002FE0012280E9001F0E0FBA3E0FAA3E0F99003C0
:10030E0012E0FD127A909001F0EBF0A3EAF0A3E96F
:10031E00F0900005E0FF900364E0FE6F70030203AF
:10032E00CCEE64026005EF6402704490022F74FFFD
:10033E00F0A37441F0A374F8F0900364E064027BC0
:10034E00FF70067A42790480047A4279089002326C
:10035E00EBF0A3EAF0A3E9F09001F0E0FBA3E0FAE2
:10036E00A3E0F91239549001F1EE8FF012280E909D
:10037E000364E0FF900005F090022F74FFF0A37469
:10038E0042F0A3740BF0A3E4F0A3EFF064017BFF43
:10039E0070067A42791E80047A427924900234EBF8
:1003AE00F0A3EAF0A3E9F09001F0E0FBA3E0FAA3DA
:1003BE00E0F91239549001F1EE8FF012280E9000F0
:1003CE0007E0FEA3E0FF9003D5E06E7003A3E06F9D
:1003DE00605D9003D5E0FEA3E0FF900007EEF0A372
:1003EE00EFF090022F74FFF0A37442F0A37429F083
:1003FE007C007D0A122A4CA312299CE47F0AFEFD82
:10040E00FC9003D7E0F8A3E0F9A3E0FAA3E0FB1217
:10041E00282490023612299C9001F0E0FBA3E0FA0A
:10042E00A3E0F91239549001F1EE8FF012280E90DC
:10043E000009E0FEA3E0FF90031CE06E7003A3E052
:10044E006F700302073190031CE0FEA3E0FF9000E3
:10045E0009EEF0A3EFF090022F74FFF0A37442F0B8
:10046E00A3743BF0A3EEF0A3EFF09001F0E0FBA33A
:10047E00E0FAA3E0F91239549001F1EE8FF0122850
:10048E000E02073190022F74FFF0A37442F0A37492
:10049E0044F0900168E0FFA3E0900232CFF0A3EFAA
:1004AE00F090016AE0FFA3E0900234CFF0A3EFF0EA
:1004BE0090016CE0FFA3E0900236CFF0A3EF0207AD
:1004CE001612764090023212299C90022F74FFF081
:1004DE00A37442F0A37456F0900016E0FFA3E090D0
:1004EE000236CFF0A3EFF0900018E0FFA3E09002E9
:1004FE0038CFF0A3EFF090001EE0FFA3E090023A99
:10050E00CFF0A3EFF0900020E0FFA3E090023CCFED
:10051E00F0A3EFF0900022E0FFA3E090023ECFF0B8
:10052E00A3EFF0900024E0FFA3E0900240CFF0A3F1
:10053E00EFF0900026E0FFA3E0900242CFF0A3EF91
:10054E00F0900028E0FF900244E4F0A3EFF090005A
:10055E0029E0FFA3E0900246CFF0A3EF02071612A8
:10056E00764090023212299C90022F74FFF0A374F1
:10057E0042F0A37492F090002BE0FEA3E0FF9002F5
:10058E0036EEF0A3EFF0A3EEF0A3EFF090002DE027
:10059E00FCA3E0FDA3E0FEA3E0FF90023A12299C2B
:1005AE00900031E0FEA3E0FF90023EEEF0A3EFF0EC
:1005BE00A3EEF0A3EFF0900033E0FEA3E0FF900275
:1005CE0042EEF0A3EFF0A3EEF0A3EFF0E4A3F0A35E
:1005DE00F07B017A00799F12395412816302073140
:1005EE00789F7C007D017BFF7A4479E002072E9094
:1005FE00022F74FFF0A37442F0A374CFF0A374FF24
:10060E00F0A37444F0A374E0F0A374FFF0A3744459
:10061E00F0A374E602071690022F74FFF0A3744243
:10062E00F0A374D5F0A374FFF0A37444F0A374F98F
:10063E00020716789F7C007D017BFF7A4279E402E7
:10064E00072E90000BE0FEA3E0FFBEEC13BF771069
:10065E009001F074FFF0A37442F0A374ECF0800EDE
:10066E009001F074FFF0A37442F0A374F4F09002C2
:10067E002F74FFF0A37442F0A374FAF09001F0E02F
:10068E00F9A3E0FAA3E0900232C9F0A3EAF0A3E9DD
:10069E00F0A3EEF0A3EFF07B017A00799F123954AC
:1006AE00E490000BF0A3F0807A789F7C007D017BB4
:1006BE00FF7A4379108069789F7C007D017BFF7AF9
:1006CE00437914805B90022F74FFF0A37443F0A360
:1006DE00741CF09003B0E0FF900232E4F0A3EF80C0
:1006EE0027789F7C007D017BFF7A43792B803190A8
:1006FE00022F74FFF0A37443F0A3743BF0A374FFB6
:10070E00F0A37444F0A374F9F07B017A00799F1280
:10071E003954800F789F7C007D017BFF7A4379519D
:10072E00122B459000157402F07B017A00799F120E
:10073E00856F90000DEFF0E0FF04F0749F2FF582AF
:10074E00E43400F583740DF0900036E0900035F03F
:10075E00E4A3F0900013F0E0FF04F0749F2FF582F5
:10076E00E43400F583E0F59922900015E064026010
:10077E000302209D201803022073900103F0C2187B
:10078E00900035E014B4110040030220669007A9D2
:10079E0075F003A4C58325F0C58373021E01021EE6
:1007AE002D021E5D021E8D021DC90207DC021DC92F
:1007BE00022066021ED0021DC9021DC2021DF402D5
:1007CE001EDC021DC9021EEC021F4D021F7DE490AD
:1007DE000104F09001FF74FFF0A37443F0A3745C66
:1007EE00F0A3E4F0A37404F07B017A00793B127657
:1007FE00CBEF3395E04F6003021D9C7B017A0079AD
:10080E00409001F004F0A3EAF0A3E9F09001FF7428
:10081E00FFF0A37443F0A37461F0A3E4F0A3740497
:10082E00F01276CBEF3395E04F7003022066900105
:10083E00FF74FFF0A37443F0A37466F0A3E4F0A377
:10084E007408F09001F0E0FBA3E0FAA3E0F9127651
:10085E00CBEF3395E04F60030211A79001F175F0D5
:10086E000A12280E9001F37401F0A37401F0A37420
:10087E0004F09001F0E0FBA3E0FAA3E0F912856F1B
:10088E009001F0E0FBA3E0FAA3E02FF9EA3EFA9024
:10089E0001F60211749001F6E0FBA3E0FAA3E0F971
:1008AE00C003C002C0019001F0A3E0FAA3E0F9C3B7
:1008BE00D082D083D0E0E99582EA95834003021D71
:1008CE00849001FF74FFF0A37443F0A3746FF0A340
:1008DE00E4F0A37404F09001F0E0FBA3A3E0127621
:1008EE00CBEF3395E04F70209001F175F007122891
:1008FE000E9001F3E0FBA3E0FAA3E0F9900364127B
:10090E0081209001F30211749001FF74FFF0A37423
:10091E0043F0A37474F0A3E4F0A37404F09001F018
:10092E00E0FBA3E0FAA3E0F91276CBEF3395E04FAC
:10093E0070359001F175F00712280E9003CFE0FE8E
:10094E00A3E0FF7C007D3C1227A79003CEE02FFD95
:10095E00EC3EFC9001F3E0FBA3E0FAA3E0F9128178
:10096E00249001F30211749001FF74FFF0A37443FD
:10097E00F0A37479F0A3E4F0A37402F09001F0E018
:10098E00FBA3E0FAA3E0F91276CBEF3395E04F60CC
:10099E0003020A209001FF74FFF0A37443F0A374C6
:1009AE007CF0A3E4F0A37405F09001F0E0FBA3E06B
:1009BE00FAA3E0F91276CBEF3395E04F9001F17088
:1009CE000575F0088004E475F00512280E90036496
:1009DE00E06013900312E0600D900363E0C3940592
:1009EE0074809480400590031280039002C8E0FF4B
:1009FE009001EEE4F0A3EFF09001F3E0FBA3E0FA38
:100A0E00A3E0F99001EEA3E0FD127A909001F302BB
:100A1E0011749001FF74FFF0A37443F0A37482F07D
:100A2E00A3E4F0A37404F09001F0E0FBA3E0FAA3BA
:100A3E00E0F91276CBEF3395E04F70219001F1750E
:100A4E00F00712280E9003D5E0FEA3E0FF7C007D98
:100A5E000A122A4C1281F19001F30211749001FFD7
:100A6E0074FFF0A37443F0A37487F0A3E4F0A374AF
:100A7E0003F09001F0E0FBA3E0FAA3E0F91276CBCD
:100A8E00EF3395E04F70299001F175F00612280EA4
:100A9E00E47F0AFEFDFC9003D7E0F8A3E0F9A3E0A3
:100AAE00FAA3E0FB1228241281F19001F3021174D3
:100ABE009001FF74FFF0A37443F0A3748BF0A3E4D2
:100ACE00F0A37404F09001F0E0FBA3E0FAA3E0F9C8
:100ADE001276CBEF3395E04F70259001F175F0074C
:100AEE0012280E9001F3E0FBA3E0FAA3E0F99003C5
:100AFE001CE0FCA3E0FD1281249001F3021174901E
:100B0E0001FF74FFF0A37443F0A37490F0A3E4F01C
:100B1E00A37403F09001F0E0FBA3E0FAA3E0F91256
:100B2E0076CBEF3395E04F6003020BE290022F7409
:100B3E00FFF0A37443F0A37494F0900364E0FF906D
:100B4E000232E4F0A3EFF09003CFE0FEA3E0FF7CCF
:100B5E00007D3C1227A79003CEE02FFFEC3E9002C3
:100B6E0034F0A3EFF0900312E0FBFF7E007D1E1227
:100B7E0027B9900236EEF0A3EFF0EB75F01E84AFBE
:100B8E00F07E007C007D031227B9A3EEF0A3EFF0F8
:100B9E009003D5E0FEA3E0FF7C007D0A122A4C9064
:100BAE00023A12299CE47F0AFEFDFC9003D7E0F87E
:100BBE00A3E0F9A3E0FAA3E0FB12282490023E1270
:100BCE00299C90031CE0FFA3E0900242CFF0A3EF1C
:100BDE00F0020E989001FF74FFF0A37443F0A3741B
:100BEE00D2F0A3E4F0A37409F09001F0E0FBA3E0CF
:100BFE00FAA3E0F91276CBEF3395E04F7034900103
:100C0E00F175F00C12280E9001F3E0FBA3E0FAA3AD
:100C1E00E0F9900038E0FCA3E0FD1281249001F38E
:100C2E00EBF0A3EAF0A3E9F0E4900038F0A3F002B1
:100C3E0008A39001FF74FFF0A37443F0A374DCF0DB
:100C4E00A3E4F0A3740BF09001F0E0FBA3E0FAA391
:100C5E00E0F91276CBEF3395E04F70229001F175EB
:100C6E00F00E12280E9001F3E0FBA3E0FAA3E0F9D8
:100C7E009002CBE0FD127A909001F3021174900174
:100C8E00FF74FFF0A37443F0A374E8F0A3E4F0A3A1
:100C9E007404F09001F0E0FBA3E0FAA3E0F9127601
:100CAE00CBEF3395E04F70369001F175F0071228B7
:100CBE000E9001F3E0FBA3E0FAA3E0F99003161205
:100CCE0081209001F3EBF0A3EAF0A3E9F09002F299
:100CDE00E0FCA3E0FD1281249001F3021174900157
:100CEE00FF74FFF0A37443F0A374EDF0A3E4F0A33C
:100CFE007403F09001F0E0FBA3E0FAA3E0F91276A2
:100D0E00CBEF3395E04F701D9001F175F006122870
:100D1E000E9001F3E0FBA3E0FAA3E0F9127A8B90B8
:100D2E0001F30211749001FF74FFF0A37443F0A35A
:100D3E0074F1F0A3E4F0A3740BF09001F0E0FBA3C8
:100D4E00E0FAA3E0F91276CBEF3395E04F702090E6
:100D5E0001F175F00E12280E9001F3E0FBA3E0FAFC
:100D6E00A3E0F99003201281209001F302117490F8
:100D7E0001FF74FFF0A37443F0A374FDF0A3E4F03D
:100D8E00A37408F09001F0E0FBA3E0FAA3E0F912DF
:100D9E0076CBEF3395E04F70209001F175F00B128A
:100DAE00280E9001F3E0FBA3E0FAA3E0F99003B064
:100DBE001281209001F30211749001FF74FFF0A3D1
:100DCE007444F0A37406F0A3E4F0A37403F090014E
:100DDE00F0E0FBA3E0FAA3E0F91276CBEF3395E057
:100DEE004F6003020EA490022F74FFF0A37444F020
:100DFE00A3740AF09002CDE0FF900232E4F0A3EF6C
:100E0E00F0900312E0FF900234E4F0A3EFF09002B2
:100E1E005CE0FCA3E0FDA3E0FEA3E0FF900236122F
:100E2E00299C900291E0FCA3E0FDA3E0FEA3E0FF6D
:100E3E0090023A12299C900260E0FCA3E0FDA3E030
:100E4E00FEA3E0FF90023E12299C900295E0FCA3C7
:100E5E00E0FDA3E0FEA3E0FF90024212299C900366
:100E6E0011E0900246F090031BE0900247F09002D2
:100E7E00CAE0900248F09003E2E0FCA3E0FDA3E09C
:100E8E00FEA3E0FF90024912299C7B017A017904AE
:100E9E00123954021D849001FF74FFF0A37442F0C6
:100EAE00A37424F0A3E4F0A37404F09001F0E0FB2B
:100EBE00A3E0FAA3E0F91276CBEF3395E04F70235F
:100ECE009001F175F00712280E9001F3E0FBA3E0FC
:100EDE00FAA3E0F9A209E4FC33FD1281249001F398
:100EEE000211749001FF74FFF0A37444F0A37432E6
:100EFE00F0A3E4F0A37404F09001F0E0FBA3E0FA99
:100F0E00A3E0F91276CBEF3395E04F70209001F10C
:100F1E0075F00712280E9001F3E0FBA3E0FAA3E0B0
:100F2E00F99003101281209001F30211749001FFC9
:100F3E0074FFF0A37444F0A37437F0A3E4F0A37429
:100F4E0007F09001F0E0FBA3E0FAA3E0F91276CBF4
:100F5E00EF3395E04F70339001F175F00A12280EC1
:100F6E009001F3E0FBA3E0FAA3E0F990900EE49376
:100F7E0025E0FFE433FE90907EE493FDEEFCEF4D12
:100F8E00FD1281249001F30211749001FF74FFF0A1
:100F9E00A37444F0A3743FF0A3E4F0A37404F090A0
:100FAE0001F0E0FBA3E0FAA3E0F91276CBEF339564
:100FBE00E04F702F9001F175F00712280E9001F39B
:100FCE00E0FBA3E0FAA3E0F990900BE493640570C4
:100FDE0005FC7D0180047C007D001281249001F3CC
:100FEE000211749001FF74FFF0A37441F0A37476A4
:100FFE00F0A3E4F0A37407F09001F0E0FBA3E0FA95
:10100E00A3E0F91276CBEF3395E04F70259001F106
:10101E0075F00B12280E9001F3E0FBA3E0FAA3E0AB
:10102E00F990002BE0FCA3E0FD1281249001F30265
:10103E0011749001FF74FFF0A37444F0A37444F094
:10104E00A3E4F0A37409F09001F0E0FBA3E0FAA38F
:10105E00E0F91276CBEF3395E04F70209001F175E9
:10106E00F00C12280E9001F3E0FBA3E0FAA3E0F9D6
:10107E009003D21281209001F30211749001FF743B
:10108E00FFF0A37444F0A3744EF0A3E4F0A3740431
:10109E00F09001F0E0FBA3E0FAA3E0F91276CBEFBB
:1010AE003395E04F70269001F175F00712280E90DF
:1010BE000364E064017BFF70067A42791E80047A35
:1010CE00427924127D739001F30211749001FF7422
:1010DE00FFF0A37444F0A37453F0A3E4F0A37405DB
:1010EE00F09001F0E0FBA3E0FAA3E0F91276CBEF6B
:1010FE003395E04F70239001F175F00812280E9091
:10110E000312E07BFF70067A4179EC80047A417914
:10111E00E8127D739001F3804D9001FF74FFF0A3F0
:10112E007444F0A37459F0A3E4F0A37405F0900195
:10113E00F0E0FBA3E0FAA3E0F91276CBEF3395E0F3
:10114E004F702E9001F175F00812280E900364E096
:10115E0064027BFF70067A42790480047A42790831
:10116E00127D739001F3EBF0A3EAF0A3E9F002080D
:10117E00A390022F74FFF0A37444F0A3745FF09059
:10118E0001F3E0FBA3E0FAA3E0F91239549001F465
:10119E00EE8FF012280E021D849001FF74FFF0A353
:1011AE007444F0A37462F0A3E4F0A37404F090010D
:1011BE00F0E0FBA3E0FAA3E0F91276CBEF3395E073
:1011CE004F6003021B4F9001F175F00412280E9030
:1011DE0001FF74FFF0A37443F0A3746FF0A3E4F067
:1011EE00A37404F09001F0E0FBA3E0FAA3E0F9127F
:1011FE0076CBEF3395E04F60030212999001F175B3
:10120E00F00512280E9001F0E0FBA3E0FAA3E0F93E
:10121E0012272D24D0FFE434FFFE9001EEF0A3EF51
:10122E00F0900364E06F7001EE60549001EEE0FE0A
:10123E00A3E0FFC3EE648094804044D3EF9403EEAA
:10124E0064809480503990900BE4936405700C90F8
:10125E0001EEE07004A3E06402700B9001EEA3E0D7
:10126E00900364F080069003647405F0D2197F0138
:10127E00120003900364E064037004900363F07B38
:10128E00017A017904900364021C609001FF74FFDF
:10129E00F0A37443F0A3747CF0A3E4F0A37405F000
:1012AE009001F0E0FBA3E0FAA3E0F91276CBEF3366
:1012BE0095E04F70469003DB7412F09001F1E475E7
:1012CE00F006126C679002C8EFF0700E900364E0A7
:1012DE0070089003977402F08015900315E0FF904C
:1012EE0002C8E0D39F4008EFF09003DB740FF07B51
:1012FE00017A0179049002C802189B9001FF74FFD5
:10130E00F0A37444F0A3744EF0A3E4F0A37404F0BD
:10131E009001F0E0FBA3E0FAA3E0F91276CBEF33F5
:10132E0095E04F60030213DB9001F175F006122871
:10133E000E900364E0FF64057003021D84EF6402E7
:10134E00701090900B9364057008900364740502FE
:10135E00144B9001FF74FFF0A37442F0A37424F0B9
:10136E00A3E4F0A37404F09001F0E0FBA3E0FAA371
:10137E00E0F91276CBEF3395E04F7010900364E0F6
:10138E007003021D84E4F0D21902144C9001FF7414
:10139E00FFF0A37442F0A3741EF0A3E4F0A374054F
:1013AE00F09001F0E0FBA3E0FAA3E0F91276CBEFA8
:1013BE003395E04F6003021D7A900364E064017080
:1013CE0003021D847401F0D219FF021B469001FF27
:1013DE0074FFF0A37444F0A37453F0A3E4F0A37469
:1013EE0005F09001F0E0FBA3E0FAA3E0F91276CB52
:1013FE00EF3395E04F60030214929001F175F00700
:10140E0012280E9001FF74FFF0A37441F0A374EC48
:10141E00F0A3E4F0A37404F09001F0E0FBA3E0FA73
:10142E00A3E0F91276CBEF3395E04F70169003D20E
:10143E00E064047003021D849003977402F07F0130
:10144E00021B469001FF74FFF0A37441F0A374E8F1
:10145E00F0A3E4F0A37403F09001F0E0FBA3E0FA34
:10146E00A3E0F91276CBEF3395E04F70149003D2D0
:10147E00E06003021D849003977403F07F01021B4A
:10148E0046021D7A9001FF74FFF0A37444F0A3741A
:10149E0059F0A3E4F0A37405F09001F0E0FBA3E093
:1014AE00FAA3E0F91276CBEF3395E04F6003021505
:1014BE00469001F175F00712280E9001FF74FFF0AF
:1014CE00A37442F0A37408F0A3E4F0A37402F090A6
:1014DE0001F0E0FBA3E0FAA3E0F91276CBEF33952F
:1014EE00E04F7014900364E064026003021D849068
:1014FE0003EDF0A304021BE99001FF74FFF0A37447
:10150E0042F0A37404F0A3E4F0A37403F09001F08E
:10151E00E0FBA3E0FAA3E0F91276CBEF3395E04FB0
:10152E007013900364E064027003021D847402F071
:10153E007F01021B46021D7A9001FF74FFF0A37417
:10154E0043F0A374EDF0A3E4F0A37403F09001F064
:10155E00E0FBA3E0FAA3E0F91276CBEF3395E04F70
:10156E00707675F004126C64900315EFF07E00D364
:10157E0094B474809480400574B4F08011C3EF94D9
:10158E000FEE648094805006900315740FF07B016B
:10159E007A017904127A8B900315E0FD7F0D7E900F
:1015AE0012784A900315E0FF9002CBE0D39F400FD4
:1015BE00EFF09001EEA3E0FD7F0C7E9012784A20B2
:1015CE000F0BD20F7D017F117E9012784A9003DBB4
:1015DE00740FF07F01021B469001FF74FFF0A3749D
:1015EE0043F0A374F1F0A3E4F0A3740BF09001F0B8
:1015FE00E0FBA3E0FAA3E0F91276CBEF3395E04FD0
:10160E0070579001F175F00C12280E9001F0E0FB6E
:10161E00A3E0FAA3E0F9126D489001EEEEF0A3EF0D
:10162E00F0C39401EE6480948040179001EEE0FECA
:10163E00A3E0FFD39403EE648094805005900320C2
:10164E00EFF090032012811A900320E0FD7F0F7EB1
:10165E009012784A7F01021B469001FF74FFF0A39F
:10166E007444F0A37467F0A3E4F0A37404F0900143
:10167E00F0E0FBA3E0FAA3E0F91276CBEF3395E0AE
:10168E004F70589001F175F00512280E9001F0E0A0
:10169E00FBA3E0FAA3E0F9126D489001EEEEF0A381
:1016AE00EFF064014E700E9003ED04F0A37411F090
:1016BE00C217021A2F9001EEE07002A3E06003023F
:1016CE001A2F900364E064046003021A2F900397AC
:1016DE007402F07F01120003021A2F9001FF74FFB3
:1016EE00F0A37443F0A374E8F0A3E4F0A37404F041
:1016FE009001F0E0FBA3E0FAA3E0F91276CBEF3312
:10170E0095E04F60030217F99001F175F00512286C
:10171E000E9001F0E0FBA3E0FAA3E0F912272DFFF3
:10172E00C3943050030217C1EFD394324003021713
:10173E00C1900001122746642C707812272D24D0F8
:10174E00FFE434FFFE9001EEF0A3EFF0900316E0FD
:10175E006F7001EE60179001EEA3E0900316F0FD9E
:10176E007F147E9012784A90030F7402F09001F06D
:10177E00E0FBA3E0FAA3E02402F9E43AFA126D4882
:10178E009001EEEEF0A3EFF09002F2E06E7003A384
:10179E00E06F601F9001EEE0FEA3E0FF9002F2EE1C
:1017AE00F0FCA3EFF0FD7F157E9012808690030F64
:1017BE007402F090022F74FFF0A37444F0A3746CC3
:1017CE00F0900316E0FF900232E4F0A3EFF09002E7
:1017DE00F2E0FFA3E0900234CFF0A3EFF07B017AAA
:1017EE000179041239547F01021B469001FF74FFE8
:1017FE00F0A37443F0A374DCF0A3E4F0A3740BF035
:10180E009001F0E0FBA3E0FAA3E0F91276CBEF3300
:10181E0095E04F60030218A575F00C126C647E0003
:10182E009001EEEEF0A3EFF0D394B4748094805058
:10183E00539001EEE0FEA3E0FFC3940FEE6480949C
:10184E008040419002CBE0FDEF6D7001EE6035906F
:10185E000315E0FF7E00D39001EFE09F7480F890B7
:10186E0001EEE0648098400BEEF0A3EFF09003DB06
:10187E00740FF09001EEA3E0FD9002CBF07F0C7E92
:10188E009012784A7B017A0179049002CBE0FD1226
:10189E007A907F01021B469001FF74FFF0A3744201
:1018AE00F0A37424F0A3E4F0A37404F09001F0E02C
:1018BE00FBA3E0FAA3E0F91276CBEF3395E04F707D
:1018CE00729001F175F00512280E9001F0E0FBA365
:1018DE00E0FAA3E0F912272D24D0FFE434FFFE90A6
:1018EE0001EEF0A3EFF0C3EE6480948040319001DE
:1018FE00EEE0FEA3E0FFD39401EE64809480501FCF
:10190E00A209E433FDEF6D7001EE60139001EEA3BA
:10191E00EE4F24FF9209AD077F127E9012784A7B1C
:10192E00017A017904A209E4FC33FD1281247F01BE
:10193E00021B469001FF74FFF0A37444F0A37432AF
:10194E00F0A3E4F0A37404F09001F0E0FBA3E0FA3E
:10195E00A3E0F91276CBEF3395E04F70639001F16F
:10196E0075F00512280E9001F0E0FBA3E0FAA3E05B
:10197E00F9126D489001EEEEF0A3EFF0D39400EE65
:10198E0064809480402F9001EEE0FEA3E0FFD3949C
:10199E001FEE64809480501D900310E0FDEF6D707B
:1019AE0001EE60119001EEA3E0900310F0FD7F13A5
:1019BE007E9012784A90031012811A7F01021B4604
:1019CE009001FF74FFF0A37444F0A37472F0A3E4CB
:1019DE00F0A37406F09001F0E0FBA3E0FAA3E0F9A7
:1019EE001276CBEF3395E04F70489001F175F0070A
:1019FE0012280E9001F0E0FBA3E0FAA3E0F9122703
:101A0E002D24D0FFE434FFFE9001EEF0A3EFF0643E
:101A1E00014E700D9001EEA3E0FD7F7E7E90127858
:101A2E004A7B017A0179049001EEE0FCA3E0FD020D
:101A3E001C649001FF74FFF0A37444F0A3743FF094
:101A4E00A3E4F0A37404F09001F0E0FBA3E0FAA38A
:101A5E00E0F91276CBEF3395E04F705C9001F175A3
:101A6E00F00512280E900312E0702E9001F0E0FBAC
:101A7E00A3E0FAA3E0F912272D24D0FFE434FFFEF1
:101A8E009001EEF0A3EFF064014E70047F0580022A
:101A9E007F01900364EFF0D2197B017A01790490F3
:101AAE000364E064057005FC7D0180047C007D000C
:101ABE001281247F01021B469001FF74FFF0A37474
:101ACE0041F0A37476F0A3E4F0A37407F09001F054
:101ADE00E0FBA3E0FAA3E0F91276CBEF3395E04FEB
:101AEE00705C9001F175F00812280E9001F0E0FB89
:101AFE00A3E0FAA3E0F912272D24D0FFE434FFFE71
:101B0E009001EEF0A3EFF04E70051281638016D3B4
:101B1E0090002CE0940090002BE094004007900081
:101B2E0014E04420F07B017A0179049001EEE0FC90
:101B3E00A3E0FD1281247F01120003021D84021D09
:101B4E007A9001FF74FFF0A37443F0A3747CF0A3AA
:101B5E00E4F0A37405F09001F0E0FBA3E0FAA3E03B
:101B6E00F91276CBEF3395E04F70769001F175F068
:101B7E000612280E9001FF74FFF0A37444F0A374B4
:101B8E0079F0A3E4F0A37402F09001F0E0FBA3E07F
:101B9E00FAA3E0F91276CBEF3395E04F700990037C
:101BAE00EDF0A3740280349001FF74FFF0A3744330
:101BBE00F0A3745CF0A3E4F0A37404F09001F0E0E1
:101BCE00FBA3E0FAA3E0F91276CBEF3395E04F607A
:101BDE0003021D849003EDF0A37404F0C217021DDE
:101BEE00849001FF74FFF0A37444F0A3747CF0A3FF
:101BFE00E4F0A37408F09001F0E0FBA3E0FAA3E098
:101C0E00F91276CBEF3395E04F70519001F175F0EC
:101C1E000912280E9001F0E0FBA3E0FAA3E0F912FE
:101C2E006D489001EEEEF0A3EFF0C3EE6480948069
:101C3E0040179001EEE0FEA3E0FFD39407EE648020
:101C4E0094805005900363EFF07B017A0179049044
:101C5E000363E0FD7C00128124021D849001FF7459
:101C6E00FFF0A37444F0A37485F0A3E4F0A37414FE
:101C7E00F09001F0E0FBA3E0FAA3E0F91276CBEFCF
:101C8E003395E04F7006900036021E879001FF7468
:101C9E00FFF0A37444F0A3749AF0A3E4F0A3740EBF
:101CAE00F09001F0E0FBA3E0FAA3E0F91276CBEF9F
:101CBE003395E04F7006900036021E579001FF7468
:101CCE00FFF0A37444F0A374A9F0A3E4F0A3740F7F
:101CDE00F09001F0E0FBA3E0FAA3E0F91276CBEF6F
:101CEE003395E04F70179001F175F01012280E9099
:101CFE0001F0E0FBA3E0FAA3E0F9021ED69001FF8B
:101D0E0074FFF0A37444F0A374B9F0A3E4F0A374C9
:101D1E0009F09001F0E0FBA3E0FAA3E0F91276CB14
:101D2E00EF3395E04F7045900312E0D3940074802A
:101D3E00948040030220667D017F7F7E9012784A58
:101D4E00E4FF1285AA7BFF7A4479C3E4FD125EEEAE
:101D5E007BFF7A4479C87D01125EEE126B7075FDC1
:101D6E00F075FC0F75FD7875FC87800A90000B747A
:101D7E00ECF0A37477F090000BE07002A3E0700417
:101D8E007F0780027F08900036EFF00220669001F8
:101D9E00FF74FFF0A37442F0A374F4F0A3E4F0A375
:101DAE007405F07B017A00793B1276CBEF3395E028
:101DBE004F022066900014E054FBF09001FF74FF78
:101DCE00F0A37444F0A374FEF0A3E4F0A37402F045
:101DDE007B017A00793B1276CBEF3395E04F6003AF
:101DEE00022066021F41900014E054FBF054DFF015
:101DFE000220609001FF74FFF0A37444F0A374E618
:101E0E00F0A3E4F0A37412F07B017A00793B127612
:101E1E00CBEF3395E04F9000367002805C802A90B5
:101E2E0001FF74FFF0A37444F0A374FEF0A3E4F07A
:101E3E00A37402F07B017A00793B1276CBEF3395D7
:101E4E00E04F900036700280307402F002206690EF
:101E5E0001FF74FFF0A37444F0A374FEF0A3E4F04A
:101E6E00A37402F07B017A00793B1276CBEF3395A7
:101E7E00E04F9000367002803A7403F002206690B4
:101E8E0001FF74FFF0A37444F0A374FEF0A3E4F01A
:101E9E00A37402F07B017A00793B1276CBEF339577
:101EAE00E04F7015900014E054FEF0E4900037F00F
:101EBE00900036740FF00220669000367404F00223
:101ECE0020667B017A00793B1264EE022066900058
:101EDE0014E054F7F09000367409F0022066900179
:101EEE00FF74FFF0A37444F0A374CDF0A3E4F0A349
:101EFE007412F07B017A00793B1276CBEF3395E0CA
:101F0E004F70339001FC74FFF0A37444F0A374F986
:101F1E00F07B017A00793B12714E9001F0EBF0A349
:101F2E00EAF0A3E9F09001F0E0FBA3E0FAA3E04AA7
:101F3E004B60030220609000367410F00220669011
:101F4E0001FF74FFF0A37444F0A374FEF0A3E4F059
:101F5E00A37402F07B017A00793B1276CBEF3395B6
:101F6E00E04F90003670057406F080037410F07B1D
:101F7E00017A00793B12696B90000F12299C7F5AEF
:101F8E007ED47D6E7C5A90000FE0F8A3E0F9A3E0BA
:101F9E00FAA3E0FBD3122965500302205690000FDE
:101FAE00E0FCA3E0FDA3E0FEA3E0FFC004C005C07B
:101FBE0006C0071285BCE47B887A13F9F81228AFA5
:101FCE00A804A905AA06AB07D007D006D005D004F1
:101FDE00C3EF9BFFEE9AFEED99FDEC98FC90000F7F
:101FEE0012299C9003B0E07069909023939003B0F7
:101FFE00F0D39400748094804058909025E4937EA2
:10200E00007810C333CE33CED8F9FDAC06909024B1
:10201E00E4937E007818C333CE33CED8F9FFEE4C5E
:10202E00FCEF4DFD909026E4934CFEEDFFA3E49360
:10203E00FDEF4DFFEE3395E0FDFC9003AB12299CB6
:10204E00900036740EF0801090000F1229A8000038
:10205E0000009000367406F0E4900035F090001504
:10206E0004F0E4801E90003AE0C394FA74809480E9
:10207E0040169000157401F0900035E0A3F0E49046
:10208E000035F090003AF02290003AE004F0222061
:10209E00100EE4900103F090001504F0900036F05D
:0120AE00220F
:030023000273FA6B
:1073FA00C0E0C083C082C0D075D000C00730984EAC
:10740A0090000EE0FF243BF582E43400F583E59911
:10741A00F0743B2FF582E43400F583E0FFB40D17D6
:10742A0090000EE0243BF582E43400F583E4F0D2C8
:10743A001890000EF08015EF601290000EE004F034
:10744A00E0C39464748094804002E4F0C298309956
:10745A002790000DE0FF900013E0C39F5013E0FF58
:10746A0004F0749F2FF582E43400F583E0F59980E7
:10747A0005900013E4F0C299D007D0D0D082D0830F
:03748A00D0E0321D
:10708A0043414C49004C4F434B0053544F50004E20
:10709A0045570054494D4500256420253032640087
:1070AA0025643A2530326400535044004B4D004366
:1070BA00414C005354455000463100463200463395
:1070CA00004D41580046414354004F4646004F4E3A
:1070DA0000474F414C00444F4E450045253032642D
:1070EA000057414954000915151200107F11000A72
:1070FA0015150F0100111F091000107F11111F092A
:10710A0010100E15150D0009151512000E15150D86
:10711A00107F11113F242418023E1220201C2A2A13
:10712A001A00122A2A2400122A2A24000000000027
:10713A0000000000000C1E1E0C00000000000000F1
:04714A000000000041
:100026009003D2EFF0E49003F1F0A3F09003F0F028
:050036009003D1F0224F
:1077D000900364E014601B14602B14602F2403706A
:1077E00068D2C29002C7E0C3946E74809480405007
:1077F0008053D2C29002C7E0C3946E7480948040DC
:1078000002803D8040C2C2D290D29122900363E0B8
:10781000FFC39404748094804017EF64086012D210
:10782000C29002C7E0946E748094804002801680FB
:107830000FD2C29002C7E0C3946E7480948040055A
:0A784000C290D29122D290C2912290
:10325700E4FF1285AA3010030238809003D2E024DD
:10326700FC700302377814700302379A240524F997
:1032770050030238EE1277D0900364E06404701BA9
:103287009003D2E064066013D280D2C2D290D2916A
:10329700D2CD7BFF7A70798A023355900037E0B43C
:1032A700070050529032B2F82828730232CF023208
:1032B700CF0232CB0232C70232E40232D70232D710
:1032C700D2CD8032C2CD802E7DC87C007F6480063F
:1032D7007D207C037FC87E00127F4680199001F80D
:1032E7007403F0A37420F07B647A007DC87C007FB0
:1032F700647E001272BE900364E06405700FD2C250
:10330700D290D2917BFF7A70798F0237559003D292
:10331700E0640670239003DCF0A3F07BFF7A7079FA
:10332700F0FD12836A9003F1E0FEA3E0FFC374038C
:103337009FFFE49EFE0236E19003D2E0640360083B
:10334700900397E06402700A7BFF7A707994E40235
:103357003755900014E030E00B7BFF7A717907E472
:10336700FD02836A301B030234599003DBE06413C8
:10337700702E7BFF7A71791EFD12836A9003F0E04D
:10338700C3942374809480500B7BFF7A7179357DC9
:103397000112836A9003DB7404F0E4A3F0A3F02224
:1033A700900364E0640370147BFF7A707999FD12CF
:1033B7005EEE900312E0FF7E0002354A9003DFE0E5
:1033C70060179003DCE07002A3E070289003DB74C1
:1033D70004F0E49003DFF0801B9003DBE0D3940D4F
:1033E70074809480400EA37401F0A374F4F09003EA
:1033F700DF7401F09003DBE0C39405748094805080
:1034070043A3E07002A3E0703B1284369003DCE430
:10341700F0A374FAF09003DBE02401FFE433FE7CB1
:10342700007D051227B9EDF0E0FF7E007401A807C3
:10343700088005C333CE33CED8F9FF900310E0FDE3
:10344700EF5D60D19003DDE024FFF09003DCE03412
:10345700FFF09003DBE060030235077BFF7A7079AA
:103467009DFD125EEE9003CFE0FEA3E0FFC3943C08
:10347700EE9400500F9001EEEFF09003CEE0900134
:10348700EFF080259003CFE0FAA3E0FB7C007D3CC2
:10349700FFAE021227B99001EEEFF07C007D3CAF42
:1034A70003AE021227B9A3EDF09001EEE0D39463C7
:1034B7007480948040037463F0D39003D0E0943B0E
:1034C7009003CFE0940040159003F0E0D394197473
:1034D70080948040087BFF7A7079A280067BFF7A10
:1034E7007079AA9001EEE0FF9001FBE4F0A3EFF002
:1034F7009001EFE0FF9001FDE4F0A3EFF002387BCD
:103507009003DBE0FF64016005EF6412703F7BFF0F
:103517007A7079B2E4FD125EEE900364E0640170A4
:103527000D9003D2E0640170059002C880039003F8
:1035370012E0FF9001F0E4F0A3EFF09001F0E0FE5D
:10354700A3E0FF7C007D031227B902370A9003DB53
:10355700E0640270177BFF7A7079B6FD125EEE9019
:1035670003D5E0FEA3E0FF7D010282BD9003DBE00F
:10357700640370797BFF7A7079B9FD125EEE7FA0E4
:103587007E867D017C009003D7E0F8A3E0F9A3E0F5
:10359700FAA3E0FBC3122965501AE47B0AFAF9F88B
:1035A7009003D7E0FCA3E0FDA3E0FEA3E0FF122811
:1035B700AF02370A7F407E427D0F7C009003D7E041
:1035C700F8A3E0F9A3E0FAA3E0FBC31229654003DF
:1035D7000238EEE47B64FAF9F89003D7E0FCA3E045
:1035E700FDA3E0FEA3E0FF1228AF0236E19003DB64
:1035F700E0640470327BFF7A7079BDFD125EEE9055
:10360700031CE0FEA3E0FFC39410EE942750028052
:103617001390031CE0FEA3E0FF7C277D101227B95F
:10362700AE04AF050236E19003DBE064107016903C
:10363700031BE0FF7E00E4FD12827B9002CAE0FFDD
:103647007E000236E19003DBE06411703E7B64FA92
:10365700F9F890025CE0FCA3E0FDA3E0FEA3E0FF25
:103667001228AFE49001F6F01283C1E47B64FAF903
:10367700F8900291E0FCA3E0FDA3E0FEA3E0FF12B7
:1036870028AF9001F67401F00283C19003DBE06478
:103697000670137BFF7A7079C2FD125EEE900314F9
:1036A700E0FF7E0080349003DBE0640770137BFF4C
:1036B7007A7079C5FD125EEE900326E0FF7E0080EA
:1036C700199003DBE0640870167BFF7A7079C8FDF8
:1036D700125EEE900323E0FF7E007D0102852790B6
:1036E70003DBE0FF64096005EF640F701B7BFF7A63
:1036F7007079CBE4FD125EEE900315E075F003845C
:10370700FF7E007D0102827B9003DBE0640A702369
:103717007BFF7A7079CFFD125EEE2011087BFF7A6E
:103727007079D480472011030238EE7BFF7A7079D5
:10373700D880399003DBE0640B70169002C7E0FF76
:103747007E007D011285277BFF7A4479F9E4FD80AD
:103757001D9003DBE0640E60030238EE7BFF7A7096
:1037670079DBFD125EEE7BFF7A7079E07D01025E08
:10377700EE900364E064027006C2C2D290D29190C8
:1037870003F1E07004A3E0640160030238EED2CDD8
:10379700D280227BFF7A7079E59003B0E0FF900139
:1037A700FBE4F0A3EFF0E4FF127D0DD2C2D290D27A
:1037B70091C2809003B0E0FD7C006408700302773B
:1037C700D0ED640A4C600B9003B0E0640B60030219
:1037D70038EE1285BCE47B887A13F9F81228AFAB70
:1037E70007AA06C002C00390000FA3A3E0FEA3E050
:1037F700FBAA069003ABA3A3E0FEA3E0C39BFFEEE7
:103807009AFED003D002C3EF9BFFEE9AFEC006C01C
:10381700079003B0E0FF7E007C007D141227A7C34A
:1038270074E69FFFE49EFE3395E0FDFCE47B3CFAE3
:10383700F9F8122824D0E02FFFD0E03E9001F0F0F5
:10384700A3EFF09001F0E0FAA3E0FB7C007D3CFFE2
:10385700AE021227B99001FBEEF0A3EFF07C007DDA
:103867003CAF03AE021227B9A3ECF0A3EDF07BFF48
:103877007A7079AA7F01027D0D9002CCE064967080
:10388700057F011200037BFF7A7079EBE4FD125E7E
:10389700EE9002CCE0D39400748094804005E0144D
:1038A700F08002C2109002CCE0FFC374969FFFE441
:1038B7009400FE7C007D191227A77D961227B990E8
:1038C70001F0EEF0A3EFF0D39400EE9400401890CF
:1038D70001F0E0FEA3E0FF7D18900360E0FBA3E0AA
:0738E700FAA3E0F9122B62C5
:0138EE0022B7
:105539001282FF9003EDE0FEA3E0FF4E70030257D5
:1055490066301703025766301003025766D2179068
:105559000038EEF0A3EFF0900397E060030257667E
:105569009003EDA3E08EF0122A1F55A7000155DC28
:10557900000256A60003563C0004571F0011572687
:1055890000135706010156C701035748011155A7D2
:10559900100056DA1100572D1101000057667F01DE
:1055A900120003900364E0FF7E006402700CC213D2
:1055B90090900B9390036402571BEF4E7007900372
:1055C900640402571B900364E06401600302576698
:1055D90002571B9003D2E0640470030257667F01EF
:1055E9001200039003DB7412F0900312E0D39400CD
:1055F90074809480403B900364E0FF64016005EF90
:105609006403702D9002C8E0240FF0900315E0FFA9
:105619009002C8E0D39F4008EFF09003DB740FF0CD
:105629009002C8E075F00F84AFF0EF6068E0C39FA7
:10563900F080629003D2E0640470030257667F0130
:105649001200039003DB7412F0900312E0D394006C
:1056590074809480403F900364E0FF64016005EF2B
:10566900640370319002C8E0C3941E748094805022
:10567900089003977402F080079002C8E024F1F0C3
:105689009002C8E075F00F84AFF0EF6008C3740FA3
:105699009FFFE02FF0E49003EDF0A3F0229003D2F6
:1056A900E0640470030257667F011200039003D27D
:1056B900E090039770047403F0227402F0229003BF
:1056C900D2E0640360030257667F01120003D2121D
:1056D90022900364E0640270247F021200039000A8
:1056E90014E04401F0C21390900BE493900364F02A
:1056F9006403700204F0D219E4FF0200269003D279
:10570900E0705A7F011200037F041200269003649F
:105719007402F0D219229003DB7411F0229003DB9A
:105729007410F022900364E0C39402748094805052
:105739002C7F01120003D21B9003DB7406F0229028
:105749000364E0640460167F01120003900364742B
:0E57590004F07F061200269002C87478F02239
:102BA400900295E0FCA3E0FDA3E0FEA3E0FF900209
:102BB40060E0F8A3E0F9A3E0FAA3E02FFFEA3EFE09
:102BC400E93DFDE83CFCE47B02FAF9F81282379017
:102BD40001EE12299C301939900364E0FF6402600D
:102BE40029EF64046024E0FD7F0B7E9012784A9004
:102BF4000364E064017013900312E0FFD394007443
:102C040080948040059002C8EFF0E49002C6F0C2C0
:102C140019E49003E1F09003B0E0FF7E00D3940048
:102C240074809480403D9003D2E064056035EF6485
:102C3400087011900364E0600B900299E0640370E3
:102C44002230091F900312E0D394007480948040D2
:102C5400089003977402F0800AE4900397F07F05CC
:102C64001200269003D2E0B4070040030231DB9047
:102C74002C7AF8282873022CDB02301E02310A0257
:102C84003111022C8F0231A1022FD4900364E0642D
:102C94000260227F01120003C213C21CD39003F20C
:102CA400E0940A9003F1E094004007900014E0449B
:102CB40040F002310C9003F1E07004A3E064016081
:102CC400030231DB9003F0E060030231DB12775240
:102CD400D21CD21F0231DB900397E064036002E44C
:102CE400F0C39003F2E094589003F1E09402500B87
:102CF400900364E0FD7C006402700B900364740232
:102D0400F0D2190231B3ED64054C7007900397F0CB
:102D14000231DB900397E064037033F0900364E0C6
:102D2400FF64016018EF640360030231DB90036306
:102D3400E0C394057480948040030231DB9002CB9D
:102D4400E09002C8F09003DB7412F0022E35E47FA9
:102D5400C47E09FDFC9001EEE0F8A3E0F9A3E0FADB
:102D6400A3E0FBD312294F404220093F900364E0C3
:102D7400FF64016011EF64037031900363E0940514
:102D8400748094805025301B030231DB9003D1E022
:102D9400D3940F7480948040099003DB7413F00281
:102DA40031DB9003D1E004F00231DBE47FC47E091F
:102DB400FDFC9001EEE0F8A3E0F9A3E0FAA3E0FB48
:102DC400D312294F407020106D9003F0E0D394018A
:102DD400748094804060900364E0601B6403700C12
:102DE400900363E0940574809480500B30094790FD
:102DF4000364E06403603F9003D1E0FF04F0C3EF99
:102E0400940F7480948050030231DB900364E0FFDC
:102E14007E0070089002CD740FF0800EEF64014EB6
:102E240070089002CBE09002C8F07F01120003C248
:102E34001F7F060231D8900364E06403701490038A
:102E440063E06407700C900299E0700612748D02BE
:102E540031DB9003F1E07004A3E06401600302310C
:102E64009A9003F0E06401600302319A900016E046
:102E7400FEA3E0FFD39003D6E09F9003D5E09E50DD
:102E8400030231DB900037E09405748094804003A2
:102E94000231DB9003D5E0FCA3E0FDC39FFFEC9E71
:102EA400FE90002CE02FF090002BE03EF0900016F6
:102EB400ECF0A3EDF090002DE0F8A3E0F9A3E0FA24
:102EC400A3E0FBC000C001C002C00390001AE0F8F8
:102ED400A3E0F9A3E0FAA3E0FB9003D7E0FCA3E0AE
:102EE400FDA3E0FEA3E0C39BFFEE9AFEED99FDEC8B
:102EF40098FCD003D002D001D000EB2FFFEA3EFEB5
:102F0400E93DFDE83CFC90002D12299C9003D7E09C
:102F1400FCA3E0FDA3E0FEA3E0FF90001A12299CAD
:102F2400900020E0FEA3E0FF90031CE0FCA3E0FD82
:102F3400C39FFFEC9EFE900032E02FF0900031E042
:102F44003EF0900020ECF0A3EDF09003CFE0FEA360
:102F5400E0FF7C007D3C1227A79003CEE02FFFEC1E
:102F64003EFE900024E0FCA3E0FDC3EF9DFDEE9C3B
:102F7400FC900034E02DF0900033E03CF09000240D
:102F8400EEF0A3EFF090002BE0FCA3E0FD7F177EB2
:102F94009012808690002DE0FCA3E0FDA3E0FEA348
:102FA400E0FF9001FB12299C7F197E901281AB9067
:102FB4000031E0FCA3E0FD7F1D7E9012808690002E
:102FC40033E0FCA3E0FD7F1F7E901280860231DB9C
:102FD4009003F1E0FCA3E0FDC39403EC94004010E3
:102FE4009003117401F0E49002C6F07F010231D81D
:102FF400900397E0640270057F030231D89003F0D8
:10300400E060030231DBC3ED9401EC940050030251
:1030140031DB7F011200030231DB9003E17401F024
:10302400127E93900311E064027028127A1C9003BC
:103034001CE0FFA3E0900319CFF0A3EFF0900397F7
:10304400E0640170047F0280027F03120026E49092
:103054000397F090030FE0640170030231DB9002E8
:10306400F2E0FEA3E0FFD39400EE9400500302319B
:10307400DB900316E0F9700C9003D0E09F9003CF2F
:10308400E09E5059E9FB7A006401701C9003D5E07E
:10309400FEA3E0FF7C007D641227B9D39002F3E025
:1030A4009F9002F2E09E4035EB64024A70497B64D3
:1030B400FAF9F89003D7E0FCA3E0FDA3E0FEA3E057
:1030C400FF1228AFA804A905AA06AB079002F2E0F4
:1030D400FEA3E0FFE4FCFDC3122965401A90030F30
:1030E400E0700B9003DB740EF07F05120003900375
:1030F4000F7401F00231DB90030FE06402600302FD
:1031040031DBF00231DBD213E4FF0231D890031239
:10311400E07004900397F0900295E0FCA3E0FDA317
:10312400E0FEA3E0FF900260E0F8A3E0F9A3E0FA78
:10313400A3E02FFFEA3EFEE93DFDE83CFCE47B58BA
:103144007A02F9F8D312294F5019900363E0FF640F
:10315400056010EF6401600B20093B900364E06498
:10316400017033900364E064047012900312E07001
:103174006690900B93900364F0D219805A9003D117
:10318400E0FF04F0C3EF9403748094804049D213A9
:10319400C212E4FF803EE49003D1F0803AE490034D
:1031A40097F0900364E0FD7C0064027006D2807F97
:1031B4000480219003B0E060176408701A900299AB
:1031C400E0C3940374809480500DED64014C700747
:1031D400C213E4FF120026200A379003E1E06401E1
:1031E400602F300B2C9003DEE0D394037480948022
:1031F4004011E4F09003117402F0D213E4FF1200C2
:103204002680139003F0E0700D9003DEE004F0805C
:1032140005E49003DEF0200A349003E1E0640170D9
:103224002C200B299003E0E0D3940A74809480400E
:103234000FE4F09003117402F0D213E4FF020026AD
